:020000040000FA
:10000000D0300020F5030000FD030000FF030000D6
:1000100001040000030400000504000000000000CB
:100020000000000000000000000000003503000098
:100030000904000000000000910300000D180000FA
:100040000F04000011040000130400001504000058
:1000500017040000190400001B0400001D04000028
:100060001F040000210400002304000025040000F8
:1000700027040000290400002B0400002D040000C8
:100080002F04000031040000330400003504000098
:1000900037040000390400003B0400003D04000068
:1000A0003F04000041040000430400004504000038
:1000B00047040000490400004B0400004D04000008
:1000C0004F040000510400005304000055040000D8
:1000D00057040000590400005B0400005D040000A8
:1000E0005F040000610400000000000063040000E1
:1000F0006504000067040000690400006B04000050
:100100006D0400006F04000071040000730400001F
:1001100000000000000000007504000077040000EB
:10012000790400007B0400007D0400007F040000CF
:10013000810400008304000085040000870400009F
:1001400000000000000000000000000000000000AF
:10015000890400008B0400008D0400008F0400005F
:10016000000000000000000000000000000000008F
:10017000000000000000000000000000000000007F
:10018000000000000000000000000000000000006F
:10019000000000000000000000000000000000005F
:1001A000000000000000000000000000000000004F
:1001B00091040000930400009504000097040000DF
:1001C000990400009B0400009D0400009F040000AF
:1001D000A1040000A3040000A5040000A70400007F
:1001E000A9040000AB040000AD0400000000000002
:1001F00000000000AF040000B1040000B3040000E0
:10020000B5040000B704000000000000000000007A
:10021000B9040000BB040000BD040000BF040000DE
:10022000C1040000C3040000C5040000C7040000AE
:10023000C9040000CB040000CD040000CF0400007E
:10024000D1040000D3040000D5040000D70400004E
:10025000D9040000DB040000DD040000DF0400001E
:10026000E1040000E3040000E504000000F002F8EF
:1002700000F04CF80AA090E8000C82448344AAF1F4
:100280000107DA4501D100F041F8AFF2090EBAE8F2
:100290000F0013F0010F18BFFB1A43F001031847BA
:1002A000F0480000104900000A4410F8014B14F017
:1002B0000F0508BF10F8015B240908BF10F8014BB7
:1002C0006D1E05D010F8013B6D1E01F8013BF9D100
:1002D000641E03D0641E01F8015BFBD19142E4D39C
:1002E000704700000023002400250026103A28BF94
:1002F00078C1FBD8520728BF30C148BF0B60704798
:100300001FB504F0BFF91FBD10B510BD00F0C7F94F
:10031000114603B401F03DFD03BCFFF7F1FF01F00E
:1003200041FD00F0E1F903B4FFF7EEFF03BC00F07C
:10033000E9F900002C4B19680868B0E8F04F80F329
:100340000988BFF36F8F4FF0000080F3118870476A
:100350000000000008480068006880F308884FF03B
:10036000000080F3148862B661B6BFF34F8FBFF30D
:100370006F8F00DF00BF00BF08ED00E0DFF80C006A
:10038000016841F470010160704700BF88ED00E032
:10039000EFF30980BFF36F8F134B1A681EF0100F35
:1003A00008BF20ED108A20E9F04F106009B44FF02B
:1003B000100080F31188BFF34F8FBFF36F8F03F0EE
:1003C00051F84FF0000080F3118809BC19680868E3
:1003D000B0E8F04F1EF0100F08BFB0EC108A80F3A9
:1003E0000988BFF36F8F704700010020EFF305808D
:1003F000704700003F4880473F480047FEE7FEE760
:10040000FEE7FEE7FEE7FEE7FEE7FEE7FEE7FEE7C4
:10041000FEE7FEE7FEE7FEE7FEE7FEE7FEE7FEE7B4
:10042000FEE7FEE7FEE7FEE7FEE7FEE7FEE7FEE7A4
:10043000FEE7FEE7FEE7FEE7FEE7FEE7FEE7FEE794
:10044000FEE7FEE7FEE7FEE7FEE7FEE7FEE7FEE784
:10045000FEE7FEE7FEE7FEE7FEE7FEE7FEE7FEE774
:10046000FEE7FEE7FEE7FEE7FEE7FEE7FEE7FEE764
:10047000FEE7FEE7FEE7FEE7FEE7FEE7FEE7FEE754
:10048000FEE7FEE7FEE7FEE7FEE7FEE7FEE7FEE744
:10049000FEE7FEE7FEE7FEE7FEE7FEE7FEE7FEE734
:1004A000FEE7FEE7FEE7FEE7FEE7FEE7FEE7FEE724
:1004B000FEE7FEE7FEE7FEE7FEE7FEE7FEE7FEE714
:1004C000FEE7FEE7FEE7FEE7FEE7FEE7FEE7FEE704
:1004D000FEE7FEE7FEE7FEE7FEE7FEE7FEE7FEE7F4
:1004E000FEE7FEE7FEE7000004480549034A054B26
:1004F00070470000251800006D020000D02E00207B
:10050000D0300020D02E0020032A40F2308010F09E
:10051000030C00F0158011F8013BBCF1020F62449E
:1005200098BF11F801CB00F8013B38BF11F8013B2F
:10053000A2F1040298BF00F801CB38BF00F8013BDC
:1005400011F0030300F07980083AC0F0088051F8F8
:10055000043B083A51F804CBA0E80810F5E7121D57
:100560005CBF51F8043B40F8043BAFF30080D20776
:1005700024BF11F8013B11F801CB48BF11F8012B42
:1005800024BF00F8013B00F801CB48BF00F8012B65
:10059000704702F0FF0343EA032242EA024200F0FE
:1005A00002B84FF000020429C0F0128010F0030CD2
:1005B00000F01B80CCF1040CBCF1020F18BF00F856
:1005C000012BA8BF20F8022BA1EB0C0100F00DB805
:1005D0005FEAC17C24BF00F8012B00F8012B48BF63
:1005E00000F8012B70474FF0000200B51346944607
:1005F0009646203922BFA0E80C50A0E80C50B1F17B
:100600002001BFF4F7AF090728BFA0E80C5048BF8E
:100610000CC05DF804EB890028BF40F8042B08BF2C
:10062000704748BF20F8022B11F0804F18BF00F828
:10063000012B704770477047704710B5203AC0F0E3
:100640000B80B1E81850203AA0E81850B1E81850D3
:10065000A0E81850BFF4F5AF5FEA027C24BFB1E810
:100660001850A0E8185044BF18C918C0BDE8104081
:100670005FEA827C24BF51F8043B40F8043B08BF8A
:100680007047D20728BF31F8023B48BF11F8012B51
:1006900028BF20F8023B48BF00F8012B7047754681
:1006A00000F02CF8AE4605006946534620F00700DE
:1006B000854618B020B5FFF717FFBDE820404FF082
:1006C00000064FF000074FF000084FF0000B21F03C
:1006D0000701AC46ACE8C009ACE8C009ACE8C00909
:1006E000ACE8C0098D46704710B50446AFF30080F2
:1006F0002046BDE81040FFF716BE000000487047D6
:100700006C2E002001491820ABBEFEE72600020037
:100710007047012202FA01F1C160704732B1C0682E
:100720004FF0011202FA01F10840704740680122BF
:100730008A4042F48032104010F4803F08BF704776
:1007400040F470204FF4803202FA01F18843704780
:100750000A4601F00F0101236FF30F0203FA01F1C2
:100760001143826A11438162704730B44469890041
:100770004FF00F0C0CFA01FC02F00F0524EA0C04F8
:100780008D402C434461046A03F0030324EA0C0CFB
:1007900003FA01F14CEA0101016202F00F018B1F23
:1007A000032B84BF30BC7047C900C3694FF0300CC5
:1007B00030390CFA01FC02F0300223EA0C0302FA91
:1007C00001F11943C16130BC704700EB411000F1E9
:1007D0004001002003E08B6842F8043B401CCB68DA
:1007E00013F4807F18BF70470828F4D3704702685D
:1007F000012303FA01F111430160704710B400EBCB
:100800004110910050F840CF0F228A4003F00F04AE
:100810002CEA020C8C404CEA040CC0F800C0D0F862
:1008200018C0C3F303242CEA020C8C404CEA040CDD
:10083000C0F818C0D0F804C0C3F303142CEA020CAB
:100840008C404CEA040CC0F804C0D0F81CC0C3F3C0
:1008500003542CEA020C8C404CEA040CC0F81CC077
:1008600013F4702F4FF001040DD0D0F814C0C3F36F
:1008700002432CEA02028B401A434261026904FAE5
:1008800001F1114304E0026904FA01F122EA0101D5
:10089000016110BC7047000010B51B4800F0A2FFBA
:1008A0001948401C00F09EFF184800F09BFF0621ED
:1008B000174800F05CF900231A4603211548FFF79A
:1008C00054FF00231A4603211348FFF74EFF61230C
:1008D000002203210F48FFF791FF6223002203212A
:1008E0000D48FFF78BFF03210A48FFF780FF032124
:1008F0000948FFF77CFF03210648FFF70AFF0321A1
:100900000548FFF706FF10BD003800F0040800F0AE
:1009100000400240008003400090034070B54FF05B
:100920008070406C81692648884700BF4FF0807016
:10093000406CD0F88C10224888470028F6D04FF041
:100940008070406C81691F48884700BF4FF08070FD
:10095000406CD0F88C101B4888470028F6D04FF028
:100960008071496C086E804705464FF08070406981
:1009700060234FF4E132294644691348A0474FF001
:100980008070006A816E012088474FF08070006A95
:10099000816E40F2014088474FF08070006A032169
:1009A000426D4FF0402090470521074800F0F1FFCD
:1009B000064A4FF4E131002000F0EEFF70BD000068
:1009C000000800F0001800F000C000400024F4000F
:1009D000D0F8003412F0010F14BF0B438B43C0F862
:1009E000003412F0020FD0F8202414BF114322EA81
:1009F0000101C0F8201470472DE9F04F574ED6F88A
:100A000000C0574FDFF85C810CEA070CC44524D0C6
:100A10004FF0000C4FF001094FF0030AC2F34115EB
:100A200009FA0CF40C4211D0D0F8C4BF4FEA4C04C0
:100A30000AFA04FE2BEA0E0BC0F8C4BFD0F8C4BFFC
:100A400005FA04F44BEA0404C0F8C44F0CF1010C9D
:100A50000CF0FF0CBCF1080FE2D3D0F800C512F087
:100A6000010F14BF4CEA010C2CEA010CC0F800C5C0
:100A7000D0F804C512F0020F14BF4CEA010C2CEAA6
:100A8000010CC0F804C5D0F808C512F0040F14BF5B
:100A90004CEA010C2CEA010CC0F808C5D0F818C5C6
:100AA00012F0080F14BF4CEA010C2CEA010CC0F83C
:100AB00018C5D6F800C00CEA070CC44508D012F0DF
:100AC000100FD0F83C250CBF8A430A43C0F83C25E0
:100AD000D0F80C2513F0010F14BF0A438A43C0F865
:100AE0000C25D0F8102513F0020F14BF0A438A43D7
:100AF000C0F81025D0F8142513F0040F14BF0A43D2
:100B00008A43C0F81425D0F81C2513F0080F14BF31
:100B10000A438A43C0F81C2532683A40424511D046
:100B2000D0F8442513F4007F0CBF8A430A43C0F871
:100B30004425D0F8402513F4407F14BF0A438A436C
:100B4000C0F84025D0F82825002B0CBF114322EA1D
:100B50000101C0F82815BDE8F08F000000E00F404B
:100B60000000FF700000051050F82100704730B5FC
:100B70000C4605460022FFF72BFF21462846BDE81C
:100B8000304000230122FFF737BF40F82120704793
:100B900070B54FF0000500BFEFF3058008B10125E7
:100BA0000DE003F0F7F90446012C08D000BFEFF385
:100BB000108018B900BFEFF3118000B1012528465D
:100BC00070BD000010B540F6B8311C48006801F057
:100BD0001FFC04461CB11AA000F014FF2DE000BF5A
:100BE0004FF0FF33002201211F48006801F0E6F9B1
:100BF0004FF0FF311D48006801F07AFA03211C48CC
:100C0000FFF7A6FD00BF002203211948FFF786FD6C
:100C10000028F8D003211648FFF77BFD154A032171
:100C20001348FFF7D2FD1148006801F0F1FA0121E5
:100C30000D48006801F03AF9D2E710BD3C000020F1
:100C40004572726F7220696E697469616C697A6944
:100C50006E67204C4452207265616420746872652E
:100C600061642E2E2E0A000094000020BC0000209B
:100C7000009003401000002010B54FF47A71154821
:100C8000006801F0C5FB04461CB113A000F0BAFED9
:100C90001EE000BF4FF0FF3300220121174800681B
:100CA00001F08CF901211648FFF75EFF28B90122F7
:100CB00011461348FFF769FF04E0002201211048A4
:100CC000FFF763FF01210D48006801F0EFF8E1E74D
:100CD00010BD00002C0000204572726F7220696EFA
:100CE000697469616C697A696E67204C454420318A
:100CF000207468726561642E2E2E0A004400002064
:100D00000070004010B5FA211448006801F080FB23
:100D100004461CB112A000F075FE1EE000BF4FF0AB
:100D2000FF33002201211748006801F047F9022132
:100D30001548FFF719FF28B9022211461248FFF79C
:100D400024FF04E0002202210F48FFF71EFF0121CB
:100D50000C48006801F0AAF8E1E710BD300000205F
:100D60004572726F7220696E697469616C697A6923
:100D70006E67204C45442032207468726561642E91
:100D80002E2E0A00580000200070004010B57D2172
:100D90001448006801F03CFB04461CB112A000F0AE
:100DA00031FE1EE000BF4FF0FF3300220121174843
:100DB000006801F003F904211548FFF7D5FE28B9B2
:100DC000042211461248FFF7E0FE04E0002204214D
:100DD0000F48FFF7DAFE01210C48006801F066F8C1
:100DE000E1E710BD340000204572726F7220696E19
:100DF000697469616C697A696E67204C4544203377
:100E0000207468726561642E2E2E0A006C0000202A
:100E10000070004010B54FF08070406C81690A4846
:100E2000884700BF4FF08070406CD0F88C100648A7
:100E300088470028F6D04FF08070006A0F21C26BFF
:100E40000248904710BD0000030800F00070004009
:100E500070B5044625462878012804D0022808D019
:100E6000032812D10BE001210948006801F072F853
:100E70000CE001210748006801F06CF806E0012150
:100E80000548006801F066F800E000BF00BF70BDD3
:100E900044000020580000206C00002010B51248CB
:100EA00001F034F811490860114801F02FF8114998
:100EB0000860114801F02AF8104908600B480068E2
:100EC00028B10C48006810B10846006828B94FF0F6
:100ED000FF340BA000F096FD03E0002410A000F00A
:100EE00091FD204610BD0000480000204400002075
:100EF0005C00002058000020700000206C000020E2
:100F00004C454473206576656E7420666C6167732A
:100F100020696E6974206572726F722E2E2E0A001F
:100F20004C454473206576656E7420666C6167730A
:100F300020696E697420737563636573732E2E2E3A
:100F40000A00000010B5154A0021154801F090F97B
:100F500014490860144A0021144801F089F9144921
:100F60000860144A0021144801F082F9134908600E
:100F70000C48006828B10E48006810B108460068A7
:100F800028B94FF0FF340EA000F03CFD03E0002430
:100F900012A000F037FD204610BD00009046000072
:100FA000790C000014000020B4460000050D00007C
:100FB00018000020D84600008D0D00001C00002005
:100FC0004C4544732074726561647320696E697462
:100FD000206572726F722E2E2E0A00004C454473EB
:100FE0002074726561647320696E6974207375631F
:100FF000636573732E2E2E0A0000000010B5164B89
:10100000164A0121164801F08FF916490860164B5F
:10101000164A0121124801F087F915490860154B5D
:10102000154A01210E4801F07FF9144908600D4866
:10103000006828B10E48006810B10846006828B959
:101040004FF0FF340EA000F0DDFC03E0002413A0FD
:1010500000F0D8FC204610BD6847000004000020C6
:10106000510E00002C0000207847000005000020F1
:1010700030000020884700000600002034000020D7
:101080004C4544732074696D65727320696E697490
:10109000206572726F722E2E2E0A00004C4544732A
:1010A0002074696D65727320696E6974207375634D
:1010B000636573732E2E2E0A0000000010B51248CF
:1010C00000F024FF11490860114800F01FFF11498A
:1010D0000860114800F01AFF104908600B480068CA
:1010E00028B10C48006810B10846006828B94FF0D4
:1010F000FF340BA000F086FC03E0002415A000F0F4
:1011000081FC204610BD00008400002080000020EB
:101110009800002094000020AC000020A8000020CF
:1011200053656E736F7273207265616420616E64C3
:10113000207265706F7274206576656E7420666CBF
:1011400061677320696E6974206572726F722E2EEA
:101150002E0A000053656E736F72732072656164AE
:1011600020616E64207265706F7274206576656EA2
:101170007420666C61677320696E6974207375638F
:10118000636573732E2E2E0A0000000010B50B4A03
:101190000121084600F0E4FF09490860084600689C
:1011A00028B94FF0FF3407A000F02CFC03E0002426
:1011B00011A000F027FC204610BD0000C000002058
:1011C000BC00002053656E736F727320726561649A
:1011D00020616E64207265706F72742073656D613A
:1011E00070686F726520696E6974206572726F72C3
:1011F0002E2E2E0A0000000053656E736F7273204E
:101200007265616420616E64207265706F72742013
:1012100073656D6170686F726520696E69742073A3
:101220007563636573732E2E2E0A000010B5154A80
:101230000021154801F01CF814490860144A0021E7
:10124000144801F015F814490860144A00211448A4
:1012500001F00EF8134908600C48006828B10E48E8
:10126000006810B10846006828B94FF0FF340EA09E
:1012700000F0C8FB03E0002417A000F0C3FB2046E9
:1012800010BD0000FC460000BD180000200000203A
:1012900020470000C50B0000240000204447000048
:1012A000F11300002800002053656E736F727320E5
:1012B0007265616420616E64207265706F72742063
:1012C0007468726561647320696E697420657272F6
:1012D0006F722E2E2E0A000053656E736F7273208C
:1012E0007265616420616E64207265706F72742033
:1012F0007468726561647320696E697420737563C4
:10130000636573732E2E2E0A0000000010B5164B75
:10131000164A0121164801F007F816490860164BD5
:10132000164A0121124800F0FFFF15490860154BCD
:10133000154A01210E4800F0F7FF144908600D48D6
:10134000006828B10E48006810B10846006828B946
:101350004FF0FF340EA000F055FB03E0002418A06E
:1013600000F050FB204610BD984700000700002009
:10137000AD14000038000020A8470000080000203D
:101380003C000020B8470000090000204000002079
:1013900053656E736F7273207265616420616E6451
:1013A000207265706F72742074696D657273206944
:1013B0006E6974206572726F722E2E2E0A00000004
:1013C00053656E736F7273207265616420616E6421
:1013D000207265706F72742074696D657273206914
:1013E0006E697420737563636573732E2E2E0A0005
:1013F00010B54FF47A711548006801F009F80446F9
:101400001CB113A000F0FEFA1FE000BF4FF0FF3345
:10141000002201211A48006800F0D0FD4FF0FF3192
:101420001848006800F064FE174802681748016811
:1014300017A000F0E7FA1348006800F0E9FE012168
:101440000F48006800F032FDE0E710BD40000020CA
:101450004572726F7220696E697469616C697A692C
:101460006E672073656E736F7273207265706F7232
:1014700074207468726561642E2E2E0A00000000CC
:10148000A8000020BC000020100000200C0000205C
:1014900054656D70657261747572653A2025640AD1
:1014A0004C44523A2025640A0A00000070B50446F4
:1014B0002546287820B1012808D0022812D10BE057
:1014C00001210A48006800F045FD0CE001210848B0
:1014D000006800F03FFD06E001210648006800F0CA
:1014E00039FD00E000BF00BF70BD0000800000209B
:1014F00094000020A80000202DE9F003AF4D024623
:101500002868AF4B1840A0F18053B3F5A02359D001
:1015100002F03809DFF8AC82C2F38414B9F1100F7D
:1015200025D0B9F1300F04BF47F230504FF400130B
:101530000DD04FF03800904304BF4FF40040C3017A
:1015400005D012F0380F1CBF0020034613D09E4F69
:1015500012F4605F4FF0000618BF00222CD057F83D
:10156000324044457DD307EBC2025268E1E00023DC
:1015700040461524EBE7A4F10900122822D2934833
:10158000D5F87CC04FF04C7350F824002CF01C0CA4
:10159000072CA8BF4CF0100CC5F87CC02E6D4FF482
:1015A000002C16F4807FD2D1BCF1010C0AD02E6D34
:1015B00016F4807FF8D0CAE712F0380F18BFB9F1DF
:1015C000100F04D0BDE8F0034FF000007047C2F3E5
:1015D0000268DFF8FCC14FF0000257F83290E14595
:1015E00003D307EBC202526803E0521C062AF4D36D
:1015F0003246C5F8C020D5F8B020DFF8D8C102EADD
:101600000C0242F00042C5F8B020DFF8CCC1A4F1D2
:1016100009024C1E5CF828C0A444BCFBF1FCD5F8C0
:10162000B0101943C5F8B01008EBC80101EB410434
:101630006A4902EB420201EBC40101EB82046468D7
:10164000C5F86441D5F864416FF0FF0808EB0C2C35
:1016500044EA0C0CC5F864C151F82210D5F8602199
:1016600000E061E002F400021143C5F86011D5F812
:101670006011D5F86021C1F38921C2F30904D5F8BE
:101680006421C2F3042202F1010CD5F8642102F0B6
:101690001F02521CB0FBF2F04A09C2F10008444399
:1016A000424301EB481104EB5212484302EB9020F5
:1016B000B0FBFCF041080846002257F832C08445D0
:1016C00003D307EBC200466802E0521C062AF4D39B
:1016D000C5F8C060D5F8600110F4000F1DBFD5F843
:1016E000B00040F08040C5F8B000D5F8600104BFFC
:1016F00040F40000C5F860014FF40040D5F86821BF
:1017000012F0010F02D1401E0028F7DC002808BFAC
:10171000002148D0D5F8B000184340F0010040F057
:101720001040C5F8B0003EE0521C062AFFF417AF87
:101730003246C5F8C020D5F8602122F40002C5F871
:101740006021D5F8B020DFF898C002EA0C0242F020
:101750000042C5F8B020002908BF4FF0000C0AD0A5
:10176000B0FBF1FCBCF1000F18BFACF1010C0CF1A7
:101770000101B0FBF1F10846002257F832408442E3
:1017800003D307EBC200466802E0521C062AF4D3DA
:10179000C5F8C060D5F8B00043EA8C22104340F091
:1017A0000040C5F8B000D5F8B00020F47000C5F8CE
:1017B000B000BDE8F00308467047000000E00F40AD
:1017C0000000FF700024F400084A0000EC4700000D
:1017D00040787D0100FC0FE0E4470000584800001D
:1017E000FF0300EFC0F307230749C0B2194401F01B
:1017F0007043C1F3130143EA411141EA800040F014
:10180000007001220260704700E60F4010B54FF0F3
:10181000E020006902F0BEFB012801D001F0B0FF1A
:1018200010BD00001B49096841F47001194A11609C
:1018300019491A4A11671A4911661A4911661A4953
:101840001167002000E0401CB0F57A7FFBD31749F8
:10185000124A116616491167002000E0401CB0F5DD
:101860007A7FFBD313490D4A116600BF0B49096DFE
:1018700001F040014029F9D10F49084A11664FF0A3
:10188000C0711167002000E0401C42F210718842D4
:10189000FAD3704788ED00E01028800700E00F4081
:1018A000D13A8E07422D9E0100288001420D9E01F3
:1018B00000088001420DDE014205DE0110B54FF443
:1018C0007A711C48006800F0A3FD04461CB11AA000
:1018D00000F098F82DE000BF4FF0FF330022012107
:1018E0002148006800F06AFB4FF0FF311F48006894
:1018F00000F0FEFB03211E48FEF72AFF00BF002276
:1019000003211B48FEF70AFF0028F8D003211848DE
:10191000FEF7FFFE174A03211548FEF756FF13484E
:10192000006800F075FC01210F48006800F0BEFA65
:10193000D2E710BD380000204572726F7220696EC8
:10194000697469616C697A696E672074656D706528
:101950007261747572652072656164207468726565
:1019600061642E2E2E0A000080000020BC000020A2
:10197000008003400C00002070B50546284601F0A9
:10198000BDFA044624F0010414B1D4E900108847DC
:1019900070BDC0F8C81F70472DE9F04104460D46E0
:1019A0001646154A52F824004FF08072526C1169A5
:1019B000884708B9BDE8F081104850F82400104964
:1019C00008600D4A52F824004FF08072526C916901
:1019D00088474FF08070406960232A463146476946
:1019E00007480068B8474FF080704069C1690448F3
:1019F0000068884700BFDDE7D8470000CC470000FB
:101A0000D00000200FB408B503A8009000990298F8
:101A100000F006F80020009001B05DF814FB000013
:101A20002DE9F34F85B0064612E1002400E0641C66
:101A3000305D252802D0305D0028F8D1214630469F
:101A400000F016F9264430782528EDD1761C0025C3
:101A50004FF0200B00BF16F8011B382932D014DCE0
:101A600033292AD008DC25296FD0302922D031290A
:101A700021D032296AD11FE034291FD035291ED048
:101A800036291DD03729F5D11BE0692935D008DC6E
:101A9000392918D0582972D0632922D06429E9D174
:101AA0002AE070296CD073293CD0752958D0782948
:101AB000E0D163E000BF00BF00BF00BF00BF00BFB8
:101AC00000BF00BF00BF16F8010C302801D105B9D6
:101AD000834605EB8500450016F8010C30380544B7
:101AE000B9E70698006804900698001D0690012149
:101AF00004A800F0BDF8AAE000BF069800680490B2
:101B00000698001D06904FF000080498002805DA9A
:101B10000498404204904FF0010901E04FF00009A1
:101B20000A2739E0069850F804AB0690002400E03C
:101B3000641C1AF804000028FAD12146504600F02F
:101B400097F8A5420BD92D1B05E076E07AE001213C
:101B500043A000F08DF8281EA5F10105F7D176E02D
:101B60000698006804900698001D06904FF0000843
:101B70000A274FF000090FE001E001E000BF00BFBD
:101B80000698006804900698001D06904FF0000823
:101B900010274FF0000900BF012401E07C436D1EB7
:101BA00004FB07F00499884205D804FB07F0B0FB5A
:101BB000F7F0A042F2D0B9F1000F00D06D1EB9F1DC
:101BC000000F0AD0BBF1300F07D12D22404608F19B
:101BD00001080DF800204FF00009012D0BD9102D40
:101BE00009D26D1E05E0404608F101080DF800B06D
:101BF0006D1E002DF7D1B9F1000F05D02D22404602
:101C000008F101080DF8002010E00498B0FBF4F092
:101C1000B0FBF7F107FB1100124909680A5C404666
:101C200008F101080DF80020B4FBF7F4002CECD10A
:101C30004146684600F01CF809E0701E012100F0E2
:101C400017F804E0052108A000F012F800BF00BF5B
:101C5000307800287FF4E9AE07B0BDE8F08F0000CF
:101C600020000000C84700004552524F52000000BB
:101C700070B505460E46002417E0285D0A2808D1F5
:101C80004FF0807040690D2102680A480068904753
:101C900002E0285D00B90AE0295D4FF080704069DC
:101CA0000268044800689047641CB442E5D300BF52
:101CB000204670BDD000002010B5044600F0C7FBE0
:101CC00038B100F067F820B14FF0FF31206802F022
:101CD00037F810BD70B50546286801F007FA0024F2
:101CE0000BE0084951F824102868884204D10020EC
:101CF000044941F8240002E0641C052CF1D300BF24
:101D000070BD0000D404002070B50446002020609F
:101D1000002514E0154850F8250078B905EB85003A
:101D2000134A02EB0011012001F07BFD0F4941F83D
:101D30002500084650F82500206002E06D1C052DA6
:101D4000E8D300BF206830B900F081FB18B1012052
:101D500001F056FD2060002080F3118800BF20684C
:101D600008B9002070BD0120FCE70000D404002069
:101D70004403002010B5044600F069FB40B100F0B8
:101D800009F828B100231A461946206801F0F6FD2B
:101D900010BD704700BFEFF3058008B90120704700
:101DA0000020FCE70024FFF735F8FEF775FD4FF043
:101DB0008071896F086880472A492B48FFF79CFB90
:101DC0002A490860FEF7AAFD4FF08071896B4868C8
:101DD00080474FF08071896C486880474FF0807071
:101DE000006A002201210368214898474FF0807063
:101DF000006A0022022103681D4898474FF0807056
:101E0000006A002204210368194898474FF0807047
:101E1000006A0022082103681548984700F01AF963
:101E2000FFF73CF80443FFF7E9F80443FFF78AF8AB
:101E30000443FFF743F90443FFF768FA0443FFF74D
:101E4000A5F90443FFF7F2F904431CB909A0FFF711
:101E5000D9FD02E00FA0FFF7D5FD00F015F900BF96
:101E6000FEE70000000E2707800600F100000020BA
:101E70000070004053797374656D20496E69742059
:101E80007375636365737366756C6C792E2E2E0A99
:101E90000A00000053797374656D20496E697420DF
:101EA0006572726F722E2E2E0A0A00002DE9F04123
:101EB00005460E462F4617B106F07F4010B16FF071
:101EC00003041DE0FEF764FEA8B1384601F05CFB98
:101ED00004463146384601F02DFB10B96FF002047C
:101EE0000EE000BF4FF0805007490860BFF34F8FEE
:101EF000BFF36F8F04E03146384601F00BFB044618
:101F00002046BDE8F081000004ED00E070B5044615
:101F10000026FEF73DFED0B9751E64B1A06820B161
:101F2000E068202801D3012506E0A06820B9E06818
:101F300010B9002500E00025012D04D1A06801F0B2
:101F400016FB064603E015B901F002FB06463046D3
:101F500070BD0000F8B505460E462F4617B106F0D5
:101F60007F4010B16FF0030423E0FEF711FED8B1FB
:101F7000002000906A463146384601F065FB10B9F2
:101F80006FF0020415E0384601F0FEFA04463443CF
:101F900000BF009838B14FF0805007490860BFF388
:101FA0004F8FBFF36F8F04E03146384601F002FBDC
:101FB00004462046F8BD000004ED00E02DE9F84F8E
:101FC00080460D4617461E46C346BBF1000F02D0A1
:101FD00005F07F4010B16FF0030438E0FEF7D8FD44
:101FE00030B116B96FF0050431E06FF003042EE054
:101FF00007F0010010B14FF0010901E04FF00009B6
:1020000007F0020010B14FF0000A01E04FF0010AA2
:102010004B46524629465846009601F027FB044697
:1020200007F0010050B105EA0400A8420FD016B134
:102030006FF001040BE06FF0020408E005EA040011
:1020400028B916B16FF0010401E06FF002042046D8
:10205000BDE8F88F70B5FEF79BFD10B16FF0050479
:102060000EE001F097FF0546012D07D105480068F5
:1020700020B9012003490860002401E04FF0FF343B
:10208000204670BDD800002070B5FEF781FD10B16C
:102090006FF0050424E001F07DFF0546012D1DD100
:1020A00010480068012819D100BF801F00210028B6
:1020B00004DB4A07130E0C4A135406E04A07160EB7
:1020C0000A4A00F00F031B1FD65400BF00BF0220B6
:1020D0000449086001F070F9002401E04FF0FF347A
:1020E000204670BDD800002000E400E018ED00E0BC
:1020F000F8B504460D46264600270EB93F1F2AE0D4
:10210000FEF746FDD8B115B16FF0030723E00020BC
:1021100000906A460021304601F0CCFD012802D033
:102120006FF0020717E000BF009838B14FF0805001
:102130000A490860BFF34F8FBFF36F8F0BE029464A
:10214000304601F0FDFD012805D015B16FF0010703
:1021500001E06FF002073846F8BD000004ED00E032
:102160002DE9F84305460F4614464FF00008FEF7E8
:102170000FFD002849D1002D47D0AF4245D8461E5B
:1021800064B1A06820B1E068502801D3012606E0C0
:10219000A06820B9E06810B9002600E00026701C95
:1021A00020B3012D23D1012E09D10320009000225C
:1021B00011460120A36801F072FB804605E003226E
:1021C0000021012001F042FB8046B8F1000F1CD035
:1021D00067B100231A461946404601F0CFFB01289B
:1021E00013D0404600F082FF4FF000080DE0012EB2
:1021F00006D139462846A26801F0EDFA804604E08F
:102200003946284601F0D6FA80464046BDE8F883B4
:10221000F8B50446254600260DB9361F23E0FEF723
:10222000B7FCB0B1002000906946284601F07EFC62
:10223000012802D06FF0020615E000BF009838B107
:102240004FF0805009490860BFF34F8FBFF36F8F85
:1022500009E000231A461946284601F08FFB0128A1
:1022600001D06FF002063046F8BD000004ED00E03A
:102270002DE9FF4780468946144600200390FEF76B
:1022800087FC00284ED1B8F1000F4BD080261825CE
:102290008246471E44B3206808B1D4F800A0A06964
:1022A00000B1A5692DB1382D03D8207900F00100C7
:1022B00018B1002004B0BDE8F087606908B160691A
:1022C0008608A06840B1E0685C2805D3206918B191
:1022D000606908B1012708E0A06830B9E06820B95A
:1022E000206910B9002700E00027012F0CD12169D7
:1022F000A0684B463246CDE9005102905146404617
:1023000001F01CFE03900DE067B903A8B2B24B4682
:102310005146CDE90050404601F0DAFD012801D0D8
:10232000002003900398C5E72DE9FF5F06468A4623
:1023300093461C4600200290FEF72AFC002861D13B
:10234000002E5FD0002581463CB1A06828B1E0682E
:10235000342802D3A06800F12C0535B9082000F01C
:102360004BFD05460DB14FF00109002D4AD02E60FE
:10237000C5F804B0BAF1000F01D1002700E0012731
:102380004FF0FF380020039094B1206808B1206816
:102390000390A06828B1E0682C2802D34FF0010810
:1023A00008E0A06830B9E06820B94FF0000801E00B
:1023B0004FF0000845EA0905B8F1010F0BD11349A8
:1023C000A0682B463A46CDE900100121039802F09F
:1023D000C0F802900BE0B8F1000F08D10B482B4673
:1023E0003A4601210090039802F098F80290029872
:1023F00040B93DB1B9F1010F04D125F001052846DE
:1024000000F03AFE029804B0BDE8F09F7919000090
:10241000F8B506460D463746FEF7BAFB10B16FF029
:10242000050412E007B115B96FF003040DE00020B8
:1024300003462A4604210090384602F0D3F80128CA
:1024400001D1002401E06FF002042046F8BD10B570
:1024500001F0A0FD022801D1012010BD0020FCE701
:102460002DE9F04105460E462048076820480068DF
:10247000001D00F063FD681CD8B9D6B11D4948683D
:102480001B49096888601A4982680968CA60184946
:102490000968091D8268516015490968091D816034
:1024A000144A134909684A6111460968491C1160B8
:1024B0001AE07C190E4800684460BC4207D20C4800
:1024C0000168091D0C48006800F099FD0CE00848FF
:1024D0000168091D0948006800F091FD084800687E
:1024E000844201D206480460BDE8F0811401002056
:1024F00000010020902D0020080100200401002090
:102500003001002010B5044600F094FD304800680A
:10251000401C2F4908602F48006840B92D480460CE
:102520000846006801280DD100F008FA0AE02A48A0
:10253000006838B927480068C06AE16A884201D853
:102540002448046025480068401C24490860084667
:10255000006860642249E06A0968884202D920491B
:10256000E06A0860E16A01EB81011E4A02EB810129
:102570004868A0608268E260211D826851608160C5
:10258000E16A01EB8101174A02EB81026261E16AB3
:1025900001EB8101134A52F82110491CE26A02EB57
:1025A0008202104B43F8221000F056FD0A480068E2
:1025B00068B108480068C06AE16A884207D24FF0F3
:1025C000805009490860BFF34F8FBFF36F8F10BD74
:1025D00010010020000100201C0100202C0100201F
:1025E00018010020E028002004ED00E008B500F00C
:1025F00021FD0E480068A8B90D4800F0F0FC0D4818
:1026000000F0EDFC0A480C4908600A480B490860D4
:1026100000200B4B0B4A10210090052001F03FF9E0
:102620000249086000F018FD08BD000048010020C4
:10263000A42D0020B82D00204001002044010020DE
:10264000CC2D00201C2E002010B516E000F0F2FC6E
:102650000C48C068C468201D00F070FC0A4800687F
:10266000401E0949086009480068401E0749086083
:1026700000F0F2FC204600F05FF8044800680028F3
:10268000E4D110BD7C2D0020100100200C010020A1
:1026900070B504460D46206C70B1216CE0680144B1
:1026A000E160D4E90210884201D32168E160284644
:1026B000226CE168FDF728FF70BD2DE9F04104466A
:1026C0000F4615464FF00008A66B206C48B92068ED
:1026D00000282CD1A06801F03BFD80460020A060BE
:1026E00025E07DB93946226C6068FDF70DFF216C4D
:1026F000606808446060D4E90101884217D320680B
:10270000606014E03946226CE068FDF7FDFE216C44
:10271000E068411AE1602168E068884203D2216CD8
:10272000A068411AE160022D01D106B1761E701C2D
:10273000A0634046BDE8F08110B5044694F8590006
:1027400030B9206B00F098FC204600F095FC06E0C4
:1027500094F85900012802D1204600F08DFC10BDEC
:1027600001464A6A22B10A6B1268C2F1380000E0E1
:10277000002070470146084A126812680AB901220F
:1027800000E000220A600A6822B9034A1268D2688F
:10279000106800E0002070474001002030B54FF481
:1027A0000053154800F007042CB1C01D20F00700AD
:1027B000114C041B1B1B0246104C226000240F4DC1
:1027C0006C60D018083820F007000D4C2060002401
:1027D0000B4D2D686C600A4D2D682C601146441A13
:1027E0004C60074C24680C60064D4C682C60064D0C
:1027F0004C682C6030BD0000E0080020E0000020A4
:10280000E8000020F0000020EC00002000BFFFF7EF
:102810001BFF064800680128F9D94FF08050044991
:102820000860BFF34F8FBFF36F8FF0E7E028002001
:1028300004ED00E010B5044654B10020A060206013
:102840000021E16000231A461946204601F096F85F
:1028500010BD2DE9F04106460D4617469846069CE8
:102860000DB9246000E02760E6632564012120465D
:1028700001F034F884F84C80BDE8F0812DE9F05F78
:1028800081460E4690469A460A9F0C9C4FEA880164
:10289000A522206BFDF77DFEA8F10100216B01EB65
:1028A000800B2BF0070B7EB1002507E0715D04F172
:1028B00034004155705D00B902E06D1C102DF5D358
:1028C00000BF002143200155382F00D33727E7628E
:1028D000E764201D00F090FB04F1180000F08CFB71
:1028E0002461C7F13800A0616462524649465846E7
:1028F00000F00EFB20600B9808B10B980460BDE857
:10290000F09F2DE9F04705460E4617469846DDE94B
:102910000894FFF76BFE2560A661C4F81C80C4F81C
:102920002090201D00F068FB2FB194F8280040F0A3
:10293000040084F82800BDE8F087000010B50024EA
:1029400007E004EB84010F4A02EB810000F047FB33
:10295000641C382CF5D30C4800F041FB0B4800F008
:102960003EFB0B4800F03BFB0A4800F038FB0A48EE
:1029700000F035FB0448094908600448084908602C
:1029800010BD0000E0280020402D0020542D002024
:10299000682D00207C2D0020902D002004010020B7
:1029A0000801002010B50146164800E000680368E1
:1029B0008B42FBD30246436813448B4204D14368E5
:1029C0004C682344436001460A464B68134404683C
:1029D000A34211D10C4C03682468A34208D04B6871
:1029E0000468646823444B6003681B680B6005E05F
:1029F000054B1B680B6001E003680B60884200D048
:102A0000016010BDE0000020E80000202DE9F04149
:102A100004460D4616461F464FF0000865602461C7
:102A2000B5420CD8F01BA169884202D34FF00108CF
:102A300011E0211D0948006800F0E1FA0BE0BE42F8
:102A400004D2BD4202D34FF0010804E0211D044826
:102A5000006800F0D4FA4046BDE8F081440100204F
:102A60004001002070B5054600F0E4FAA86B08B9F3
:102A7000012400E0002400F0EFFA204670BD70B59C
:102A8000054600F0D7FAA86BE96B884201D1012412
:102A900000E0002400F0E0FA204670BD70B5054665
:102AA0000E460E480068C068C468201D00F046FA53
:102AB00094F8280000F0040028B132462946204648
:102AC00000F0D0F805E094F8280000F0FE0084F84B
:102AD00028002046216A884770BD00004001002080
:102AE00070B586B077E00298002805DA03AED6E923
:102AF0000020B168904700BF029800286BDB049C5F
:102B0000606908B9012000E0002010B9201D00F024
:102B100015FA01A800F0D2F8054602980A2858D202
:102B2000DFE800F05705072E364706082F3700BFAD
:102B300000BF00BF94F8280040F0010084F828008E
:102B40000398A269811803462A462046FFF75EFFD4
:102B5000A8B194F8280000F0040038B10398A269E5
:102B600081182A46204600F07DF805E094F82800F8
:102B700000F0FE0084F828002046216A884729E0FA
:102B800000BF94F8280000F0FE0084F8280021E03F
:102B900000BF94F8280040F0010084F82800039852
:102BA000A061A06941192B462A462046FFF72EFF57
:102BB00010E094F8280000F0020018B9204600F058
:102BC0005BFA05E094F8280000F0FE0084F8280085
:102BD00000E000BF00BF002202A90448006800F026
:102BE000E7FF00287FF47FAF06B070BD48010020EA
:102BF000F8B505460C4600F02DFC684600F05EF87E
:102C00000646009820BB44B9B54206D801F0DAFB6D
:102C100031462846FFF742FF1CE03CB10E480068F1
:102C2000006808B9012000E000200446A91B2246E4
:102C30000A48006800F064FA01F0C4FB50B94FF094
:102C4000805007490860BFF34F8FBFF36F8F01E0DB
:102C500001F0B8FBF8BD000044010020480100204D
:102C600004ED00E070B504460D46164604E0A06988
:102C700005442046216A8847A06941192B463246FF
:102C80002046FFF7C3FE0028F1D170BD0948006857
:102C9000006808B9012000E0002020B14FF0FF30AB
:102CA0000549086005E003480068C06800680249FB
:102CB00008607047040100203001002070B5044610
:102CC00001F078F9054607480068854204D200F013
:102CD0000BF80120206001E0002020600148056021
:102CE000284670BD5001002070B508E00D4800680E
:102CF000C06804684FF0FF312046FFF7CFFE094857
:102D00000068006808B9012000E000200028EDD02C
:102D100004480568044800680249086002480560E4
:102D200070BD0000400100204401002000BF1020C1
:102D300080F31188BFF34F8FBFF36F8F00BF00BFC9
:102D4000FEE710B50346002022B903EA010434B1BE
:102D5000012004E003EA01048C4200D1012010BDEF
:102D600008B500BF6846FFF705FD044620460099F8
:102D7000FFF73EFFFFF7B4FEF4E770B5044600F03E
:102D800059F994F9455010E0606A08B9012000E053
:102D9000002038B904F1240001F090FA18B100F0D5
:102DA000E1F900E003E0681E45B2002DECDC00BF55
:102DB000FF2084F8450000F04FF900F03BF994F94A
:102DC000445010E0206908B9012000E0002048B913
:102DD00004F1100001F072FA08B100F0C3F9681EA6
:102DE00045B200E001E0002DECDC00BFFF2084F8DC
:102DF000440000F031F970BD2DE9F04705464FF071
:102E0000000900F027FB3048006808B9FFF7C6FC4E
:102E100075B105F00700C0F11008C8F1FF30A842F5
:102E200001D2012000E0002008B9454400E000255F
:102E3000012000EBE570002841D0002D3FD0234851
:102E4000006885423BD8224E3046046801E02646A1
:102E500024686068A84202D220680028F7D11A4886
:102E6000006884422BD0306800F108092068306087
:102E70006068401B102807D967196068401B78609C
:102E800065603846FFF78EFD104960680968081ACA
:102E90000E490860084600680E490968884203D256
:102EA0000A4800680B490860606840F000406060B4
:102EB0000020206008480068401C0749086001F0B5
:102EC00081FA4846BDE8F087E8000020EC000020C9
:102ED000E0000020F0000020F40000200648006818
:102EE00030B10549096801F15000096D491C0160C4
:102EF00001480068704700000001002070B50446DA
:102F0000264600F097F8F56900F0A6F8284670BD4F
:102F1000001F4FF080730360001F21F00103036066
:102F2000001F054B036014380260001F6FF002039E
:102F300003602038704700002D2D000001460A690B
:102F4000D1E901309860D1E90103586050688842A6
:102F500001D188685060002008611068401E106030
:102F60001068704701480068704700001001002099
:102F700005490968886904490968C96AC1F13801C5
:102F8000014A12689161704700010020034B036001
:102F9000034B0B608023136070470000E80400209F
:102FA00044050020034B0360034B0B605023136068
:102FB0007047000044070020A0070020704770B54C
:102FC00004460D462946204600F0A4FA70BD70B5AF
:102FD00004460D462946204600F0ECFA70BD00F18B
:102FE000080141604FF0FF31816000F10801C160CC
:102FF000016100210160704700210161704710B537
:1030000002460B685C1C0CB9106907E002F108006D
:1030100000E04068446824689C42FAD944684C60E7
:103020004C68A160886041600A611468641C146087
:1030300010BD000000BF102080F31188BFF34F8F38
:10304000BFF36F8F00BF03480068401C0149086050
:1030500070470000FC00002006480068401E05493B
:1030600008600846006820B9002080F3118800BF7E
:1030700000BF7047FC00002070B506463546E6B13B
:10308000083D2C466068C00FB8B12068A8B96068D8
:1030900020F00040606000F0DDF9084960680968D0
:1030A0000844064908602046FFF77CFC0448006895
:1030B000401C0349086001F085F970BDEC00002058
:1030C000F800002000204FF0E021086188610648E8
:1030D00000684FF47A71B0FBF1F0401E4FF0E02130
:1030E0004861072008617047DC00002070B5044685
:1030F000254695F8460010B92846FFF7BDFF70BD7C
:103100002DE9F04105460E4617462C46FFF792FF83
:1031100094F94400401C10B9002084F8440094F94C
:103120004500401C10B9002084F84500FFF794FFCB
:10313000A06B28B93A46314604F1240000F028F883
:103140002046FFF71AFEBDE8F08100000349096838
:1031500001600349096841607047000028010020B0
:10316000140100200120014908607047240100205B
:1031700070B505460C460548016818312846FFF72A
:103180003EFF01212046FFF76BF970BD00010020D2
:1031900070B504460E46154660680F490968C86157
:1031A0000D49826809680A620B490968183182680A
:1031B00051600949096818318160074909688C62C2
:1031C0002168491C21600DB14FF0FF362946304679
:1031D000FFF746F970BD00000001002070B50446FD
:1031E0000D46164645F000400F4909688861606841
:1031F0000D490968C8610C49826809680A620A4970
:10320000096818318268516007490968183181607E
:10321000054909688C622168491C216001213046FA
:10322000FFF71EF970BD0000000100202DE9F047F6
:1032300006460F4634464FF00109002E4FD0E06C91
:10324000B84201D23D4600E0E56CE06AA84246D0B3
:10325000206D012843D1D4F82C80E562A06900F0EC
:10326000004010B9C5F13800A06108EB88011D4A83
:1032700002EB81016069884201D1012000E0002059
:1032800068B3201DFFF75AFE1749E06A09688842B3
:1032900002D91549E06A0860E16A01EB8101114A2F
:1032A00002EB81014868A0608268E260211D8268AB
:1032B00051608160E16A01EB81010A4A02EB8102FF
:1032C0006261E16A01EB8101064A52F82110491C52
:1032D000E26A02EB8202034B43F8221000BFBDE812
:1032E000F0870000E02800201801002070B5024699
:1032F0000B4643F000411160D0681169D2E90154D6
:10330000AC60D2E901456C604C68944201D194688C
:103310004C60002414610C68641E0C604169D0E9A3
:103320000245A560D0E902546560041D4D68A542C0
:1033300001D1C4684C60002545610C68641E0C60B6
:10334000194CC16A2468A14202D9174CC16A216094
:10335000C46A04EB8404154D05EB84046168816044
:103360008D68C560041D8D686C608C60C46A04EB58
:1033700084040E4D05EB84054561C46A04EB8404A6
:103380000A4D55F82440641CC56A05EB8505074EB7
:1033900046F82540064CC16A2468E46AA14202D975
:1033A0000121044C216070BD18010020E02800209C
:1033B000000100202401002010B586B000200590F7
:1033C000049003AA04A905A8FFF7E0FD0022DDE9A7
:1033D00004101346CDE90021029016A11748039A64
:1033E00000F0ACFD164908600846006808B10124E9
:1033F00000E00024012C02D101F0C4F80446012CA5
:1034000014D100BF102080F31188BFF34F8FBFF39A
:103410006F8F00BF4FF0FF300A49086001200A4952
:10342000086000200949086000F086F90848006833
:1034300006B010BD49444C45000000000D280000B6
:1034400034010020300100201C0100201401002064
:103450003801002002480068401C0149086070479C
:103460003C01002070B52648006818B101202549AC
:10347000086043E000202349086023480068046B8B
:103480004FF0A5352068B0F1A53F0BD16068B0F1D1
:10349000A53F07D1A068B0F1A53F03D1E068B0F126
:1034A000A53F05D01848016834310068FFF786FD54
:1034B0001648016800E0491E01EB8100144A52F8E9
:1034C000200008B9012000E000200028F3D101EB22
:1034D00081020F4B03EB820042685268426000F1A8
:1034E00008024368934202D14268526842604268CF
:1034F000D268054B1A600548016000BF70BD00002E
:103500003C010020240100200001002018010020BF
:10351000E02800202DE9F04104460E462546FFF73D
:1035200089FD2F682868B0432860FFF795FD38466D
:10353000BDE8F08170B504460D4600232A462146B9
:10354000024801F085F80646304670BDBF2F0000E6
:1035500010B52020FFF750FC044634B10020206055
:10356000201DFFF73CFD00202077204610BD70B5E0
:1035700005462C4634B100202060201DFFF72FFDAA
:1035800001202077204670BD70B501460B4600BF74
:103590001025EFF3118085F31188BFF34F8FBFF330
:1035A0006F8F00BF02461C68104680F3118800BF71
:1035B000204670BD2DE9FE4F064689460020019049
:1035C0003446009004F1040B0BF108000290FFF761
:1035D00041FFDBF80C70206840EA0900206026E01B
:1035E000D7F804A03D680020009005F07F4825F042
:1035F0007F4508F0806028B92068284040B101204C
:10360000009005E020682840A84201D101200090E8
:10361000009858B108F0807010B1019828430190CB
:10362000206840F000713846FFF760FE5746029868
:103630008742D5D1206801998843206000F0C2FEFE
:103640002068BDE8FE8F00002DE9F04104460D46DC
:10365000164633462A462146034800F0F9FF07463E
:103660003846BDE8F0810000CF2F00002DE9FF5F54
:1036700080460E4617469946DDF838A044464FF07E
:10368000000B00200190FFF7E5FE206800904A46FD
:1036900031460098FFF755FB0390039830B1009D29
:1036A000DA46CFB12068B043206015E0BAF1000FD0
:1036B00003D1009D012001900EE00FB14BF0807B03
:1036C000B9F1000F01D04BF0806B46EA0B01524676
:1036D000201DFFF783FD002500F074FE0290BAF173
:1036E000000F22D0029838B94FF08050114908607D
:1036F000BFF34F8FBFF36F8FFFF73AFC054605F01E
:10370000007080B9FFF796FC25684A463146284686
:10371000FFF717FB18B117B12068B04320600120F4
:103720000190FFF799FC25F07F45284604B0BDE8DD
:10373000F09F000004ED00E010B50E48006840F472
:103740007F000C4908600846006840F07F40086030
:10375000FFF7B8FC002008490860FCF70FFE074897
:10376000006840F0404005490860FCF7F3FD002088
:1037700010BD000020ED00E0FC00002034EF00E070
:1037800010B500BF102080F31188BFF34F8FBFF337
:103790006F8F00BF00F014FC18B14FF08050044947
:1037A000086000BF002080F3118800BF10BD00003A
:1037B00004ED00E070B504460E4600254CB1A6426B
:1037C00007D802220021204600F040F8054605B146
:1037D000AE63284670BDF8B504460D461746002670
:1037E00064B1A5420AD802203B460022114600904F
:1037F000204600F054F8064606B1B5633046F8BDE1
:103800002DE9F0410446012600272246002101202F
:1038100000F01CF805462846FFF70CF82846BDE8DE
:10382000F0812DE9F84304460D4601274FF00008CA
:103830002B46002211460120009400F030F8064685
:103840003046FEF7F7FF3046BDE8F8832DE9F84330
:1038500005460E4617460024F5B1601EB0FBF5F094
:10386000B04219D305FB06F010F1510F14D805FB37
:1038700006F909F15000FFF7BFFA044664B1A0460B
:1038800008F15008002084F846003B464246314685
:1038900028460094FEF7DDFF2046BDE8F8832DE9B9
:1038A000F84380460D4616461C46DDF8209000275A
:1038B000B8F1000F0FD074B106B165B106B955B9B2
:1038C0002746012087F846004B46324629464046A7
:1038D0000097FEF7BEFF3846BDE8F8832DE9F041BA
:1038E00005460E4601272C46002C41D0E06B0028EF
:1038F0003ED0B91EE06BB1FBF0F0216C884237D3AB
:10390000FFF798FBD4E90F12206801FB0200A060CA
:103910000020A06320686060E06B401E226C21687C
:1039200000FB0211E160FF2084F8440084F84500A8
:103930009EB9206908B9012000E00020A8B904F16F
:10394000100000F0BBFC80B14FF080500A490860C5
:10395000BFF34F8FBFF36F8F07E004F11000FFF745
:103960003EFB04F12400FFF73AFBFFF775FB00E094
:1039700000273846BDE8F08104ED00E02DE9FF4363
:1039800083B0074688461D464FF000093C4600BFFD
:10399000FFF750FBA06BE16B884201D3022D28D1C9
:1039A0002A4641462046FEF788FE0646606A08B968
:1039B000012000E0002068B904F1240000F07EFC42
:1039C00088B14FF0805032490860BFF34F8FBFF38A
:1039D0006F8F08E03EB14FF080502D490860BFF373
:1039E0004F8FBFF36F8FFFF737FB012007B0BDE8A4
:1039F000F083059818B9FFF72FFB0020F6E7B9F11F
:103A0000000F04D101A8FFF7A1FB4FF00109FFF758
:103A100023FBFFF71FFDFFF70DFB94F94400401C4B
:103A200010B9002084F8440094F94500401C10B9F6
:103A3000002084F84500FFF70FFB05A901A800F05E
:103A400017FAF0B92046FFF71AF8A0B104F11000F8
:103A50000599FFF78DFB2046FFF78FF900F0B2FCC8
:103A6000002895D14FF0805009490860BFF34F8F6F
:103A7000BFF36F8F8CE72046FFF77FF900F0A2FCC1
:103A800086E72046FFF779F900F09CFC0020ADE7BF
:103A900004ED00E02DE9FF4F81B0054616461F46B4
:103AA0002C4600BF1021EFF3118081F31188BFF382
:103AB0004F8FBFF36F8F00BF8146A06BE16B8842D1
:103AC00001D3022F28D194F945A0A06B00903A466B
:103AD00020460299FEF7F1FD0AF1010070B9606A13
:103AE00008B9012000E0002038B904F1240000F0FA
:103AF000E5FB10B10EB1012030600AE0FFF732FAA9
:103B00008346DA4504D20AF1010040B284F8450048
:103B100000BF4FF0010801E04FF0000800BF89F33B
:103B2000118800BF404605B0BDE8F08F2DE9F05F79
:103B300005460E462C4600BF1021EFF3118081F39D
:103B40001188BFF34F8FBFF36F8F00BF8046D4F84B
:103B500038A0E06B504523D994F945900AF1010053
:103B6000A06309F1010070B9606A08B9012000E0A2
:103B7000002098B904F1240000F0A0FB70B16EB1F0
:103B8000012030600AE0FFF7EDF98346D94504D201
:103B900009F1010040B284F8450000BF012700E0B0
:103BA000002700BF88F3118800BF3846BDE8F09FAA
:103BB0002DE9F74183B005460F464FF000082C462B
:103BC00000BFFFF737FAA66BF6B139462046FEF77D
:103BD0005FFD701EA063206908B9012000E000208D
:103BE00060B904F1100000F069FB38B14FF080506B
:103BF0002F490860BFF34F8FBFF36F8FFFF72CFA89
:103C0000012006B0BDE8F081059818B9FFF724FA45
:103C10000020F6E7B8F1000F04D101A8FFF796FAEB
:103C20004FF00108FFF718FAFFF714FCFFF702FA4C
:103C300094F94400401C10B9002084F8440094F921
:103C40004500401C10B9002084F84500FFF704FA35
:103C500005A901A800F00CF9F0B92046FEF702FF13
:103C6000A0B104F124000599FFF782FA2046FFF77E
:103C700084F800F0A7FB0028A3D14FF080500C4936
:103C80000860BFF34F8FBFF36F8F9AE72046FFF7AF
:103C900074F800F097FB94E72046FFF76EF800F009
:103CA00091FB2046FEF7DEFE00288AD00020A8E720
:103CB00004ED00E02DE9F74F054616462C4600BFFF
:103CC0001021EFF3118081F31188BFF34F8FBFF301
:103CD0006F8F00BF8046D4F838A0BAF1000F27D00C
:103CE00094F9449020460199FEF7D2FCAAF1010014
:103CF000A06309F1010070B9206908B9012000E052
:103D0000002098B904F1100000F0D8FA70B16EB13B
:103D1000012030600AE0FFF725F98346D94504D237
:103D200009F1010040B284F8440000BF012700E01F
:103D3000002700BF88F3118800BF3846BDE8FE8F1A
:103D40002DE9F34182B0054600272C46B84600BF56
:103D5000FFF770F9A66BFEB1701EA063206810B962
:103D6000FFF7BCF8A060206908B9012000E000203E
:103D700060B904F1100000F0A1FA38B14FF08050A2
:103D80003A490860BFF34F8FBFF36F8FFFF764F9B5
:103D9000012004B0BDE8F081039818B9FFF75CF981
:103DA0000020F6E71FB96846FFF7D0F90127FFF7B3
:103DB00053F9FFF74FFBFFF73DF994F94400401C1E
:103DC00010B9002084F8440094F94500401C10B953
:103DD000002084F84500FFF73FF903A9684600F08A
:103DE00047F840BB2046FEF73DFEF0B1206838B9E9
:103DF000FFF720F9A06800F0F5F98046FFF72CF9ED
:103E000004F124000399FFF7B3F92046FEF7B5FF4C
:103E100000F0D8FA00289BD14FF080501349086079
:103E2000BFF34F8FBFF36F8F92E72046FEF7A5FFDA
:103E300000F0C8FA8CE72046FEF79FFF00F0C2FAB8
:103E40002046FEF70FFE002882D0B8F1000F0BD0FD
:103E5000FFF7F0F82046FEF783FC06463146A068DF
:103E6000FFF7E4F9FFF7F8F8002092E704ED00E02F
:103E700070B506460C46FFF7DDF813480268706817
:103E8000131A2068401C08B9002519E00F49306852
:103E90000968884206D07068904203D80125002046
:103EA00020600DE02068984207D92068C01A206081
:103EB0003046FFF74BF9002502E000202060012585
:103EC000FFF7CAF8284670BD140100202801002021
:103ED0002DE9FF4F85B0804689461746DDE912ABD4
:103EE000B800FEF789FF064676B15C20FEF784FF36
:103EF00004462CB15C212046FCF775FB266304E0E8
:103F00003046FFF7B9F800E000248CB1002084F8B7
:103F10005900CDE900ABCDE902403A46494640465A
:103F2000089BFEF7ABFC2046FEF7ECFA012501E00A
:103F30004FF0FF35284609B0BDE8F08F2DE9F04F6E
:103F400085B00746884691469A46DDE90EB6109C34
:103F5000CCB1C6B125465C212846FCF744FB2E6354
:103F6000022085F85900002004A953464A46CDE9AD
:103F700000B1CDE9025041463846FEF77FFC2846A5
:103F8000FEF7C0FA01E000200490049805B0BDE8F7
:103F9000F08F00000549096809B9012005E00449CE
:103FA000096809B9022000E0002070471C010020C8
:103FB0003C010020014908687047000014010020FE
:103FC0002DE9F04100275748006800287DD1564868
:103FD0000068451C544805608DB95448D0F80080ED
:103FE00053480068514908605148C0F80080514862
:103FF0000068401C4F490860FEF748FE00BF4E486D
:104000000068854275D300BF48480068006808B959
:10401000012000E0002020B14FF0FF304649086049
:1040200066E042480068C068C4686668B54202D26B
:10403000414806605CE06069D4E902128A60D4E914
:1040400002214A60211D42688A4201D1E168416033
:10405000002262610168491E0160A06A98B1A06AED
:10406000D4E907128A60D4E907214A6004F11801F3
:1040700042688A4201D1216A41600022A26201683D
:10408000491E016000BF2D49E06A0968884202D9D3
:104090002A49E06A0860E16A01EB8101284A02EBE3
:1040A00081014868A0608268E260211D82685160D9
:1040B0008160E16A01EB8101214A02EB81026261C8
:1040C000E16A01EB81011E4A00E022E052F8211072
:1040D000491CE26A02EB8202194B43F8221019498B
:1040E000E06A0968C96A88428ED901278CE700E036
:1040F00000BF14480068C06A00EB8000104951F806
:104100002000012800D901270F48006800B10127CD
:1041100004E00E480068401C0C4908603846BDE8C1
:10412000F08100003C010020140100200401002067
:104130000801002028010020300100201801002083
:10414000E0280020000100202401002020010020A0
:1041500070B505462C460026002D3CD0206D401E33
:104160002065E16CE06A884235D0206D98BB201D47
:10417000FEF7E4FEE06CE062E06AC0F13800A061A6
:104180001649E06A0968884202D91449E06A086061
:10419000E16A01EB8101124A02EB81014868A060EB
:1041A0008268E260211D826851608160E16A01EBF2
:1041B00081010B4A02EB81026261E16A01EB81013C
:1041C000074A52F82110491CE26A02EB8202044BB2
:1041D00043F822100126304670BD0000180100206F
:1041E000E028002070B505462C460026002D5CD046
:1041F0002F49E06A0968C96A88424FD2A06900F075
:10420000004028B92A480068C06AC0F13800A0619F
:10421000E16A01EB8101274A02EB81016069884272
:1042200001D1012000E0002088B3201DFEF786FEAA
:104230001F480068C06AE0621F49E06A0968884256
:1042400002D91D49E06A0860E16A01EB8101194A5F
:1042500002EB81014868A0608268E260211D8268EB
:1042600051608160E16A01EB8101124A02EB810237
:104270006261E16A01EB81010E4A52F82110491C8A
:10428000E26A02EB82020B4B43F8221004E0FFE7E4
:1042900007480068C06AE062012606E00449E06C55
:1042A0000968C96A884200D20126304670BD000004
:1042B00000010020E02800201801002070B503460E
:1042C000D868C168886AD1E90745A560D1E9075473
:1042D000656001F118044568A54201D10C6A44608B
:1042E00000258D620468641E046030480068002860
:1042F0003CD14869D1E90245A560D1E90254656025
:104300000C1D4568A54201D1CC68446000254D6173
:104310000468641E0460264CC86A2468A04202D95E
:10432000234CC86A2060CC6A04EB8404214D05EB61
:104330008404606888608568CD600C1D85686C6049
:104340008460CC6A04EB84041A4D05EB84054D614E
:10435000CC6A04EB8404174D55F82440641CCD6AE4
:1043600005EB8505134E46F8254010E0124C6068B9
:10437000C86185680D6201F1180485686C6084600D
:104380000D4D8D622C462468641C2C6000BF0B4CC4
:10439000C86A2468E46AA04204D901220120084CBA
:1043A000206000E00022104670BD00003C010020AB
:1043B00018010020E0280020682D002000010020C6
:1043C0002401002070B500240026FEF733FE4A4881
:1043D0000068401E484908600846006800287DD1F2
:1043E00046480068002879D05AE04548C068C4684B
:1043F000A06AD4E907128A60D4E907214A6004F16F
:10440000180142688A4201D1216A41600022A262F9
:104410000168491E01606069D4E902128A60D4E92A
:1044200002214A60211D42688A4201D1E16841604F
:10443000002262610168491E01603249E06A096830
:10444000884202D92F49E06A0860E16A01EB8101E4
:104450002D4A02EB81014868A0608268E260211D5C
:10446000826851608160E16A01EB8101264A02EBBA
:1044700081026261E16A01EB8101234A52F8211055
:10448000491CE26A02EB82021F4B43F822101F49CB
:10449000E06A0968C96A884202D301201C490860A1
:1044A0001748006808B9012000E0002000289CD0CF
:1044B0000CB1FEF7EBFB1748056865B100BFFFF7CD
:1044C0007FFD10B10120124908606D1E002DF6D14C
:1044D0000020104908600E48006800E008E038B18C
:1044E000012630070C490860BFF34F8FBFF36F8F71
:1044F000FEF7B2FD304670BD3C01002010010020E7
:10450000682D002018010020E02800200001002074
:10451000240100202001002004ED00E02DE9FC47EB
:1045200005460E4617469846DDF828902C20FEF7E3
:1045300063FC044654B1002084F8280043463A4600
:1045400031462846CDE90094FEF7DBF92046BDE868
:10455000FC872DE9FC4706460F4690469946DDE963
:104560000AA52C4654B1022084F828004B46424646
:1045700039463046CDE900A4FEF7C3F92046BDE830
:10458000FC87000010B586B00024FEF72FF8104815
:104590000068D0B100200590049003AA04A905A8E2
:1045A000FEF700FD2822DDE904100023CDE90021FB
:1045B000029008A10948039AFFF7C0FC0849086067
:1045C0000846006800B1012400BF204606B010BDB7
:1045D00048010020546D722053766300612D000065
:1045E0004C0100202DE9FF4705460C4616461F46A4
:1045F000DDF830804FF000091448006810B30094D3
:1046000001960295062C15DAFFF7C4FC022808D1A2
:104610000023424669460D480068FFF7AFF981461E
:1046200010E000231A46694608480068FFF7A6F91B
:10463000814607E000233A46694604480068FFF7D0
:1046400029FA8146484604B0BDE8F08748010020B9
:104650002DE9FF4104460D4616461F466FF0010046
:10466000009001940295039600233A466946044857
:104670000068FFF70FFA8046404604B0BDE8F081BD
:10468000480100204FF04070E1EE100A7047000032
:10469000384A000000000000000000000000000098
:1046A00000000000000100001800000000000000F1
:1046B00000000000444A000000000000000000006C
:1046C00000000000000000000001000018000000D1
:1046D0000000000000000000504A00000000000040
:1046E00000000000000000000000000000010000C9
:1046F0001800000000000000000000005C4A0000FC
:1047000000000000000000000000000000000000A9
:104710000001000018000000000000000000000080
:10472000704A0000000000000000000000000000CF
:104730000000000000010000180000000000000060
:1047400000000000804A000000000000000000009F
:104750000000000000000000000100001800000040
:104760000000000000000000204B000000000000DE
:1047700000000000000000002C4B000000000000C2
:104780000000000000000000384B000000000000A6
:104790000000000000000000444B0000000000008A
:1047A0000000000000000000544B0000000000006A
:1047B0000000000000000000644B0000000000004A
:1047C00000000000000000007C4B000000C0004022
:1047D00000D0004000E00040001800F0011800F098
:1047E000021800F000688909001C4E0E40420F00BC
:1047F00000201C0080841E0000802500999E360049
:104800000040380000093D0000803E0000004B00E1
:10481000404B4C0000204E00808D5B0000C05D00CE
:104820000080700000127A0000007D0080969800E1
:10483000001BB7000080BB00C0E8CE00647ADA003D
:104840000024F4000000FA0080A81201002D3101BC
:1048500000366E0140787D0140000000000000003D
:10486000000100003E000800000000000001000000
:10487000A00000000200000000010000345401000C
:1048800000000000000100002B7006000000000086
:1048900000010000280000000000000000010000EE
:1048A00027000100000000000001000020000000BF
:1048B00000000000000100005000000002000000A5
:1048C000000100001AAC0000000000000001000020
:1048D0001794090000000000000100001698050070
:1048E00000000000000100001400000000000000B3
:1048F000000100001380080000000000000100001B
:10490000A0000000080000000001000010000000EE
:10491000000000000001000028000000020000006C
:104920000001000040000000040000000001000041
:104930006000000000000000000100005D000C00AD
:104940000000000000010000500000000000000016
:10495000000100004E000200000000000001000005
:1049600041AC010000000000000100003C0000001C
:1049700000000000000100003A8009000000000073
:1049800000010000300000000000000000010000F5
:1049900028000000000000000001000027000100C6
:1049A000000000000001000023600600000000007D
:1049B000000100002160080000000000000100006C
:1049C0001E00000000000000000100001DC00400E7
:1049D0000000000000010000500000000200000084
:1049E00000010000180000000000000000010000AD
:1049F0001400000000000000000100006000000042
:104A000004000000000100000024F4003000300029
:104A1000005A62029100910000879303D200D200F5
:104A200000B4C4041301130100E1F505540154015D
:104A3000000E2707950195014C4544315F544852BB
:104A4000454144004C4544325F544852454144007E
:104A50004C4544335F5448524541440054454D5001
:104A60005F524541445F54485245414400000000B4
:104A70004C44525F524541445F54485245414400C2
:104A800053454E534F52535F5245504F52545F540B
:104A9000485245414400000053454E534F52535F26
:104AA0004F505F53454D4150484F52450000000064
:104AB00054454D505F524541445F464C41470000CC
:104AC0004C44525F524541445F464C414700000010
:104AD0004C4544315F544F4F474C455F464C41472E
:104AE000000000004C4544325F544F4F474C455F37
:104AF000464C4147000000004C4544335F544F4F43
:104B0000474C455F464C41470000000053454E531B
:104B10004F52535F5245504F52545F464C414700ED
:104B20004C4544315F54494D455200004C45443298
:104B30005F54494D455200004C4544335F54494D44
:104B40004552000054454D505F524541445F544921
:104B50004D4552004C44525F524541445F54494DCB
:104B60004552000053454E534F52535F5245504FEC
:104B700052545F54494D45520000000030313233E9
:104B80003435363738396162636465660000000089
:104B9000B04B00000000002054010000A8020000FB
:104BA000E44B0000540100207C2F0000E4020000D0
:104BB00051073F0102030001020313D04A0313E42B
:104BC0004A0313F84A0313B04A0313C04A03130CF1
:104BD0004B031B984A051D80F0FA020539AAAAAAC0
:044BE000AA021C37D2
:04000005000003F5FF
:00000001FF
