:020000040000FA
:10000000603600202D040000350400003704000095
:10001000390400003B0400003D0400000000000023
:100020000000000000000000000000006503000068
:100030004104000000000000C10300008915000019
:1000400047040000490400004B0400004D04000078
:100050004F0400003916000053040000550400004E
:1000600057040000590400005B0400005D04000018
:100070005F040000610400006304000065040000E8
:1000800067040000690400006B0400006D040000B8
:100090006F04000071040000730400007504000088
:1000A00077040000790400007B0400007D04000058
:1000B0007F04000081040000830400008504000028
:1000C00087040000890400008B0400008D040000F8
:1000D0008F040000910400009304000095040000C8
:1000E0009704000099040000000000009B04000039
:1000F0009D0400009F040000A1040000A304000070
:10010000A5040000A7040000A9040000AB0400003F
:100110000000000000000000AD040000AF0400007B
:10012000B1040000B3040000B5040000B7040000EF
:10013000B9040000BB040000BD040000BF040000BF
:1001400000000000000000000000000000000000AF
:10015000C1040000C3040000C5040000C70400007F
:10016000000000000000000000000000000000008F
:10017000000000000000000000000000000000007F
:10018000000000000000000000000000000000006F
:10019000000000000000000000000000000000005F
:1001A000000000000000000000000000000000004F
:1001B000C9040000CB040000CD040000CF040000FF
:1001C000D1040000D3040000D5040000D7040000CF
:1001D000D9040000DB040000DD040000DF0400009F
:1001E000E1040000E3040000E5040000000000005A
:1001F00000000000E7040000E9040000EB04000038
:10020000ED040000EF04000000000000000000000A
:10021000F1040000F3040000F5040000F7040000FE
:10022000F9040000FB040000FD040000FF040000CE
:10023000010500000305000005050000070500009A
:10024000090500000B0500000D0500000F0500006A
:10025000110500001305000015050000170500003A
:10026000190500001B0500001D05000000F002F844
:1002700000F065F80AA090E8000C82448344AAF1DB
:100280000107DA4501D100F05AF8AFF2090EBAE8D9
:100290000F0013F0010F18BFFB1A43F001031847BA
:1002A00074460000944600000A444FF0000C10F819
:1002B000013B13F0070408BF10F8014B1D1108BFE4
:1002C00010F8015B641E05D010F8016B641E01F884
:1002D000016BF9D113F0080F1EBF10F8014BAD1CD4
:1002E0000C1B09D16D1E58BF01F801CBFAD505E0F2
:1002F00014F8016B01F8016B6D1EF9D59142D6D34C
:10030000704700000023002400250026103A28BF73
:1003100078C1FBD8520728BF30C148BF0B60704777
:100320001FB504F073F800F09DFA040000200021CE
:1003300004F056F8401C60601FBD10B510BD00F001
:100340006CFA114603B401F030FC03BCFFF7E8FF80
:1003500001F04AFC00F099FA03B4FFF7EEFF03BC8A
:1003600000F0DCFA2C4B19680868B0E8F04F80F315
:100370000988BFF36F8F4FF0000080F3118870473A
:100380000000000008480068006880F308884FF00B
:10039000000080F3148862B661B6BFF34F8FBFF3DD
:1003A0006F8F00DF00BF00BF08ED00E0DFF80C003A
:1003B000016841F470010160704700BF88ED00E002
:1003C000EFF30980BFF36F8F134B1A681EF0100F05
:1003D00008BF20ED108A20E9F04F106009B44FF0FB
:1003E000100080F31188BFF34F8FBFF36F8F02F0BF
:1003F000F3FD4FF0000080F3118809BC196808680C
:10040000B0E8F04F1EF0100F08BFB0EC108A80F378
:100410000988BFF36F8F704790000020EFF30580CD
:10042000704700000138FDD1704700003F48804709
:100430003F480047FEE7FEE7FEE7FEE7FEE7FEE790
:10044000FEE7FEE7FEE7FEE7FEE7FEE7FEE7FEE784
:10045000FEE7FEE7FEE7FEE7FEE7FEE7FEE7FEE774
:10046000FEE7FEE7FEE7FEE7FEE7FEE7FEE7FEE764
:10047000FEE7FEE7FEE7FEE7FEE7FEE7FEE7FEE754
:10048000FEE7FEE7FEE7FEE7FEE7FEE7FEE7FEE744
:10049000FEE7FEE7FEE7FEE7FEE7FEE7FEE7FEE734
:1004A000FEE7FEE7FEE7FEE7FEE7FEE7FEE7FEE724
:1004B000FEE7FEE7FEE7FEE7FEE7FEE7FEE7FEE714
:1004C000FEE7FEE7FEE7FEE7FEE7FEE7FEE7FEE704
:1004D000FEE7FEE7FEE7FEE7FEE7FEE7FEE7FEE7F4
:1004E000FEE7FEE7FEE7FEE7FEE7FEE7FEE7FEE7E4
:1004F000FEE7FEE7FEE7FEE7FEE7FEE7FEE7FEE7D4
:10050000FEE7FEE7FEE7FEE7FEE7FEE7FEE7FEE7C3
:10051000FEE7FEE7FEE7FEE7FEE7FEE7FEE7000098
:1005200004480549034A054B70470000A115000027
:100530006D0200006034002060360020603400202E
:1005400070B5064600F0A2F80468054630460A2257
:10055000002100F09DF82C6070BD032A40F230802D
:1005600010F0030C00F0158011F8013BBCF1020FF4
:10057000624498BF11F801CB00F8013B38BF11F875
:10058000013BA2F1040298BF00F801CB38BF00F88C
:10059000013B11F0030300F0B380083AC0F008807B
:1005A00051F8043B083A51F804CBA0E80810F5E7ED
:1005B000121D5CBF51F8043B40F8043BAFF30080D0
:1005C000D20724BF11F8013B11F801CB48BF11F845
:1005D000012B24BF00F8013B00F801CB48BF00F815
:1005E000012B704702F0FF0343EA032242EA024272
:1005F00000F002B84FF000020429C0F0128010F0A1
:10060000030C00F01B80CCF1040CBCF1020F18BFEE
:1006100000F8012BA8BF20F8022BA1EB0C0100F081
:100620000DB85FEAC17C24BF00F8012B00F8012B54
:1006300048BF00F8012B70474FF0000200B5134689
:1006400094469646203922BFA0E80C50A0E80C50F2
:10065000B1F12001BFF4F7AF090728BFA0E80C50A3
:1006600048BF0CC05DF804EB890028BF40F8042B9C
:1006700008BF704748BF20F8022B11F0804F18BF09
:1006800000F8012B704770477047704701F0EEB9D2
:100690002DE9F04791460F4680460446002614F89F
:1006A000015B2DB100F062F80068405DC007F6D133
:1006B0002B2D02D02D2D18D0641E4A4639462046D7
:1006C00000F05CF827B13968A14201D1C7F8008079
:1006D0004FF0020471050BD54042002803DDFFF7FF
:1006E000D5FF0460A007BDE8F08746F48066E4E724
:1006F0000028F8DAFFF7CAFF04606FF00040F2E765
:1007000010B5203AC0F00B80B1E81850203AA0E8AC
:100710001850B1E81850A0E81850BFF4F5AF5FEAE0
:10072000027C24BFB1E81850A0E8185044BF18C993
:1007300018C0BDE810405FEA827C24BF51F8043B3A
:1007400040F8043B08BF7047D20728BF31F8023B8E
:1007500048BF11F8012B28BF20F8023B48BF00F822
:10076000012B7047004870470034002010B500F09E
:1007700079F8001D10BD00BF693C00002DE9F05F55
:10078000824615468B4600270AF10104B9460078D7
:10079000302801D09DB113E014F8010B012778280F
:1007A00003D0582801D045B10AE00DB1102D07D172
:1007B000002714F8010B102502E0082500E00A25A7
:1007C0000026B0460EE005FB080005FB06F10127F8
:1007D0001FFA80F801EB1046B6F5803F00D3B9460A
:1007E00014F8010B294600F042F80028EBDABBF1BF
:1007F000000F05D00FB1641E00E05446CBF8004056
:10080000B9F1000F06D0FFF741FF02210160C81EB9
:10081000BDE8F09F48EA0640FAE77546FFF7A2FFF9
:10082000AE4605006946534620F00700854618B0DD
:1008300020B5FFF775FEBDE820404FF000064FF0F1
:1008400000074FF000084FF0000B21F00701AC4605
:10085000ACE8C009ACE8C009ACE8C009ACE8C00924
:100860008D46704710B5FFF77DFF203010BD3A2848
:1008700000D2303820F02002412A01D3A2F1370003
:10088000884201D34FF0FF30704710B50446AFF3F4
:1008900000802046BDE81040FFF75EBD4FF0013CF0
:1008A00050F8042B51F8043B9A4221D1A2EB0C03DF
:1008B000934313EACC1317D150F8042B51F8043B9F
:1008C0009A4215D1A2EB0C03934313EACC130BD13C
:1008D00050F8042B51F8043B9A4209D1A2EB0C03C7
:1008E000934313EACC13DBD04FF00000704700BFF6
:1008F000D01A01BAB1FA81F101F0180122FA01F01F
:10090000CB40C1F12001DBB2C0B2C01A2CFA01F316
:10091000D11A914311EAC311E6D170470149182059
:10092000ABBEFEE726000200704710B5024600206D
:10093000137D052B07DA147D02F10E031955137D83
:100940005B1C1375012010BD10B502460020D37C3E
:10095000052B07DAD47C02F109031955D37C5B1C03
:10096000D374012010BD70B505460C4620780328CD
:1009700002D0207804280CD1A17A284600F07EF815
:1009800038B12078032804D1A27A61780C2000F0D5
:100990002DF970BD70B54FF08070406C81693248A0
:1009A000884700BF4FF08070406CD0F88C102E4804
:1009B00088470028F6D04FF08070406C81692B4842
:1009C000884700BF4FF08070406CD0F88C102748EB
:1009D00088470028F6D04FF08071496C086E804738
:1009E00005464FF08070406960234FF4E13229469C
:1009F00044691F48A0474FF080704069016E1C4851
:100A000088474FF08070406900221146C36818483B
:100A100098474FF0807040694021426C14489047DD
:100A20001449134800F060FE4FF08070006A816E38
:100A3000012088474FF08070006A816E40F20140CB
:100A400088474FF08070006A0321426D4FF04020CC
:100A500090470521064800F042FE074A4FF4E13175
:100A6000002000F073FE70BD000800F0001800F0D8
:100A700000C00040391600000024F40070B505469F
:100A80000C4600260F2C0DDC6878A04205DA2146C2
:100A90002846FFF759FF064604E021462846FFF79F
:100AA00044FF0646304670BD70B50546687D012896
:100AB00011D1E87C002804DD284600F0EFFA044656
:100AC0001FE0287D002804DD284600F0D0FA044607
:100AD00017E0FF2415E0687D022811D1287D002849
:100AE00004DD284600F0C3FA04460AE0E87C00284A
:100AF00004DD284600F0D2FA044602E0FF2400E0BC
:100B0000FF24204670BD000070B505460D48056005
:100B1000006800680C4908600A48006840680B4992
:100B200008600B4A00210B4801F0DAF90A49086015
:100B30000846006810B94FF0FF3400E0002420465A
:100B400070BD000054000020580000205C00002010
:100B500090440000150C00005000002010B5002447
:100B60003FE0012004EB44011F4A02F8310000205D
:100B700004EB440102EBC101487004EB440102EBB9
:100B8000C1014860FF2004EB440102EBC10108727F
:100B900004EB440102EBC10101F10900FF22052130
:100BA000FFF720FD04EB44010F4A02EBC10101F104
:100BB0000E00FF220521FFF715FD002004EB440184
:100BC000094A02EBC1014875012004EB440102EB24
:100BD000C1018875FF222146052000F007F8601C3E
:100BE000C4B2032CBDDB10BDA0060020F8B506463C
:100BF0000C4615468DF800608DF801408DF80250C6
:100C0000C823002269460248006801F025F9F8BDB2
:100C10005C0000200EB5FFF7A1FF00BF4FF0FF33CF
:100C2000002269465848006801F094F800287DD1F8
:100C30009DF8016006EB4600544901EBC0049DF8A5
:100C400000502078012806D0022822D0032847D05F
:100C500004286CD170E000206075032D01D0042DB4
:100C600016D160789DF80A10884211D09DF80A00CC
:100C70002072032D05D19DF80A2031460C20FFF784
:100C8000B5FFFF2231460720FFF7B0FF022020709A
:100C900075E069462046FFF766FE022D1FD19DF8DC
:100CA000080046281BD16078217A884207DDFF22A0
:100CB00031460920FFF79AFF0220607506E0FF2207
:100CC00031460820FFF792FF01206075FF22314670
:100CD0000B20FFF78BFF0020A075032020704EE053
:100CE00069462046FFF73FFE022D24D19DF80800FB
:100CF000302820D1207A9DF8091088421BD1FF228C
:100D000031460A20FFF772FF227A31460D20FFF7A5
:100D10006DFFFF2231460620FFF768FF207A6070E2
:100D2000207A41F2883110FB01F001E028E025E053
:100D300060600420207022E069462046FFF713FE21
:100D4000022D1AD19DF80800412816D10120A07566
:100D50002046FFF7A9FE2072207AFF2802D1012049
:100D600020700AE041F2883000F096FFFF22314601
:100D70000720FFF73BFF0220207000E000BF4DE797
:100D800001F00AF94AE7000058000020A006002000
:100D900038B505460F480560006800680E490860D0
:100DA00000200346012201460090322002F0A0FC00
:100DB0000A4908600A4A00210A4801F091F80A49E4
:100DC00008600846006810B94FF0FF3400E00024C6
:100DD000204638BD200000202400002028000020EC
:100DE00048440000ED0D00001C0000208EB000BF44
:100DF0004FF000094FF0FF084FF0000A4FF0000BD2
:100E000000200890FF20079006904FF0FF33142237
:100E100009A95548006802F094FC0446601E09A91F
:100E2000085C0A28E4D1A01E085C0D28E0D1A01EB1
:100E300045B2294609A800F0B9FE8046002DD7DD4D
:100E4000B8F1FF0F62D0022D04D0032D20D0052D64
:100E50005AD13FE04FF002099DF82560302E0FDB9C
:100E6000392E0DDC4FF0300B002002909DF825004C
:100E70008DF8080002A8FFF763FBC0B2089006E0F7
:100E8000412E01D1B34602E0462E00D1B3463CE0EC
:100E90009DF82500492808D14FF003099DF8260048
:100EA000A0F16101C9B2079113E04FF002094FF0C0
:100EB000300B002002909DF825008DF808009DF869
:100EC00026008DF8090002A8FFF73AFBC0B208908F
:100ED00000BF1AE09DF82500452814D14FF0040901
:100EE000002002909DF826008DF808009DF827004C
:100EF0008DF8090002A8FFF723FBC0B207909DF808
:100F00002800069000BF00BF00BF13E04FF00109AA
:100F1000002705E009A8C05D01A9C855781CC7B223
:100F2000AF42F7DB002001A9C85501A8FFF708FB75
:100F3000824600BF8DF80C908DF80D80CDF810A082
:100F40008DF814B008988DF8150007988DF81600E4
:100F500006988DF81700C823002203A903480068EB
:100F600000F07AFF44E70000280000202400002061
:100F700070B505460A4805600068006809490860C0
:100F8000094A0021094800F0ABFF094908600846FA
:100F9000006810B94FF0FF3400E00024204670BD17
:100FA00034000020380000206C440000B50F000021
:100FB0003000002008B500BF4FF0FF330022694623
:100FC0002248006800F0C6FE00283CD101279DF8A9
:100FD0000000401F092818D2DFE800F00507090BC0
:100FE0000D0F11131500722411E061240FE0662427
:100FF0000DE073240BE0642409E0702407E07824FA
:1010000005E04C2403E0442401E0002700BF00BFBA
:10101000012FD1D19DF801000D490D5C4C2C01D060
:10102000442C0AD19DF802000A490E5C3346224640
:10103000294609A000F0C0FBBEE72246294608A0C9
:1010400000F0BAFBB8E700F0A7FFB5E738000020D2
:101050003C0000203F0000202563256325630D0030
:10106000256325630D00000040F82120704770B50E
:101070000446A57B207D401E2075207D30B9FF22CF
:10108000052104F10E00FFF7ADFA05E0227D04F121
:101090000F01481EFFF761FA284670BD70B504467F
:1010A000657AE07C401EE074E07C30B9FF220521C7
:1010B00004F10900FFF796FA05E0E27C04F10A0169
:1010C000481EFFF74AFA284670BD70B54FF000057C
:1010D00000BFEFF3058008B101250DE002F08CFEA2
:1010E0000446012C08D000BFEFF3108018B900BFF0
:1010F000EFF3118000B10125284670BD10B5144AE8
:101100000C210A2000F068FE12490860124A0321EF
:101110000A2000F061FE114908600E48006810B115
:101120000846006810B94FF0FF340FE00948006826
:101130000B490860074800680A49086007480068CA
:10114000486006480068084908600024204610BD31
:10115000184400000400002030440000100000206B
:1011600018000020080000201400002010B5002402
:101170000648FFF7C9FC04430548FFF709FE04438E
:101180000448FFF7F5FE0443204610BD0800002088
:1011900018000020140000201649042804BF086825
:1011A00040F4803018D0052804BF086840F40030AF
:1011B00012D0062812D00F2815D0102838BF70473B
:1011C000103800F01F01012202FA01F142090A4819
:1011D00050F822000160704708607047086840F4CA
:1011E0008020086070474FF0E020016941F0020163
:1011F0000161704724ED00E06048000030B40A4D02
:101200002A680A4B9A421CBFD5F800C0002207D0BA
:101210005CF8224043F82240521C9B2AF8D32B60F2
:1012200043F8201030BC704708ED00E000040020B7
:1012300010B54FF08070406C81691648884700BF38
:101240004FF08070406CD0F88C101248884700280E
:10125000F6D04FF08070006A0E21C26B0E489047A6
:101260004FF08070006A0022022103680A48984704
:101270004FF08070006A00220821036806489847F2
:101280004FF08070006A00220421036802489847EA
:1012900010BD0000050800F0005002402DE9F003E9
:1012A000AF4D02462868AF4B1840A0F18053B3F50C
:1012B000A02359D002F03809DFF8AC82C2F38414BD
:1012C000B9F1100F25D0B9F1300F04BF47F23050FB
:1012D0004FF400130DD04FF03800904304BF4FF48B
:1012E0000040C30105D012F0380F1CBF0020034698
:1012F00013D09E4F12F4605F4FF0000618BF00221B
:101300002CD057F8324044457DD307EBC2025268D7
:10131000E1E0002340461524EBE7A4F10900122880
:1013200022D29348D5F87CC04FF04C7350F824007B
:101330002CF01C0C072CA8BF4CF0100CC5F87CC07E
:101340002E6D4FF4002C16F4807FD2D1BCF1010C2D
:101350000AD02E6D16F4807FF8D0CAE712F0380F4D
:1013600018BFB9F1100F04D0BDE8F0034FF0000032
:101370007047C2F30268DFF8FCC14FF0000257F873
:101380003290E14503D307EBC202526803E0521CDE
:10139000062AF4D33246C5F8C020D5F8B020DFF8CD
:1013A000D8C102EA0C0242F00042C5F8B020DFF8D2
:1013B000CCC1A4F109024C1E5CF828C0A444BCFBBB
:1013C000F1FCD5F8B0101943C5F8B01008EBC8010E
:1013D00001EB41046A4902EB420201EBC40101EB5B
:1013E00082046468C5F86441D5F864416FF0FF0871
:1013F00008EB0C2C44EA0C0CC5F864C151F822101F
:10140000D5F8602100E061E002F400021143C5F864
:101410006011D5F86011D5F86021C1F38921C2F3BC
:101420000904D5F86421C2F3042202F1010CD5F8B5
:10143000642102F01F02521CB0FBF2F04A09C2F113
:1014400000084443424301EB481104EB5212484365
:1014500002EB9020B0FBFCF041080846002257F850
:1014600032C0844503D307EBC200466802E0521C39
:10147000062AF4D3C5F8C060D5F8600110F4000F57
:101480001DBFD5F8B00040F08040C5F8B000D5F8D9
:10149000600104BF40F40000C5F860014FF4004053
:1014A000D5F8682112F0010F02D1401E0028F7DCA8
:1014B000002808BF002148D0D5F8B000184340F0FC
:1014C000010040F01040C5F8B0003EE0521C062A72
:1014D000FFF417AF3246C5F8C020D5F8602122F4DA
:1014E0000002C5F86021D5F8B020DFF898C002EA04
:1014F0000C0242F00042C5F8B020002908BF4FF0AE
:10150000000C0AD0B0FBF1FCBCF1000F18BFACF12D
:10151000010C0CF10101B0FBF1F10846002257F873
:101520003240844203D307EBC200466802E0521CFB
:10153000062AF4D3C5F8C060D5F8B00043EA8C227F
:10154000104340F00040C5F8B000D5F8B00020F4DA
:101550007000C5F8B000BDE8F00308467047000011
:1015600000E00F400000FF700024F400F44600008B
:10157000D844000040787D0100FC0FE0D04400001A
:1015800044450000FF0300EF10B54FF0E020006974
:1015900002F032FC012801D001F09AFD10BD0000DC
:1015A0001B49096841F47001194A116019491A4A26
:1015B00011671A4911661A4911661A491167002004
:1015C00000E0401CB0F57A7FFBD31749124A116640
:1015D00016491167002000E0401CB0F57A7FFBD36C
:1015E00013490D4A116600BF0B49096D01F0400116
:1015F0004029F9D10F49084A11664FF0C0711167AF
:10160000002000E0401C42F210718842FAD370477B
:1016100088ED00E01028800700E00F40D13A8E07E7
:10162000422D9E0100288001420D9E01000880018C
:10163000420DDE014205DE0170B501211D4800F0BA
:101640007FF8054629461B4800F04CF82AE0194867
:1016500000F038F8C4B218481849097844541748BB
:101660000078401C154908700A2C0FD10023084649
:10167000027811491248006802F0BBF832210E4886
:10168000FEF7B8FF00200D49087010E00B48007805
:10169000322806DB32210848FEF7ACFF002007495C
:1016A000087000BF034800F015F80028CFD100BF34
:1016B00070BD000000C000406C0600202C0000201F
:1016C00028000020816911F0100F0CBF00684FF056
:1016D000FF3070478069012121EA10107047C0F87F
:1016E000C81F704741647047124A10B5104B12680A
:1016F0004FF0080C104C2240A2F18054B4F5202485
:1017000008BF0E4B002253F83240844203D103EB52
:10171000C200446803E0521C6245F4D30024204612
:10172000FFF76CFD2046BDE81040FFF735BD000017
:101730002447000000E00F400000FF7064470000F5
:10174000002914BF006CC06B704700002DE9F04108
:1017500004460D461646154A52F824004FF0807292
:10176000526C1169884708B9BDE8F081104850F8FB
:101770002400104908600D4A52F824004FF080728E
:10178000526C916988474FF08070406960232A4607
:101790003146476907480068B8474FF08070406994
:1017A000C16904480068884700BFDDE7C444000001
:1017B000B8440000600000200FB408B503A80090F2
:1017C0000099029800F006F80020009001B05DF842
:1017D00014FB00002DE9F34F85B0064612E100240A
:1017E00000E0641C305D252802D0305D0028F8D16F
:1017F0002146304600F016F9264430782528EDD1F0
:10180000761C00254FF0200B00BF16F8011B38296D
:1018100032D014DC33292AD008DC25296FD03029B6
:1018200022D0312921D032296AD11FE034291FD09A
:1018300035291ED036291DD03729F5D11BE069295D
:1018400035D008DC392918D0582972D0632922D024
:101850006429E9D12AE070296CD073293CD075291C
:1018600058D07829E0D163E000BF00BF00BF00BFBF
:1018700000BF00BF00BF00BF00BF16F8010C30283A
:1018800001D105B9834605EB8500450016F8010C2A
:1018900030380544B9E70698006804900698001DA2
:1018A0000690012104A800F0BDF8AAE000BF069848
:1018B000006804900698001D06904FF000080498F8
:1018C000002805DA0498404204904FF0010901E035
:1018D0004FF000090A2739E0069850F804AB06904B
:1018E000002400E0641C1AF804000028FAD1214604
:1018F000504600F097F8A5420BD92D1B05E076E085
:101900007AE0012143A000F08DF8281EA5F1010521
:10191000F7D176E00698006804900698001D0690BE
:101920004FF000080A274FF000090FE001E001E046
:1019300000BF00BF0698006804900698001D06903E
:101940004FF0000810274FF0000900BF012401E00C
:101950007C436D1E04FB07F00499884205D804FB04
:1019600007F0B0FBF7F0A042F2D0B9F1000F00D0C1
:101970006D1EB9F1000F0AD0BBF1300F07D12D2237
:10198000404608F101080DF800204FF00009012D34
:101990000BD9102D09D26D1E05E0404608F1010853
:1019A0000DF800B06D1E002DF7D1B9F1000F05D074
:1019B0002D22404608F101080DF8002010E004989F
:1019C000B0FBF4F0B0FBF7F107FB11001249096816
:1019D0000A5C404608F101080DF80020B4FBF7F45A
:1019E000002CECD14146684600F01CF809E0701E5E
:1019F000012100F017F804E0052108A000F012F81A
:101A000000BF00BF307800287FF4E9AE07B0BDE822
:101A1000F08F000020000000B44400004552524FF7
:101A20005200000070B505460E46002417E0285D00
:101A30000A2808D14FF0807040690D2102680A48D9
:101A40000068904702E0285D00B90AE0295D4FF088
:101A5000807040690268044800689047641CB44282
:101A6000E5D300BF204670BD6000002070B500F0D7
:101A7000A7FA08B9134870BD02F0B8F9054600246A
:101A800018E0114850F8240040B90F4840F824509D
:101A900004EB44000D4901EB4010ECE70A4850F814
:101AA0002400A84205D104EB4400084901EB401092
:101AB000E1E7641C042CE4D304EB4400034901EB8C
:101AC0004010D8E768080020C8080020E806002079
:101AD00010B5044600F074FA38B100F07DF820B17A
:101AE0004FF0FF31206801F06BFD10BD70B5054669
:101AF000286801F029F900240BE0084951F8241066
:101B00002868884204D10020044941F8240002E0FA
:101B1000641C052CF1D300BF70BD0000680A0020D2
:101B200070B5044600202060002514E0154850F8E8
:101B3000250078B905EB8500134A02EB001101205E
:101B400001F0F1FA0F4941F82500084650F8250048
:101B5000206002E06D1C052DE8D300BF206830B97D
:101B600000F02EFA18B1012001F0CCFA206000201C
:101B700080F3118800BF206808B9002070BD0120E3
:101B8000FCE70000680A0020D808002010B50446D1
:101B900000F016FA40B100F01FF828B100231A46F1
:101BA0001946206801F06CFB10BD704710B5024665
:101BB00081B11378632B05D0642B05D0652B05D13B
:101BC000002005E0012003E0022001E0FF2000BF2B
:101BD00000BF00E0FF2010BD00BFEFF3058008B993
:101BE000012070470020FCE700244FF08071896FCE
:101BF0000869804724492548FFF750FB24490860BD
:101C0000FEF7C8FE4FF08071896B486880474FF03F
:101C10008071896C48688047FFF70AFB00F04CF838
:101C2000FFF76CFA0443FFF7A1FA04434CB94FF0F5
:101C30008070006A0422114603681648984700F035
:101C400055F81FE0002202211248FFF70DFA4FF06D
:101C50008071496C086E80470A21B0FBF1F5284677
:101C6000FEF7E0FB022211460A48FFF7FDF94FF0AC
:101C70008071496C086E80470A21B0FBF1F5284657
:101C8000FEF7D0FBDEE70000000E2707800600F11C
:101C9000000000200050024070B50546FFF715FA1D
:101CA00010B16FF0050404E0002415B1284601F0DE
:101CB0007BF8204670BD000070B5FFF706FA10B142
:101CC0006FF005040EE002F097F80546012D07D1EC
:101CD0000548006820B9012003490860002401E09C
:101CE0004FF0FF34204670BD6800002070B5FFF74C
:101CF000ECF910B16FF0050424E002F07DF8054620
:101D0000012D1DD110480068012819D100BF801F86
:101D10000021002804DB4A07130E0C4A135406E086
:101D20004A07160E0A4A00F00F031B1FD65400BFC5
:101D300000BF02200449086001F0F8F8002401E027
:101D40004FF0FF34204670BD6800002000E400E042
:101D500018ED00E02DE9F84307460D4691461C4674
:101D60003E464FF00008FFF7B0F9E8B10EB105B1FB
:101D700014B16FF0030829E0002000906A4629465C
:101D8000304601F0D7FB012802D06FF002081DE0B9
:101D900000BF009838B14FF080500E490860BFF383
:101DA0004F8FBFF36F8F11E006B115B96FF00308C5
:101DB0000CE022462946304601F03AFB012805D0C6
:101DC00014B16FF0010801E06FF002084046BDE871
:101DD000F883000004ED00E02DE9F84305460E46C7
:101DE00014464FF00008FFF770F9002830D1002D9D
:101DF0002ED02EB3471EBCB1A06858B1E068502861
:101E000008D3206930B105FB06F06169814201D336
:101E100001270AE0A06840B9E06830B9206920B91C
:101E2000606910B9002700E00027012F09D10020C8
:101E3000009031462846A368226901F0B2F9804635
:101E400006E02FB900223146284601F081F980468C
:101E50004046BDE8F88300002DE9F84307460D46EB
:101E600091461C463E464FF00008FFF72EF9F0B1B0
:101E70000EB105B114B16FF003082BE00020009003
:101E800000236A462946304601F086FA012802D02E
:101E90006FF002081EE000BF009838B14FF080508C
:101EA0000E490860BFF34F8FBFF36F8F12E006B18A
:101EB00015B96FF003080DE000232246294630468D
:101EC00001F0DEF9012805D014B16FF0010801E03E
:101ED0006FF002084046BDE8F883000004ED00E022
:101EE0002DE9FF4780468946144600200390FFF7FE
:101EF000ECF800284ED1B8F1000F4BD08026182501
:101F00008246471E44B3206808B1D4F800A0A069F7
:101F100000B1A5692DB1382D03D8207900F001005A
:101F200018B1002004B0BDE8F087606908B16069AD
:101F30008608A06840B1E0685C2805D3206918B124
:101F4000606908B1012708E0A06830B9E06820B9ED
:101F5000206910B9002700E00027012F0CD121696A
:101F6000A0684B463246CDE90051029051464046AA
:101F700001F0FCFC03900DE067B903A8B2B24B4638
:101F80005146CDE90050404601F0BAFC012801D08D
:101F9000002003900398C5E710B5FFF796F810B13D
:101FA0006FF0050408E000244FF0805003490860FA
:101FB000BFF34F8FBFF36F8F204610BD04ED00E0DD
:101FC00010B501F019FF022801D1012010BD002039
:101FD000FCE700002DE9F04105460E462048076861
:101FE00020480068001D00F0F5FD681CD8B9D6B186
:101FF0001D4948681B49096888601A498268096850
:10200000CA6018490968091D826851601549096844
:10201000091D8160144A134909684A61114609681B
:10202000491C11601AE07C190E4800684460BC42EB
:1020300007D20C480168091D0C48006800F00DFE2D
:102040000CE008480168091D0948006800F005FE19
:1020500008480068844201D206480460BDE8F08167
:10206000A4000020900000202433002098000020CD
:1020700094000020C000002010B5044600F008FEC7
:1020800030480068401C2F4908602F48006840B95C
:102090002D4804600846006801280DD100F00CFAB4
:1020A0000AE02A48006838B927480068C06AE16A2F
:1020B000884201D82448046025480068401C24490F
:1020C00008600846006860642249E06A096888423E
:1020D00002D92049E06A0860E16A01EB81011E4AE9
:1020E00002EB81014868A0608268E260211D82687D
:1020F00051608160E16A01EB8101174A02EB8102C4
:102100006261E16A01EB8101134A52F82110491C16
:10211000E26A02EB8202104B43F8221000F0CAFD83
:102120000A48006868B108480068C06AE16A8842E5
:1021300007D24FF0805009490860BFF34F8FBFF3BB
:102140006F8F10BDA000002090000020AC00002088
:10215000BC000020A8000020742E002004ED00E048
:102160000146D1E90132D0180A68801A8A68824291
:1021700001D88A68801A704708B500F089FD0E48BA
:102180000068A8B90D4800F058FD0D4800F055FD55
:102190000A480C4908600A480B49086000200B4BAC
:1021A0000B4A10210090052000F0FBFF0249086057
:1021B00000F080FD08BD0000D8000020383300206A
:1021C0004C330020D0000020D400002060330020D9
:1021D000B033002010B516E000F05AFD0C48C0687E
:1021E000C468201D00F0F6FC0A480068401E09493A
:1021F000086009480068401E0749086000F05AFD61
:10220000204600F05FF8044800680028E4D110BDC3
:1022100010330020A00000209C00002070B5044670
:102220000D46206C70B1216CE0680144E160D4E996
:102230000210884201D32168E1602846226CE168DF
:10224000FEF78BF970BD2DE9F04104460F461546A7
:102250004FF00008A66B206C48B9206800282CD1EC
:10226000A06801F0A7FE80460020A06025E07DB9AF
:102270003946226C6068FEF770F9216C606808448A
:102280006060D4E90101884217D32068606014E0DF
:102290003946226CE068FEF760F9216CE068411A6B
:1022A000E1602168E068884203D2216CA068411A8D
:1022B000E160022D01D106B1761E701CA06340467C
:1022C000BDE8F08110B5044694F8590030B9206B90
:1022D00000F000FD204600F0FDFC06E094F85900F7
:1022E000012802D1204600F0F5FC10BD01464A6AE3
:1022F00022B10A6B1268C2F1380000E0002070477A
:102300000146084A126812680AB9012200E0002258
:102310000A600A6822B9034A1268D268106800E0AD
:1023200000207047D000002030B54FF4005315480E
:1023300000F007042CB1C01D20F00700114C041B55
:102340001B1B0246104C226000240F4D6C60D018FD
:10235000083820F007000D4C206000240B4D2D683C
:102360006C600A4D2D682C601146441A4C60074C75
:1023700024680C60064D4C682C60064D4C682C603F
:1023800030BD0000740E0020700000207800002096
:10239000800000207C00002000BFFFF71BFF0648E4
:1023A00000680128F9D94FF0805004490860BFF354
:1023B0004F8FBFF36F8FF0E7742E002004ED00E025
:1023C00010B5044654B10020A06020600021E160F7
:1023D00000231A461946204600F052FF10BD2DE991
:1023E000F04106460D4617469846069C0DB92460F6
:1023F00000E02760E66325640121204600F0F0FE3E
:1024000084F84C80BDE8F0812DE9F04704460D4684
:1024100016461F46DDE9099ADDF820802421204672
:10242000FEF70AF9A561A660E76084F81C80BDE8A4
:10243000F0872DE9F05F81460E4690469A460A9F46
:102440000C9C4FEA8801A522206BFEF7CBF8A8F17F
:102450000100216B01EB800B2BF0070B7EB10025F7
:1024600007E0715D04F134004155705D00B902E090
:102470006D1C102DF5D300BF002143200155382FCE
:1024800000D33727E762E764201D00F0E3FB04F187
:10249000180000F0DFFB2461C7F13800A06164621E
:1024A00052464946584600F07FFB20600B9808B121
:1024B0000B980460BDE8F09F10B5002407E004EB22
:1024C00084010F4A02EB810000F0B7FB641C382C3A
:1024D000F5D30C4800F0B1FB0B4800F0AEFB0B4805
:1024E00000F0ABFB0A4800F0A8FB0A4800F0A5FB8F
:1024F00004480949086004480849086010BD000004
:10250000742E0020D4320020E8320020FC3200205B
:102510001033002024330020940000209800002075
:1025200010B50146164800E0006803688B42FBD3F3
:102530000246436813448B4204D143684C682344E9
:10254000436001460A464B6813440468A34211D114
:102550000C4C03682468A34208D04B680468646884
:1025600023444B6003681B680B6005E0054B1B6848
:102570000B6001E003680B60884200D0016010BD71
:1025800070000020780000202DE9F04104460D463F
:1025900016461F464FF0000865602461B5420CD80E
:1025A000F01BA169884202D34FF0010811E0211D00
:1025B0000948006800F051FB0BE0BE4204D2BD4266
:1025C00002D34FF0010804E0211D0448006800F028
:1025D00044FB4046BDE8F081D4000020D00000203C
:1025E00070B5054600F054FBA86B08B9012400E063
:1025F000002400F05FFB204670BD70B5054600F07A
:1026000047FBA86BE96B884201D1012400E000245C
:1026100000F050FB204670BD70B505460E460E48D2
:102620000068C068C468201D00F0D4FA94F828003F
:1026300000F0040028B132462946204600F023F974
:1026400005E094F8280000F0FE0084F828002046F9
:10265000216A884770BD0000D000002070B586B0A8
:1026600077E00298002805DA03AED6E90020B168C9
:10267000904700BF029800286BDB049C606908B992
:10268000012000E0002010B9201D00F0A3FA01A8ED
:1026900000F026F9054602980A2858D2DFE800F033
:1026A0005705072E364706082F3700BF00BF00BF6B
:1026B00094F8280040F0010084F828000398A269EB
:1026C000811803462A462046FFF75EFFA8B194F81A
:1026D000280000F0040038B10398A26981182A4646
:1026E000204600F0D0F805E094F8280000F0FE0045
:1026F00084F828002046216A884729E000BF94F822
:10270000280000F0FE0084F8280021E000BF94F8C3
:10271000280040F0010084F828000398A061A06917
:1027200041192B462A462046FFF72EFF10E094F869
:10273000280000F0020018B9204600F0CBFA05E0AE
:1027400094F8280000F0FE0084F8280000E000BFA4
:1027500000BF002202A90448006800F069FE0028BA
:102760007FF47FAF06B070BDD8000020F8B50546F5
:102770000C4600F029FC684600F0B2F806460098C6
:1027800020BB44B9B54206D801F04EFD314628467B
:10279000FFF742FF1CE03CB10E480068006808B932
:1027A000012000E000200446A91B22460A480068D8
:1027B00000F0D4FA01F038FD50B94FF080500749CD
:1027C0000860BFF34F8FBFF36F8F01E001F02CFD66
:1027D000F8BD0000D4000020D800002004ED00E087
:1027E0002DE9F0410546884616461C46A868001BA0
:1027F000B04202D2A868001B00E030460746A86934
:1028000001193A464046FDF7A8FEBE4205D9F21B23
:1028100008EB0700A969FDF7A0FE3444A868A042B0
:1028200001D8A868241A2046BDE8F0812DE9F84FA8
:102830000446894616461F46D4F800A0207F00F0C3
:10284000010060B15346042269462046FFF7C8FFE5
:102850008246009D3F1FB54202D9002500E0354663
:10286000BD4201D2284600E038468046B8F1000F4C
:1028700006D05346424649462046FFF7B1FF206046
:102880004046BDE8F88F70B504460D46164604E094
:10289000A06905442046216A8847A06941192B4652
:1028A00032462046FFF770FE0028F1D170BD0000CF
:1028B00009480068006808B9012000E0002020B144
:1028C0004FF0FF300549086005E003480068C06824
:1028D000006802490860704794000020C000002092
:1028E00070B5044601F098FA05460748006885422D
:1028F00004D200F00BF80120206001E000202060ED
:1029000001480560284670BDE000002070B508E071
:102910000D480068C06804684FF0FF312046FFF79B
:102920007BFE09480068006808B9012000E000202B
:102930000028EDD004480568044800680249086092
:102940000248056070BD0000D0000020D4000020C7
:1029500000BF102080F31188BFF34F8FBFF36F8F3C
:1029600000BF00BFFEE708B500BF6846FFF7C8FC20
:10297000044620460099FFF7F9FEFFF76FFEF4E7E3
:1029800070B5044600F084F994F9455010E0606A8F
:1029900008B9012000E0002038B904F1240001F05A
:1029A000BFFB18B100F026FA00E003E0681E45B254
:1029B000002DECDC00BFFF2084F8450000F07AF920
:1029C00000F066F994F9445010E0206908B901203C
:1029D00000E0002048B904F1100001F0A1FB08B1AB
:1029E00000F008FA681E45B200E001E0002DECDCC2
:1029F00000BFFF2084F8440000F05CF970BD2DE9B1
:102A0000F0410546884616461C46A868001BB042A1
:102A100002D2A868001B00E030460746A9690819E1
:102A20003A464146FDF799FDBE4205D9F21B08EB37
:102A30000701A869FDF791FD3444A868A04201D8B8
:102A4000A868241A2046BDE8F0812DE9F843054620
:102A50000F4614461E46DDF82090D5F80480287FE6
:102A600000F0010060B100944E4507D343460422B4
:102A700069462846FFF7C3FF804607E0002405E0CB
:102A8000B44201D2204600E03046044634B1434609
:102A9000224639462846FFF7B2FF68602046BDE867
:102AA000F88300002DE9F04705464FF0000900F0DB
:102AB0008BFA3048006808B9FFF736FC75B105F0AD
:102AC0000700C0F11008C8F1FF30A84201D2012070
:102AD00000E0002008B9454400E00025012000EB9B
:102AE000E570002841D0002D3FD023480068854282
:102AF0003BD8224E3046046801E0264624686068D0
:102B0000A84202D220680028F7D11A4800688442FF
:102B10002BD0306800F10809206830606068401BE5
:102B2000102807D967196068401B786065603846CF
:102B3000FFF7F6FC104960680968081A0E4908603A
:102B4000084600680E490968884203D20A480068AE
:102B50000B490860606840F0004060600020206021
:102B600008480068401C0749086001F05DFB4846C2
:102B7000BDE8F087780000207C0000207000002075
:102B800080000020840000200648006830B105491C
:102B9000096801F15000096D491C01600148006895
:102BA0007047000090000020001F4FF0807303600A
:102BB000001F21F001030360001F054B0360143860
:102BC0000260001F6FF002030360203870470000AE
:102BD0005129000001460A69D1E901309860D1E924
:102BE000010358605068884201D188685060002015
:102BF00008611068401E1060106870470148006846
:102C000070470000A0000020034B0360034B0B60E3
:102C100080231360704700007C0A0020D80A00203F
:102C2000034B0360034B0B6050231360704700009D
:102C3000D80C0020340D0020704700F108014160DD
:102C40004FF0FF31816000F10801C1600161002196
:102C50000160704700210161704710B502460B68A2
:102C60005C1C0CB9106907E002F1080000E0406844
:102C7000446824689C42FAD944684C604C68A1605E
:102C8000886041600A611468641C146010BD000013
:102C900000BF102080F31188BFF34F8FBFF36F8FF9
:102CA00000BF03480068401C0149086070470000ED
:102CB0008C00002006480068401E05490860084650
:102CC000006820B9002080F3118800BF00BF704762
:102CD0008C00002070B506463546E6B1083D2C460E
:102CE0006068C00FB8B12068A8B9606820F00040E3
:102CF000606000F069F9084960680968084406499D
:102D000008602046FFF70CFC04480068401C03499B
:102D1000086001F089FA70BD7C0000208800002066
:102D200000204FF0E02108618861064800684FF4F8
:102D30007A71B0FBF1F0401E4FF0E02148610720AE
:102D4000086170476C00002070B50446254695F870
:102D5000460010B92846FFF7BDFF70BD2DE9F041D0
:102D600005460E4617462C46FFF792FF94F944009D
:102D7000401C10B9002084F8440094F94500401C20
:102D800010B9002084F84500FFF794FFA06B28B924
:102D90003A46314604F1240000F042F82046FFF79D
:102DA000EFFDBDE8F081000070B50446002544B198
:102DB00000F00AF900212046FFF70CF901F034FA7F
:102DC00005463DB94FF0805003490860BFF34F8F6F
:102DD000BFF36F8F70BD000004ED00E00349096888
:102DE000016003490968416070470000B800002095
:102DF000A40000200120014908607047B4000020B1
:102E000070B505460C460548016818312846FFF79D
:102E100024FF01212046FFF7DDF870BD900000205F
:102E200070B504460E46154660680F490968C861CA
:102E30000D49826809680A620B490968183182687D
:102E400051600949096818318160074909688C6235
:102E50002168491C21600DB14FF0FF3629463046EC
:102E6000FFF7B8F870BD0000900000202DE9F04792
:102E700006460F4634464FF00109002E4FD0E06C55
:102E8000B84201D23D4600E0E56CE06AA84246D077
:102E9000206D012843D1D4F82C80E562A06900F0B0
:102EA000004010B9C5F13800A06108EB88011D4A47
:102EB00002EB81016069884201D1012000E000201D
:102EC00068B3201DFFF786FE1749E06A096888424B
:102ED00002D91549E06A0860E16A01EB8101114AF3
:102EE00002EB81014868A0608268E260211D82686F
:102EF00051608160E16A01EB81010A4A02EB8102C3
:102F00006261E16A01EB8101064A52F82110491C15
:102F1000E26A02EB8202034B43F8221000BFBDE8D5
:102F2000F0870000742E0020A800002010B586B0A5
:102F300000200590049003AA04A905A8FFF764FEE9
:102F40000022DDE904101346CDE90021029016A10C
:102F50001748039A00F00AFD164908600846006801
:102F600008B1012400E00024012C02D101F008FA8C
:102F70000446012C14D100BF102080F31188BFF348
:102F80004F8FBFF36F8F00BF4FF0FF300A490860CB
:102F900001200A49086000200949086000F074F81F
:102FA0000848006806B010BD49444C4500000000C8
:102FB00099230000C4000020C0000020AC000020C5
:102FC000A4000020C800002002480068401C0149FD
:102FD00008607047CC00002070B52648006818B122
:102FE00001202549086043E0002023490860234868
:102FF0000068046B4FF0A5352068B0F1A53F0BD1F8
:103000006068B0F1A53F07D1A068B0F1A53F03D13A
:10301000E068B0F1A53F05D0184801683431006878
:10302000FFF70AFE1648016800E0491E01EB810027
:10303000144A52F8200008B9012000E000200028BE
:10304000F3D101EB81020F4B03EB8200426852681F
:10305000426000F108024368934202D1426852681C
:1030600042604268D268054B1A600548016000BFA3
:1030700070BD0000CC000020B400002090000020B3
:10308000A8000020742E002010B50E48006840F4FF
:103090007F000C4908600846006840F07F400860E7
:1030A000FFF73EFE002008490860FDF77FF907485A
:1030B000006840F0404005490860FDF763F90020D2
:1030C00010BD000020ED00E08C00002034EF00E097
:1030D00010B500BF102080F31188BFF34F8FBFF3EE
:1030E0006F8F00BF00F09EFE18B14FF08050044972
:1030F000086000BF002080F3118800BF10BD0000F1
:1031000004ED00E02DE9F0410446012600272246A7
:103110000021012000F01CF805462846FFF750F971
:103120002846BDE8F0812DE9F84304460D46012705
:103130004FF000082B46002211460120009400F0B9
:1031400030F806463046FFF73BF93046BDE8F883D5
:103150002DE9F84305460E4617460024F5B1601EDA
:10316000B0FBF5F0B04219D305FB06F010F1510F9A
:1031700014D805FB06F909F15000FFF793FC04464B
:1031800064B1A04608F15008002084F846003B4690
:103190004246314628460094FFF721F92046BDE813
:1031A000F8832DE9F84380460D4616461C46DDF8A7
:1031B00020900027B8F1000F0FD074B106B165B1AF
:1031C00006B955B92746012087F846004B463246D6
:1031D000294640460097FFF702F93846BDE8F883D4
:1031E0002DE9F04105460E4601272C46002C41D022
:1031F000E06B00283ED0B91EE06BB1FBF0F0216C13
:10320000884237D3FFF744FDD4E90F12206801FB51
:103210000200A0600020A06320686060E06B401E98
:10322000226C216800FB0211E160FF2084F8440059
:1032300084F845009EB9206908B9012000E000200B
:10324000A8B904F1100000F06BFF80B14FF080507E
:103250000A490860BFF34F8FBFF36F8F07E004F197
:103260001000FFF7EAFC04F12400FFF7E6FCFFF78B
:1032700021FD00E000273846BDE8F08104ED00E0C4
:103280002DE9FF4383B0074688461D464FF00009ED
:103290003C4600BFFFF7FCFCA06BE16B884201D30A
:1032A000022D28D12A4641462046FEF7CCFF06468D
:1032B000606A08B9012000E0002068B904F1240028
:1032C00000F02EFF88B14FF0805032490860BFF304
:1032D0004F8FBFF36F8F08E03EB14FF080502D4904
:1032E0000860BFF34F8FBFF36F8FFFF7E3FC012040
:1032F00007B0BDE8F083059818B9FFF7DBFC0020A4
:10330000F6E7B9F1000F04D101A8FFF767FD4FF010
:103310000109FFF7CFFCFFF757FEFFF7B9FC94F95F
:103320004400401C10B9002084F8440094F9450082
:10333000401C10B9002084F84500FFF7BBFC05A92C
:1033400001A800F0ADFAF0B92046FFF756F9A0B198
:1033500004F110000599FFF753FD2046FFF710FB1D
:1033600000F062FF002895D14FF0805009490860B5
:10337000BFF34F8FBFF36F8F8CE72046FFF700FB43
:1033800000F052FF86E72046FFF7FAFA00F04CFF04
:103390000020ADE704ED00E02DE9FF4F81B00546C8
:1033A00016461F462C4600BF1021EFF3118081F313
:1033B0001188BFF34F8FBFF36F8F00BF8146A06BA3
:1033C000E16B884201D3022F28D194F945A0A06B6C
:1033D00000903A4620460299FEF735FF0AF10100B7
:1033E00070B9606A08B9012000E0002038B904F122
:1033F000240000F095FE10B10EB1012030600AE00B
:10340000FFF7FCFB8346DA4504D20AF1010040B223
:1034100084F8450000BF4FF0010801E04FF00008BC
:1034200000BF89F3118800BF404605B0BDE8F08FAA
:103430002DE9F74183B005460F464FF000082C46B2
:1034400000BFFFF725FCA66BF6B139462046FEF714
:10345000E5FE701EA063206908B9012000E000208D
:1034600060B904F1100000F05BFE38B14FF08050FD
:103470002F490860BFF34F8FBFF36F8FFFF71AFC20
:10348000012006B0BDE8F081059818B9FFF712FCDD
:103490000020F6E7B8F1000F04D101A8FFF79EFC69
:1034A0004FF00108FFF706FCFFF78EFDFFF7F0FB7A
:1034B00094F94400401C10B9002084F8440094F9A9
:1034C0004500401C10B9002084F84500FFF7F2FBCE
:1034D00005A901A800F0E4F9F0B92046FFF780F84B
:1034E000A0B104F124000599FFF78AFC2046FFF7FC
:1034F00047FA00F099FE0028A3D14FF080500C4904
:103500000860BFF34F8FBFF36F8F9AE72046FFF736
:1035100037FA00F089FE94E72046FFF731FA00F011
:1035200083FE2046FFF75CF800288AD00020A8E739
:1035300004ED00E02DE9F74F054616462C4600BF86
:103540001021EFF3118081F31188BFF34F8FBFF388
:103550006F8F00BF8046D4F838A0BAF1000F27D093
:1035600094F9449020460199FEF758FEAAF1010013
:10357000A06309F1010070B9206908B9012000E0D9
:10358000002098B904F1100000F0CAFD70B16EB1CE
:10359000012030600AE0FFF731FB8346D94504D2B1
:1035A00009F1010040B284F8440000BF012700E0A7
:1035B000002700BF88F3118800BF3846BDE8FE8FA2
:1035C0002DE9F34182B0054600272C46B84600BFDE
:1035D000FFF75EFBA66BFEB1701EA063206810B9FA
:1035E000FFF7D2FAA060206908B9012000E00020AE
:1035F00060B904F1100000F093FD38B14FF0805035
:103600003A490860BFF34F8FBFF36F8FFFF752FB4C
:10361000012004B0BDE8F081039818B9FFF74AFB18
:103620000020F6E71FB96846FFF7D8FB0127FFF730
:1036300041FBFFF7C9FCFFF72BFB94F94400401C4A
:1036400010B9002084F8440094F94500401C10B9DA
:10365000002084F84500FFF72DFB03A9684600F021
:103660001FF940BB2046FEF7BBFFF0B1206838B918
:10367000FFF70EFBA06800F0E7FC8046FFF71AFB9F
:1036800004F124000399FFF7BBFB2046FFF778F90C
:1036900000F0CAFD00289BD14FF08050134908600C
:1036A000BFF34F8FBFF36F8F92E72046FFF768F9A4
:1036B00000F0BAFD8CE72046FFF762F900F0B4FD98
:1036C0002046FEF78DFF002882D0B8F1000F0BD006
:1036D000FFF7DEFA2046FEF709FE06463146A068EF
:1036E000FFF7C4FBFFF7E6FA002092E704ED00E0E5
:1036F0002DE9FE4F04460E4690469946DDF830A06F
:10370000B8F1010F01D1012700E0002706B9012619
:1037100004F12500844206D2641C04F12400FFF762
:10372000C1F9054600E0002545B13346224605F1C2
:10373000240128468DE88006FEF766FE2846BDE88F
:10374000FE8F2DE9F84F05468A46934698462F4648
:103750004FF00009387F00F0010008B1042600E0B6
:103760000026B8F1000F21D0FFF792FA3846FEF795
:10377000F7FC0446B44206D80021084600F0C0FA1F
:1037800000F034FB3861FFF795FAB44212D80023F9
:103790001A4619461846CDF8008000F0D1FA0020EC
:1037A00038613846FEF7DCFC044603E03846FEF795
:1037B000D7FC0446B44219D923465A4651463846E6
:1037C000FFF734F88146B9F1000F0FD0FFF7FCFB8B
:1037D000686948B100200090686900231A461946BC
:1037E00000F0F0F80020686100F01EFD4846BDE8DA
:1037F000F88F2DE9FE4F05468B46904699462C469C
:10380000C246207F00F0010008B10AF1040A2046F8
:1038100000F032F80290CDF800A04246594620460A
:10382000029BFFF712F906461EB32046FEF798FCEE
:10383000E16888421DD300BF1021EFF3118081F3AE
:103840001188BFF34F8FBFF36F8F00BF074620690A
:1038500050B10020CDE90009206900231A4619461D
:1038600000F054F90020206100BF87F3118800BFE9
:1038700000BF3046BDE8FE8F30B50246114600BF9E
:103880000B680D688C6860194C68001B0C689C42C2
:10389000F6D1401E8C68844201D88C68001B30BD74
:1038A00070B506460C46FFF7F3F9134802687068D6
:1038B000131A2068401C08B9002519E00F49306828
:1038C0000968884206D07068904203D8012500201C
:1038D00020600DE02068984207D92068C01A206057
:1038E0003046FFF77BFA002502E00020206001252A
:1038F000FFF7E0F9284670BDA4000020B8000020C2
:103900002DE9FF4F85B0804689461746DDE912ABA9
:10391000B800FFF7C7F8064676B15C20FFF7C2F89B
:1039200004462CB15C212046FCF786FE266304E0A9
:103930003046FFF7CFF900E000248CB1002084F876
:103940005900CDE900ABCDE902403A464946404630
:10395000089BFEF76EFD2046FEF78EFB012501E079
:103960004FF0FF35284609B0BDE8F08F2DE9F04F44
:1039700085B00746884691469A46DDE90EB6109C0A
:10398000CCB1C6B125465C212846FCF755FE2E6316
:10399000022085F85900002004A953464A46CDE983
:1039A00000B1CDE9025041463846FEF742FD2846B7
:1039B000FEF762FB01E000200490049805B0BDE82A
:1039C000F08F00002DE9F05F81460D4616461F4638
:1039D000DDF828A04FF0010B4C46FFF759F9BAF17A
:1039E000000F05D004F1540050F82500CAF800007B
:1039F00004F1580010F8058002214155052F29D205
:103A0000DFE807F027030D171C0004F1540050F8FD
:103A10002500304304F1540141F825001BE004F176
:103A2000540050F82500401C04F1540141F82500D1
:103A300011E004F1540040F825600CE0B8F1020FE9
:103A400004D004F1540040F8256001E04FF0000B71
:103A500001E000E000BF00BFB8F1010F49D160698B
:103A6000D4E902128A60D4E902214A60211D426829
:103A70008A4201D1E1684160002262610168491E09
:103A800001601E49E06A0968884202D91B49E06A60
:103A90000860E16A01EB8101194A02EB8101486883
:103AA000A0608268E260211D826851608160E16AE5
:103AB00001EB8101124A02EB81026261E16A01EBD2
:103AC00081010F4A52F82110491CE26A02EB82027E
:103AD0000B4B43F822100B49E06A0968C96A884217
:103AE00007D94FF0805008490860BFF34F8FBFF3EC
:103AF0006F8FFFF7DFF85846BDE8F09FA800002061
:103B0000742E00209000002004ED00E02DE9F04F1D
:103B100005460C46DDE909674FF00109294600BF5B
:103B20004FF0100AEFF311808AF31188BFF34F8F23
:103B3000BFF36F8F00BF804626B101F1540050F8EB
:103B40002400306001F1580010F804C04FF0020A60
:103B500000F804A0052B29D2DFE803F027030D1796
:103B60001C0001F1540050F82400104301F1540AE4
:103B70004AF824001BE001F1540050F82400401CD6
:103B800001F1540A4AF8240011E001F1540040F810
:103B900024200CE0BCF1020F04D001F1540040F8E5
:103BA000242001E04FF0000901E000E000BF00BF69
:103BB000BCF1010F7ED14C48006800285CD14869F7
:103BC000D1E902ABCAF808B0D1E902BACAF804B028
:103BD00001F1040AD0F804B0D34503D1D1F80CA008
:103BE000C0F804A04FF0000BC1F814B0D0F800A04A
:103BF000AAF1010AC0F800A0DFF8F0A0C86ADAF85C
:103C000000A0504504D9DFF8E4A0C86ACAF8000053
:103C1000D1F82CA00AEB8A0ADFF8D4B00BEB8A0AA1
:103C2000DAF804008860D0F808B0C1F80CB001F1EF
:103C3000040AD0F808B0CBF804A0C0F808A0D1F866
:103C40002CA00AEB8A0ADFF8A8B00BEB8A0BC1F8AC
:103C500014B0D1F82CA00AEB8A0ADFF894B05BF814
:103C60002AA00AF1010AD1F82CB00BEB8B0BDFF87C
:103C700080E04EF82BA01CE0DFF878A0DAF8040012
:103C8000C861D0F808B0C1F820B001F1180AD0F826
:103C900008B0CBF804A0C0F808A0DFF858B0C1F80D
:103CA00028B0DA46DAF800A00AF1010ACBF800A041
:103CB00000BF00E010E0DFF840A0C86ADAF800A01A
:103CC000DAF82CA0504507D90FB101203860012047
:103CD000DFF828A0CAF8000000BF88F3118800BFF1
:103CE0004846BDE8F08F0000CC000020A80000206E
:103CF000742E0020FC32002090000020B400002030
:103D00002DE9F04106460C4616B90C48006800E063
:103D100030460746FEF7BCFF07F15800005D022859
:103D200005D1002107F158000155012500E00025CB
:103D3000FEF7C0FF2846BDE8F0810000900000209B
:103D40002DE9F04704460F4690461D46DDF82090C9
:103D5000FEF79EFF234800685830005D02281AD005
:103D600020490968543101EB84000168B9430160BE
:103D700001211C48006858300155B9F1000F0AD0E4
:103D80004846FEF727F94FF0805017490860BFF307
:103D90004F8FBFF36F8FFEF78DFFFEF779FF2DB1C9
:103DA00010480068543050F8240028600D4800681E
:103DB0005830005D022801D0002609E00949096851
:103DC000543101EB8400016821EA080101600126F9
:103DD00000210448006858300155FEF76BFF30465B
:103DE000BDE8F0879000002004ED00E0014908687C
:103DF00070470000900000200549096809B90120BA
:103E000005E00449096809B9022000E00020704774
:103E1000AC000020CC000020014908687047000079
:103E2000A40000202DE9F041002757480068002831
:103E30007DD156480068451C544805608DB95448EA
:103E4000D0F8008053480068514908605148C0F8D4
:103E5000008051480068401C4F490860FEF728FD6B
:103E600000BF4E480068854275D300BF48480068CF
:103E7000006808B9012000E0002020B14FF0FF30B9
:103E80004649086066E042480068C068C4686668E1
:103E9000B54202D2414806605CE06069D4E9021292
:103EA0008A60D4E902214A60211D42688A4201D118
:103EB000E1684160002262610168491E0160A06AF8
:103EC00098B1A06AD4E907128A60D4E907214A6050
:103ED00004F1180142688A4201D1216A416000223E
:103EE000A2620168491E016000BF2D49E06A0968AD
:103EF000884202D92A49E06A0860E16A01EB81013F
:103F0000284A02EB81014868A0608268E260211DB6
:103F1000826851608160E16A01EB8101214A02EB14
:103F200081026261E16A01EB81011E4A00E022E048
:103F300052F82110491CE26A02EB8202194B43F845
:103F400022101949E06A0968C96A88428ED9012796
:103F50008CE700E000BF14480068C06A00EB8000F6
:103F6000104951F82000012800D901270F480068A6
:103F700000B1012704E00E480068401C0C490860AD
:103F80003846BDE8F0810000CC000020A4000020ED
:103F90009400002098000020B8000020C0000020FD
:103FA000A8000020742E002090000020B400002003
:103FB000B000002070B505462C460026002D3CD0F0
:103FC000206D401E2065E16CE06A884235D0206D8E
:103FD00098BB201DFEF7FEFDE06CE062E06AC0F1D8
:103FE0003800A0611649E06A0968884202D914497C
:103FF000E06A0860E16A01EB8101124A02EB81018B
:104000004868A0608268E260211D8268516081601A
:10401000E16A01EB81010B4A02EB81026261E16A14
:1040200001EB8101074A52F82110491CE26A02EBB8
:104030008202044B43F822100126304670BD000076
:10404000A8000020742E002070B505462C460026DE
:10405000002D5CD02F49E06A0968C96A88424FD2B6
:10406000A06900F0004028B92A480068C06AC0F181
:104070003800A061E16A01EB8101274A02EB81016E
:104080006069884201D1012000E0002088B3201D32
:10409000FEF7A0FD1F480068C06AE0621F49E06AA1
:1040A0000968884202D91D49E06A0860E16A01EBAB
:1040B0008101194A02EB81014868A0608268E260D0
:1040C000211D826851608160E16A01EB8101124A21
:1040D00002EB81026261E16A01EB81010E4A52F852
:1040E0002110491CE26A02EB82020B4B43F82210BA
:1040F00004E0FFE707480068C06AE062012606E0C6
:104100000449E06C0968C96A884200D20126304639
:1041100070BD000090000020742E0020A800002038
:1041200070B50346D868C168886AD1E90745A560BB
:10413000D1E90754656001F118044568A54201D131
:104140000C6A446000258D620468641E0460304877
:10415000006800283CD14869D1E90245A560D1E951
:10416000025465600C1D4568A54201D1CC684460CD
:1041700000254D610468641E0460264CC86A2468EA
:10418000A04202D9234CC86A2060CC6A04EB8404A4
:10419000214D05EB8404606888608568CD600C1D46
:1041A00085686C608460CC6A04EB84041A4D05EB6E
:1041B00084054D61CC6A04EB8404174D55F8244006
:1041C000641CCD6A05EB8505134E46F8254010E0CA
:1041D000124C6068C86185680D6201F11804856839
:1041E0006C6084600D4D8D622C462468641C2C60CC
:1041F00000BF0B4CC86A2468E46AA04204D90122BB
:104200000120084C206000E00022104670BD000034
:10421000CC000020A8000020742E0020FC320020DA
:1042200090000020B400002070B500240026FEF7A6
:104230002FFD4A480068401E48490860084600684B
:1042400000287DD146480068002879D05AE04548CA
:10425000C068C468A06AD4E907128A60D4E907215B
:104260004A6004F1180142688A4201D1216A416022
:104270000022A2620168491E01606069D4E902124D
:104280008A60D4E902214A60211D42688A4201D134
:10429000E1684160002262610168491E01603249A3
:1042A000E06A0968884202D92F49E06A0860E16A39
:1042B00001EB81012D4A02EB81014868A060826810
:1042C000E260211D826851608160E16A01EB810139
:1042D000264A02EB81026261E16A01EB8101234A15
:1042E00052F82110491CE26A02EB82021F4B43F88C
:1042F00022101F49E06A0968C96A884202D3012076
:104300001C4908601748006808B9012000E0002037
:1043100000289CD00CB1FEF7CBFA1748056865B1B0
:1043200000BFFFF77FFD10B10120124908606D1E2C
:10433000002DF6D10020104908600E48006800E00A
:1043400008E038B1012630070C490860BFF34F8FF1
:10435000BFF36F8FFEF7AEFC304670BDCC0000207F
:10436000A0000020FC320020A8000020742E0020B5
:1043700090000020B4000020B000002004ED00E018
:1043800010B586B00024FDF7F7FE10480068D0B1E4
:1043900000200590049003AA04A905A8FEF740FC9C
:1043A0002822DDE904100023CDE90021029008A1B4
:1043B0000948039AFFF7DAFA0849086008460068D6
:1043C00000B1012400BF204606B010BDD800002077
:1043D000546D72205376630067290000DC000020D2
:1043E00010B500290AD00878002807D0054878447D
:1043F000FCF754FA002801D0002010BD0248784490
:1044000010BD0000460500003E0500004FF0407062
:10441000E1EE100A70470000B04800000000000004
:10442000000000000000000000000000000000008C
:10443000C448000000000000000000000000000070
:104440000000000000000000D8480000000000004C
:10445000000000000000000000000000000200005A
:10446000180000000000000000000000E448000008
:10447000000000000000000000000000000000003C
:104480000002000018000000000000000000000012
:10449000F0480000000000000000000000000000E4
:1044A00000000000000200001800000000000000F2
:1044B000000000000049000000C0004000D00040A3
:1044C00000E00040001800F0011800F0021800F0B1
:1044D00000688909001C4E0E40420F0000201C009D
:1044E00080841E0000802500999E36000040380020
:1044F00000093D0000803E0000004B00404B4C0096
:1045000000204E00808D5B0000C05D0000807000C8
:1045100000127A0000007D0080969800001BB70012
:104520000080BB00C0E8CE00647ADA000024F4000A
:104530000000FA0080A81201002D310100366E0142
:1045400040787D01400000000000000000010000F4
:104550003E0008000000000000010000A000000074
:1045600002000000000100003454010000000000BF
:10457000000100002B700600000000000001000098
:1045800028000000000000000001000027000100DA
:1045900000000000000100002000000000000000FA
:1045A00000010000500000000200000000010000B7
:1045B0001AAC000000000000000100001794090080
:1045C0000000000000010000169805000000000037
:1045D00000010000140000000000000000010000C5
:1045E000138008000000000000010000A00000008F
:1045F00008000000000100001000000000000000A2
:10460000000100002800000002000000000100007E
:1046100040000000040000000001000060000000F5
:1046200000000000000100005D000C000000000020
:104630000001000050000000000000000001000028
:104640004E000200000000000001000041AC01002B
:1046500000000000000100003C000000000000001D
:10466000000100003A800900000000000001000085
:1046700030000000000000000001000028000000E1
:104680000000000000010000270001000000000001
:10469000000100002360060000000000000100008F
:1046A0002160080000000000000100001E00000062
:1046B00000000000000100001DC004000000000018
:1046C0000001000050000000020000000001000096
:1046D00018000000000000000001000014000000AD
:1046E0000000000000010000600000000400000065
:1046F000000100000024F40030003000005A620283
:104700009100910000879303D200D20000B4C4044A
:104710001301130100E1F50554015401000E2707B0
:104720009501950100C000401500000000D0004038
:104730001600000000E000403100000000F00040E2
:104740004B000000000001404C0000000010014040
:104750004D000000002001404E00000000300140EC
:104760004F00000000C000401500000000D00040D5
:104770001600000000E000403100000000F00040A2
:104780004800000000000140490000000010014006
:104790004A000000002001404B00000000300140B2
:1047A0004C000000000700000006000000050000AB
:1047B00000040000000300000002000000010000EF
:1047C000000000000000000018ED00E01CED00E01B
:1047D00020ED00E000E400E004E400E008E400E094
:1047E0000CE400E010E400E014E400E018E400E071
:1047F0001CE400E020E400E024E400E028E400E021
:104800002CE400E030E400E034E400E038E400E0D0
:104810003CE400E040E400E044E400E048E400E080
:104820004CE400E050E400E054E400E058E400E030
:104830005CE400E060E400E064E400E068E400E0E0
:104840006CE400E070E400E074E400E078E400E090
:104850007CE400E080E400E084E400E088E400E040
:1048600000E100E004E100E008E100E00CE100E02C
:1048700010E100E080E100E084E100E088E100E098
:104880008CE100E090E100E000E200E004E200E002
:1048900008E200E00CE200E010E200E080E200E06C
:1048A00084E200E088E200E08CE200E090E200E0D8
:1048B000454C455641544F525F4D47525F51554507
:1048C00055450000454C455641544F525F54585F82
:1048D0005155455545000000454C455641544F52F1
:1048E0005F525800454C455641544F525F54580052
:1048F000454C455641544F525F4D47520000000011
:104900003031323334353637383961626364656645
:1049100000000000444A0000000000206C06000077
:10492000A8020000744A00006C060020F42F00006A
:10493000040300001001000043000000F8FFFFFF27
:1049400000404040404040404040414141414140A2
:104950004040404040404040404040404040404057
:1049600040050202020202020202020202020202E6
:1049700002202020202020202020200202020202EB
:104980000202909090909090101010101010101043
:10499000101010101010101010101010020202024F
:1049A0000202888888888888080808080808080893
:1049B000080808080808080808080808020202028F
:1049C00040000000000000000000000000000000A7
:1049D00000000000000000000000000000000000D7
:1049E00000000000000000000000000000000000C7
:1049F00000000000000000000000000000000000B7
:104A000000000000000000000000000000000000A6
:104A10000000000000000000000000000000000096
:104A20000000000000000000000000000000000086
:104A30000000000000000000000000000000000076
:104A400000000000013C00141D6563646162636442
:104A500065666768696A6B6C6D6E6F70051C80F0C7
:104A6000FA021AAA01013802FF3701FF01FF01FF14
:044A700001FF01A899
:040000050000042DC6
:00000001FF
