:020000040000FA
:1000000090300020DD030000E5030000E70300005E
:10001000E9030000EB030000ED0300000000000016
:1000200000000000000000000000000015030000B8
:10003000F103000000000000710300004510000003
:10004000F7030000F9030000FB030000FD030000BC
:10005000FF03000001040000030400000504000089
:1000600007040000090400000B0400000D04000058
:100070000F04000011040000130400001504000028
:1000800017040000190400001B0400001D040000F8
:100090001F040000210400002304000025040000C8
:1000A00027040000290400002B0400002D04000098
:1000B0002F04000031040000330400003504000068
:1000C00037040000390400003B0400003D04000038
:1000D0003F04000041040000430400004504000008
:1000E0004704000049040000000000004B04000029
:1000F0004D0400004F0400005104000053040000B0
:100100005504000057040000590400005B0400007F
:1001100000000000000000005D0400005F0400001B
:10012000610400006304000065040000670400002F
:10013000690400006B0400006D0400006F040000FF
:1001400000000000000000000000000000000000AF
:1001500071040000730400007504000077040000BF
:10016000000000000000000000000000000000008F
:10017000000000000000000000000000000000007F
:10018000000000000000000000000000000000006F
:10019000000000000000000000000000000000005F
:1001A000000000000000000000000000000000004F
:1001B000790400007B0400007D0400007F0400003F
:1001C000810400008304000085040000870400000F
:1001D000890400008B0400008D0400008F040000DF
:1001E000910400009304000095040000000000004A
:1001F0000000000097040000990400009B04000028
:100200009D0400009F0400000000000000000000AA
:10021000A1040000A3040000A5040000A70400003E
:10022000A9040000AB040000AD040000AF0400000E
:10023000B1040000B3040000B5040000B7040000DE
:10024000B9040000BB040000BD040000BF040000AE
:10025000C1040000C3040000C5040000C70400007E
:10026000C9040000CB040000CD04000000F002F837
:1002700000F03CF80AA090E8000C82448344AAF104
:100280000107DA4501D100F031F8AFF2090EBAE802
:100290000F0013F0010F18BFFB1A43F001031847BA
:1002A000B4330000D4330000103A24BF78C878C1BA
:1002B000FAD8520724BF30C830C144BF04680C606C
:1002C000704700000023002400250026103A28BFB4
:1002D00078C1FBD8520728BF30C148BF0B607047B8
:1002E0001FB502F0F9FF1FBD10B510BD00F0CBF92E
:1002F000114603B400F0A5FF03BCFFF7F1FF00F0C7
:10030000A9FF00F0E5F903B4FFF7EEFF03BC00F02E
:10031000EDF900002C4B19680868B0E8F04F80F345
:100320000988BFF36F8F4FF0000080F3118870478A
:100330000000000008480068006880F308884FF05B
:10034000000080F3148862B661B6BFF34F8FBFF32D
:100350006F8F00DF00BF00BF08ED00E0DFF80C008A
:10036000016841F470010160704700BF88ED00E052
:10037000EFF30980BFF36F8F134B1A681EF0100F55
:1003800008BF20ED108A20E9F04F106009B44FF04B
:10039000100080F31188BFF34F8FBFF36F8F02F00F
:1003A00089F84FF0000080F3118809BC19680868CB
:1003B000B0E8F04F1EF0100F08BFB0EC108A80F3C9
:1003C0000988BFF36F8F704778000020EFF3058036
:1003D000704700000138FDD1704700003F4880475A
:1003E0003F480047FEE7FEE7FEE7FEE7FEE7FEE7E1
:1003F000FEE7FEE7FEE7FEE7FEE7FEE7FEE7FEE7D5
:10040000FEE7FEE7FEE7FEE7FEE7FEE7FEE7FEE7C4
:10041000FEE7FEE7FEE7FEE7FEE7FEE7FEE7FEE7B4
:10042000FEE7FEE7FEE7FEE7FEE7FEE7FEE7FEE7A4
:10043000FEE7FEE7FEE7FEE7FEE7FEE7FEE7FEE794
:10044000FEE7FEE7FEE7FEE7FEE7FEE7FEE7FEE784
:10045000FEE7FEE7FEE7FEE7FEE7FEE7FEE7FEE774
:10046000FEE7FEE7FEE7FEE7FEE7FEE7FEE7FEE764
:10047000FEE7FEE7FEE7FEE7FEE7FEE7FEE7FEE754
:10048000FEE7FEE7FEE7FEE7FEE7FEE7FEE7FEE744
:10049000FEE7FEE7FEE7FEE7FEE7FEE7FEE7FEE734
:1004A000FEE7FEE7FEE7FEE7FEE7FEE7FEE7FEE724
:1004B000FEE7FEE7FEE7FEE7FEE7FEE7FEE7FEE714
:1004C000FEE7FEE7FEE7FEE7FEE7FEE7FEE70000E9
:1004D00004480549034A054B704700005D100000C1
:1004E0006D020000902E002090300020902E002001
:1004F000032A40F2308010F0030C00F0158011F850
:10050000013BBCF1020F624498BF11F801CB00F827
:10051000013B38BF11F8013BA2F1040298BF00F87B
:1005200001CB38BF00F8013B11F0030300F07980E4
:10053000083AC0F0088051F8043B083A51F804CB5F
:10054000A0E80810F5E7121D5CBF51F8043B40F825
:10055000043BAFF30080D20724BF11F8013B11F830
:1005600001CB48BF11F8012B24BF00F8013B00F874
:1005700001CB48BF00F8012B704702F0FF0343EAAC
:10058000032242EA024200F002B84FF000020429BE
:10059000C0F0128010F0030C00F01B80CCF1040CB2
:1005A000BCF1020F18BF00F8012BA8BF20F8022BE6
:1005B000A1EB0C0100F00DB85FEAC17C24BF00F88C
:1005C000012B00F8012B48BF00F8012B70474FF0BA
:1005D000000200B5134694469646203922BFA0E893
:1005E0000C50A0E80C50B1F12001BFF4F7AF09079F
:1005F00028BFA0E80C5048BF0CC05DF804EB890090
:1006000028BF40F8042B08BF704748BF20F8022BD2
:1006100011F0804F18BF00F8012B704770477047EA
:10062000704710B5203AC0F00B80B1E81850203A5E
:10063000A0E81850B1E81850A0E81850BFF4F5AF82
:100640005FEA027C24BFB1E81850A0E8185044BF0C
:1006500018C918C0BDE810405FEA827C24BF51F879
:10066000043B40F8043B08BF7047D20728BF31F86D
:10067000023B48BF11F8012B28BF20F8023B48BFBE
:1006800000F8012B7047754600F02CF8AE460500C7
:100690006946534620F00700854618B020B5FFF79D
:1006A00017FFBDE820404FF000064FF000074FF065
:1006B00000084FF0000B21F00701AC46ACE8C00980
:1006C000ACE8C009ACE8C009ACE8C0098D46704789
:1006D00010B50446AFF300802046BDE81040FFF798
:1006E00012BE0000004870472C2E0020014918203F
:1006F000ABBEFEE726000200704710B502460020A0
:10070000137D052B07DA147D02F10E031955137DB5
:100710005B1C1375012010BD10B502460020D37C70
:10072000052B07DAD47C02F109031955D37C5B1C35
:10073000D374012010BD70B505460C4620780328FF
:1007400002D0207804280CD1617A284600F064F8A1
:1007500038B12078032804D1627A61780C2000F047
:1007600013F970BD70B54FF08070406C81692648F8
:10077000884700BF4FF08070406CD0F88C10224842
:1007800088470028F6D04FF08070406C81691F4880
:10079000884700BF4FF08070406CD0F88C101B4829
:1007A00088470028F6D04FF08071496C086E80476A
:1007B00005464FF08070406960234FF4E1322946CE
:1007C00044691348A0474FF08070006A816E012091
:1007D00088474FF08070006A816E40F20140884780
:1007E0004FF08070006A0321426D4FF04020904727
:1007F0000521074800F07EFC064A4FF4E131002055
:1008000000F07CFC70BD0000000800F0001800F053
:1008100000C000400024F40070B505460C460026D8
:100820000F2C0DDC6878A04205DA21462846FFF738
:1008300073FF064604E021462846FFF75EFF0646A2
:10084000304670BD70B50546687D012811D1E87C41
:10085000002804DD284600F001FA04461FE0287D48
:10086000002804DD284600F0E2F9044617E0FF24E2
:1008700015E0687D022811D1287D002804DD284676
:1008800000F0D5F904460AE0E87C002804DD28469B
:1008900000F0E4F9044602E0FF2400E0FF242046D3
:1008A00070BD000070B505460D4805600068006821
:1008B0000C4908600A48006840680B4908600B4A08
:1008C00000210B4800F040FE0A4908600846006815
:1008D00010B94FF0FF3400E00024204670BD000046
:1008E0003C00002040000020440000205C33000059
:1008F000B10900003800002010B500243FE00120BD
:1009000004EB44011F4A02F83100002004EB4401CB
:1009100002EBC101487004EB440102EBC1014860E5
:10092000FF2004EB440102EBC101087204EB440117
:1009300002EBC10101F10900FF220521FFF71DFEB5
:1009400004EB44010F4A02EBC10101F10E00FF224A
:100950000521FFF712FE002004EB4401094A02EBD7
:10096000C1014875012004EB440102EBC101887507
:10097000FF222146052000F007F8601CC4B2032CBA
:10098000BDDB10BDCC000020F8B506460C46154670
:100990008DF800608DF801408DF80250642300222C
:1009A00069460248006800F08BFDF8BD4400002055
:1009B0000EB5FFF7A1FF00BF4FF0FF3300226946DD
:1009C0006348006800F0FAFC00287CD19DF80160C3
:1009D00006EB46005F4901EBC0049DF8005020780B
:1009E000012806D0022822D0032847D004286BD142
:1009F00087E000206075032D01D0042D16D16078AA
:100A00009DF80910884211D09DF809002072032D2D
:100A100005D19DF8092031460C20FFF7B5FFFF22D4
:100A200031460720FFF7B0FF022020708CE06946B6
:100A30002046FFF780FE022D1FD19DF808004628B2
:100A40001BD16078217A884207DDFF2231460920D8
:100A5000FFF79AFF0220607506E0FF22314608206A
:100A6000FFF792FF01206075FF2231460B20FFF750
:100A70008BFF0020A0750320207065E069462046AA
:100A8000FFF759FE607D022808D1217A40F27122D9
:100A900011FB02F16068B0EBC10F0BD9607D01283A
:100AA00025D1217A40F2712211FB02F16068B0EB8E
:100AB000C10F1CD3FF2231460A20FFF765FF227ABF
:100AC00031460D2001E040E03DE0FFF75DFFFF22F1
:100AD00031460620FFF758FF207A6070207A41F2F5
:100AE000883110FB01F060600420207004E0FF22D8
:100AF00031460B20FFF748FF012D01D101986060BE
:100B000022E069462046FFF716FE022D1AD19DF815
:100B10000800412816D10120A0752046FFF792FE5B
:100B20002072207AFF2802D1012020700AE041F2D1
:100B3000883000F0E5FBFF2231460720FFF724FF55
:100B40000220207000E000BF36E700F059FD33E7D7
:100B500040000020CC00002070B505460A48056022
:100B60000068006809490860094A0021094800F046
:100B7000EBFC094908600846006810B94FF0FF34E3
:100B800000E00024204670BD200000202800002046
:100B9000143300009D0B00001C00002008B500BFAE
:100BA0004FF0FF33002269460448006800F006FC5D
:100BB0000028F5D000F024FDF2E70000240000201A
:100BC00070B505460A480560006800680949086074
:100BD000094A0021094800F0B7FC094908600846A5
:100BE000006810B94FF0FF3400E00024204670BDCB
:100BF000300000203400002038330000050C0000D5
:100C00002C00002008B500BF4FF0FF3300226946DA
:100C10000448006800F0D2FB0028F5D000F0F0FC9A
:100C2000F2E700003400002040F82120704770B542
:100C30000446A57B207D401E2075207D30B9FF2213
:100C4000052104F10E00FFF798FC05E0227D04F178
:100C50000F01481EFFF74CFC284670BD70B50446D6
:100C6000657AE07C401EE074E07C30B9FF2205210B
:100C700004F10900FFF781FC05E0E27C04F10A01C0
:100C8000481EFFF735FC284670BD70B54FF00005D3
:100C900000BFEFF3058008B101250DE002F028F850
:100CA0000446012C08D000BFEFF3108018B900BF34
:100CB000EFF3118000B10125284670BD10B5144A2C
:100CC0000C210A2000F0BCFB12490860124A0321E3
:100CD0000A2000F0B5FB114908600E48006810B109
:100CE0000846006810B94FF0FF340FE0094800686B
:100CF0000B490860074800680A490860074800680F
:100D0000486006480068084908600024204610BD75
:100D1000E432000004000020FC320000100000203B
:100D200018000020080000201400002010B5002446
:100D30000648FFF7B7FD04430548FFF70DFF0443DE
:100D40000448FFF73DFF0443204610BD0800002083
:100D500018000020140000202DE9F003AF4D0246DA
:100D60002868AF4B1840A0F18053B3F5A02359D0A9
:100D700002F03809DFF8AC82C2F38414B9F1100F25
:100D800025D0B9F1300F04BF47F230504FF40013B3
:100D90000DD04FF03800904304BF4FF40040C30122
:100DA00005D012F0380F1CBF0020034613D09E4F11
:100DB00012F4605F4FF0000618BF00222CD057F8E5
:100DC000324044457DD307EBC2025268E1E0002384
:100DD00040461524EBE7A4F10900122822D29348DB
:100DE000D5F87CC04FF04C7350F824002CF01C0C4C
:100DF000072CA8BF4CF0100CC5F87CC02E6D4FF42A
:100E0000002C16F4807FD2D1BCF1010C0AD02E6DDB
:100E100016F4807FF8D0CAE712F0380F18BFB9F186
:100E2000100F04D0BDE8F0034FF000007047C2F38C
:100E30000268DFF8FCC14FF0000257F83290E1453C
:100E400003D307EBC202526803E0521C062AF4D314
:100E50003246C5F8C020D5F8B020DFF8D8C102EA84
:100E60000C0242F00042C5F8B020DFF8CCC1A4F17A
:100E700009024C1E5CF828C0A444BCFBF1FCD5F868
:100E8000B0101943C5F8B01008EBC80101EB4104DC
:100E90006A4902EB420201EBC40101EB820464687F
:100EA000C5F86441D5F864416FF0FF0808EB0C2CDD
:100EB00044EA0C0CC5F864C151F82210D5F8602141
:100EC00000E061E002F400021143C5F86011D5F8BA
:100ED0006011D5F86021C1F38921C2F30904D5F866
:100EE0006421C2F3042202F1010CD5F8642102F05E
:100EF0001F02521CB0FBF2F04A09C2F10008444341
:100F0000424301EB481104EB5212484302EB90209C
:100F1000B0FBFCF041080846002257F832C0844577
:100F200003D307EBC200466802E0521C062AF4D342
:100F3000C5F8C060D5F8600110F4000F1DBFD5F8EA
:100F4000B00040F08040C5F8B000D5F8600104BFA3
:100F500040F40000C5F860014FF40040D5F8682166
:100F600012F0010F02D1401E0028F7DC002808BF54
:100F7000002148D0D5F8B000184340F0010040F0FF
:100F80001040C5F8B0003EE0521C062AFFF417AF2F
:100F90003246C5F8C020D5F8602122F40002C5F819
:100FA0006021D5F8B020DFF898C002EA0C0242F0C8
:100FB0000042C5F8B020002908BF4FF0000C0AD04D
:100FC000B0FBF1FCBCF1000F18BFACF1010C0CF14F
:100FD0000101B0FBF1F10846002257F8324084428B
:100FE00003D307EBC200466802E0521C062AF4D382
:100FF000C5F8C060D5F8B00043EA8C22104340F039
:101000000040C5F8B000D5F8B00020F47000C5F875
:10101000B000BDE8F00308467047000000E00F4054
:101020000000FF700024F400C0350000A43300006D
:1010300040787D0100FC0FE09C330000103400007C
:10104000FF0300EF10B54FF0E020006901F050FE03
:10105000012801D001F0AAFA10BD00001B4909685F
:1010600041F47001194A116019491A4A11671A4965
:1010700011661A4911661A491167002000E0401CE8
:10108000B0F57A7FFBD31749124A116616491167EA
:10109000002000E0401CB0F57A7FFBD313490D4AD5
:1010A000116600BF0B49096D01F040014029F9D1DB
:1010B0000F49084A11664FF0C0711167002000E027
:1010C000401C42F210718842FAD3704788ED00E06C
:1010D0001028800700E00F40D13A8E07422D9E0174
:1010E00000288001420D9E0100088001420DDE01B2
:1010F0004205DE01C0F8C81F704700002DE9F0412D
:1011000004460D461646154A52F824004FF08072E8
:10111000526C1169884708B9BDE8F081104850F851
:101120002400104908600D4A52F824004FF08072E4
:10113000526C916988474FF08070406960232A465D
:101140003146476907480068B8474FF080704069EA
:10115000C16904480068884700BFDDE7903300009C
:10116000843300004800002010B5044600F05CFA0B
:1011700038B100F067F820B14FF0FF31206801F07E
:101180008DFC10BD70B50546286801F04BF80024B1
:101190000BE0084951F824102868884204D1002047
:1011A000044941F8240002E0641C052CF1D300BF7F
:1011B00070BD00009404002070B50446002020603B
:1011C000002514E0154850F8250078B905EB850096
:1011D000134A02EB0011012001F013FA0F4941F804
:1011E0002500084650F82500206002E06D1C052D02
:1011F000E8D300BF206830B900F016FA18B101201A
:1012000001F0EEF92060002080F3118800BF206813
:1012100008B9002070BD0120FCE700009404002004
:101220000403002010B5044600F0FEF940B100F0C0
:1012300009F828B100231A461946206801F08EFAF1
:1012400010BD704700BFEFF3058008B9012070475B
:101250000020FCE700244FF08071896F0869804707
:1012600023492448FFF778FD23490860FFF77AFAFD
:101270004FF08071896B486880474FF08071896CAE
:101280004868804700F04CF8FFF718FD0443FFF76B
:101290004DFD04434CB94FF08070006A082211469E
:1012A00003681648984700F055F81FE00022022115
:1012B0001248FFF7B9FC4FF08071496C086E804707
:1012C0000621B0FBF1F52846FFF784F8022211460B
:1012D0000A48FFF7A9FC4FF08071496C086E8047FF
:1012E0000621B0FBF1F52846FFF774F8DEE70000B1
:1012F000000E2707800600F1000000200050024089
:1013000070B50546FFF7C1FC10B16FF0050404E0AD
:10131000002415B1284600F0B5FF204670BD00003E
:1013200070B5FFF7B2FC10B16FF005040EE001F0EC
:10133000DFFC0546012D07D10548006820B90120D2
:1013400003490860002401E04FF0FF34204670BDDF
:101350005000002070B5FFF798FC10B16FF0050445
:1013600024E001F0C5FC0546012D1DD110480068A0
:10137000012819D100BF801F0021002804DB4A0783
:10138000130E0C4A135406E04A07160E0A4A00F0E0
:101390000F031B1FD65400BF00BF02200449086082
:1013A00001F032F8002401E04FF0FF34204670BD18
:1013B0005000002000E400E018ED00E02DE9F843C3
:1013C00007460D4691461C463E464FF00008FFF783
:1013D0005CFCE8B10EB105B114B16FF0030829E06F
:1013E000002000906A462946304601F011FB012892
:1013F00002D06FF002081DE000BF009838B14FF036
:1014000080500E490860BFF34F8FBFF36F8F11E01C
:1014100006B115B96FF003080CE0224629463046A4
:1014200001F074FA012805D014B16FF0010801E051
:101430006FF002084046BDE8F883000004ED00E0CC
:101440002DE9F84305460E4614464FF00008FFF715
:101450001CFC002830D1002D2ED02EB3471EBCB16D
:10146000A06858B1E068502808D3206930B105FB66
:1014700006F06169814201D301270AE0A06840B902
:10148000E06830B9206920B9606910B9002700E030
:101490000027012F09D10020009031462846A3687B
:1014A000226901F0ECF8804606E02FB900223146AF
:1014B000284601F0BBF880464046BDE8F8830000AE
:1014C0002DE9F84307460D4691461C463E464FF02F
:1014D0000008FFF7DAFBF0B10EB105B114B16FF0FF
:1014E00003082BE00020009000236A46294630467E
:1014F00001F0C0F9012802D06FF002081EE000BF21
:10150000009838B14FF080500E490860BFF34F8FFC
:10151000BFF36F8F12E006B115B96FF003080DE04D
:10152000002322462946304601F018F9012805D04B
:1015300014B16FF0010801E06FF002084046BDE809
:10154000F883000004ED00E02DE9FF47804689465E
:10155000144600200390FFF798FB00284ED1B8F105
:10156000000F4BD0802618258246471E44B32068C2
:1015700008B1D4F800A0A06900B1A5692DB1382D3B
:1015800003D8207900F0010018B1002004B0BDE8B4
:10159000F087606908B160698608A06840B1E068BA
:1015A0005C2805D3206918B1606908B1012708E0FB
:1015B000A06830B9E06820B9206910B9002700E0C0
:1015C0000027012F0CD12169A0684B463246CDE996
:1015D000005102905146404601F05EFB03900DE041
:1015E00067B903A8B2B24B465146CDE90050404618
:1015F00001F01CFB012801D0002003900398C5E7EF
:1016000010B5FFF742FB10B16FF0050408E00024AD
:101610004FF0805003490860BFF34F8FBFF36F8FC7
:10162000204610BD04ED00E010B501F061FB02287A
:1016300001D1012010BD0020FCE700002DE9F041A0
:1016400005460E462048076820480068001D00F047
:101650002FFD681CD8B9D6B11D4948681B490968D7
:1016600088601A4982680968CA6018490968091DB2
:101670008268516015490968091D8160144A13493F
:1016800009684A6111460968491C11601AE07C1911
:101690000E4800684460BC4207D20C480168091D2E
:1016A0000C48006800F047FD0CE008480168091D7F
:1016B0000948006800F03FFD08480068844201D2F4
:1016C00006480460BDE8F0818C000020780000200E
:1016D000502D0020800000207C000020A800002069
:1016E00010B5044600F042FD30480068401C2F4908
:1016F00008602F48006840B92D480460084600681B
:1017000001280DD100F0ECF90AE02A48006838B948
:1017100027480068C06AE16A884201D8244804600A
:1017200025480068401C2449086008460068606439
:101730002249E06A0968884202D92049E06A0860C3
:10174000E16A01EB81011E4A02EB81014868A06059
:101750008268E260211D826851608160E16A01EB6C
:101760008101174A02EB81026261E16A01EB8101AA
:10177000134A52F82110491CE26A02EB8202104B14
:1017800043F8221000F004FD0A48006868B10848D8
:101790000068C06AE16A884207D24FF08050094968
:1017A0000860BFF34F8FBFF36F8F10BD880000201C
:1017B0007800002094000020A40000209000002069
:1017C000A028002004ED00E008B500F0CFFC0E4892
:1017D0000068A8B90D4800F09EFC0D4800F09BFC85
:1017E0000A480C4908600A480B49086000200B4B66
:1017F0000B4A10210090052000F041FF02490860CB
:1018000000F0C6FC08BD0000C0000020642D0020D0
:10181000782D0020B8000020BC0000208C2D002076
:10182000DC2D002010B516E000F0A0FC0C48C068CC
:10183000C468201D00F03CFC0A480068401E0949AD
:10184000086009480068401E0749086000F0A0FCD5
:10185000204600F05FF8044800680028E4D110BD7D
:101860003C2D0020880000208400002070B5044634
:101870000D46206C70B1216CE0680144E160D4E950
:101880000210884201D32168E1602846226CE16899
:10189000FEF72EFE70BD2DE9F04104460F461546B9
:1018A0004FF00008A66B206C48B9206800282CD1A6
:1018B000A06801F0FBFA80460020A06025E07DB919
:1018C0003946226C6068FEF713FE216C606808449C
:1018D0006060D4E90101884217D32068606014E099
:1018E0003946226CE068FEF703FE216CE068411A7D
:1018F000E1602168E068884203D2216CA068411A47
:10190000E160022D01D106B1761E701CA063404635
:10191000BDE8F08110B5044694F8590030B9206B49
:1019200000F046FC204600F043FC06E094F8590025
:10193000012802D1204600F03BFC10BD01464A6A56
:1019400022B10A6B1268C2F1380000E00020704733
:101950000146084A126812680AB9012200E0002212
:101960000A600A6822B9034A1268D268106800E067
:1019700000207047B800002030B54FF400531548E0
:1019800000F007042CB1C01D20F00700114C041B0F
:101990001B1B0246104C226000240F4D6C60D018B7
:1019A000083820F007000D4C206000240B4D2D68F6
:1019B0006C600A4D2D682C601146441A4C60074C2F
:1019C00024680C60064D4C682C60064D4C682C60F9
:1019D00030BD0000A008002058000020600000205A
:1019E000680000206400002000BFFFF71BFF0648CE
:1019F00000680128F9D94FF0805004490860BFF30E
:101A00004F8FBFF36F8FF0E7A028002004ED00E0B8
:101A100010B5044654B10020A06020600021E160B0
:101A200000231A461946204600F098FE10BD2DE905
:101A3000F04106460D4617469846069C0DB92460AF
:101A400000E02760E66325640121204600F036FEB1
:101A500084F84C80BDE8F0812DE9F05F81460E46A8
:101A600090469A460A9F0C9C4FEA8801A522206B5B
:101A7000FEF783FDA8F10100216B01EB800B2BF039
:101A8000070B7EB1002507E0715D04F1340041557C
:101A9000705D00B902E06D1C102DF5D300BF002170
:101AA00043200155382F00D33727E762E764201D14
:101AB00000F03EFB04F1180000F03AFB2461C7F18E
:101AC0003800A061646252464946584600F0DAFA8E
:101AD00020600B9808B10B980460BDE8F09F0000EF
:101AE00010B5002407E004EB84010F4A02EB8100EB
:101AF00000F011FB641C382CF5D30C4800F00BFBF4
:101B00000B4800F008FB0B4800F005FB0A4800F00A
:101B100002FB0A4800F0FFFA04480949086004483B
:101B20000849086010BD0000A0280020002D0020FA
:101B3000142D0020282D00203C2D0020502D0020A9
:101B40007C0000208000002010B50146164800E00F
:101B5000006803688B42FBD30246436813448B4200
:101B600004D143684C682344436001460A464B68ED
:101B700013440468A34211D10C4C03682468A342A7
:101B800008D04B680468646823444B6003681B6892
:101B90000B6005E0054B1B680B6001E003680B6000
:101BA000884200D0016010BD580000206000002075
:101BB0002DE9F04104460D4616461F464FF0000839
:101BC00065602461B5420CD8F01BA169884202D33C
:101BD0004FF0010811E0211D0948006800F0ABFA40
:101BE0000BE0BE4204D2BD4202D34FF0010804E034
:101BF000211D0448006800F09EFA4046BDE8F081CF
:101C0000BC000020B800002070B5054600F0AEFA18
:101C1000A86B08B9012400E0002400F0B9FA2046BE
:101C200070BD70B5054600F0A1FAA86BE96B88425B
:101C300001D1012400E0002400F0AAFA204670BD82
:101C400070B505460E460E480068C068C468201D81
:101C500000F02EFA94F8280000F0040028B1324673
:101C60002946204600F0D0F805E094F8280000F05E
:101C7000FE0084F828002046216A884770BD0000D5
:101C8000B800002070B586B077E00298002805DA29
:101C900003AED6E90020B168904700BF0298002843
:101CA0006BDB049C606908B9012000E0002010B9DA
:101CB000201D00F0FDF901A800F0D2F805460298B9
:101CC0000A2858D2DFE800F05705072E36470608E5
:101CD0002F3700BF00BF00BF94F8280040F001007C
:101CE00084F828000398A269811803462A462046F2
:101CF000FFF75EFFA8B194F8280000F0040038B1A7
:101D00000398A26981182A46204600F07DF805E074
:101D100094F8280000F0FE0084F828002046216A8C
:101D2000884729E000BF94F8280000F0FE0084F8FE
:101D3000280021E000BF94F8280040F0010084F85A
:101D400028000398A061A06941192B462A46204625
:101D5000FFF72EFF10E094F8280000F0020018B9F9
:101D6000204600F025FA05E094F8280000F0FE0077
:101D700084F8280000E000BF00BF002202A9044848
:101D8000006800F0C3FD00287FF47FAF06B070BD8F
:101D9000C0000020F8B505460C4600F083FB6846FD
:101DA00000F05EF80646009820BB44B9B54206D85C
:101DB00001F0B6F931462846FFF742FF1CE03CB17E
:101DC0000E480068006808B9012000E000200446C1
:101DD000A91B22460A48006800F02EFA01F0A0F97B
:101DE00050B94FF0805007490860BFF34F8FBFF3E1
:101DF0006F8F01E001F094F9F8BD0000BC000020F5
:101E0000C000002004ED00E070B504460D46164603
:101E100004E0A06905442046216A8847A069411969
:101E20002B4632462046FFF7C3FE0028F1D170BD95
:101E300009480068006808B9012000E0002020B1CE
:101E40004FF0FF300549086005E003480068C068AE
:101E500000680249086070477C000020A80000204C
:101E600070B5044600F054FF0546074800688542F7
:101E700004D200F00BF80120206001E00020206077
:101E800001480560284670BDC800002070B508E014
:101E90000D480068C06804684FF0FF312046FFF726
:101EA000CFFE09480068006808B9012000E0002062
:101EB0000028EDD00448056804480068024908601D
:101EC0000248056070BD0000B8000020BC00002082
:101ED00000BF102080F31188BFF34F8FBFF36F8FC7
:101EE00000BF00BFFEE708B500BF6846FFF730FD42
:101EF000044620460099FFF74DFFFFF7C3FEF4E7C5
:101F000070B5044600F032F994F9455010E0606A6B
:101F100008B9012000E0002038B904F1240001F0E4
:101F20007BF818B100F0D4F900E003E0681E45B278
:101F3000002DECDC00BFFF2084F8450000F028F9FC
:101F400000F014F994F9445010E0206908B9012018
:101F500000E0002048B904F1100001F05DF808B17C
:101F600000F0B6F9681E45B200E001E0002DECDC9F
:101F700000BFFF2084F8440000F00AF970BD0000A3
:101F80002DE9F04705464FF0000900F08BFA304884
:101F9000006808B9FFF7F0FC75B105F00700C0F163
:101FA0001008C8F1FF30A84201D2012000E0002053
:101FB00008B9454400E00025012000EBE570002849
:101FC00041D0002D3FD02348006885423BD8224EA7
:101FD0003046046801E0264624686068A84202D2C0
:101FE00020680028F7D11A48006884422BD0306856
:101FF00000F10809206830606068401B102807D98C
:1020000067196068401B786065603846FFF79CFD83
:10201000104960680968081A0E4908600846006897
:102020000E490968884203D20A4800680B490860D3
:10203000606840F000406060002020600848006850
:10204000401C0749086001F06BF84846BDE8F0877E
:10205000600000206400002058000020680000207C
:102060006C0000200648006830B10549096801F19C
:102070005000096D491C016001480068704700006C
:1020800078000020001F4FF080730360001F21F0D4
:1020900001030360001F054B036014380260001F3A
:1020A0006FF002030360203870470000D11E00006B
:1020B00001460A69D1E901309860D1E9010358600D
:1020C0005068884201D1886850600020086110681B
:1020D000401E10601068704701480068704700009B
:1020E00088000020034B0360034B0B6080231360C8
:1020F00070470000A804002004050020034B036083
:10210000034B0B605023136070470000040700204E
:1021100060070020704700F1080141604FF0FF3177
:10212000816000F10801C160016100210160704718
:1021300000210161704710B502460B685C1C0CB9A8
:10214000106907E002F1080000E040684468246874
:102150009C42FAD944684C604C68A1608860416038
:102160000A611468641C146010BD000000BF1020D8
:1021700080F31188BFF34F8FBFF36F8F00BF034809
:102180000068401C0149086070470000740000208E
:1021900006480068401E054908600846006820B9E6
:1021A000002080F3118800BF00BF7047740000203A
:1021B00070B506463546E6B1083D2C466068C00F4E
:1021C000B8B12068A8B9606820F00040606000F0F5
:1021D00069F90849606809680844064908602046AA
:1021E000FFF7B2FC04480068401C0349086000F097
:1021F00097FF70BD640000207000002000204FF0A9
:10220000E02108618861064800684FF47A71B0FBEC
:10221000F1F0401E4FF0E02148610720086170474F
:102220005400002070B50446254695F8460010B9C4
:102230002846FFF7BDFF70BD2DE9F04105460E466B
:1022400017462C46FFF792FF94F94400401C10B942
:10225000002084F8440094F94500401C10B9002087
:1022600084F84500FFF794FFA06B28B93A46314641
:1022700004F1240000F042F82046FFF741FEBDE8DB
:10228000F081000070B50446002544B100F00AF961
:1022900000212046FFF7D2F900F042FF05463DB984
:1022A0004FF0805003490860BFF34F8FBFF36F8F2B
:1022B00070BD000004ED00E00349096801600349B6
:1022C0000968416070470000A00000208C000020D9
:1022D00001200149086070479C00002070B5054648
:1022E0000C460548016818312846FFF724FF0121F4
:1022F0002046FFF7A3F970BD7800002070B50446B2
:102300000E46154660680F490968C8610D49826824
:1023100009680A620B4909681831826851600949E5
:10232000096818318160074909688C622168491C75
:1023300021600DB14FF0FF3629463046FFF77EF998
:1023400070BD0000780000202DE9F04706460F46DA
:1023500034464FF00109002E4FD0E06CB84201D254
:102360003D4600E0E56CE06AA84246D0206D0128B9
:1023700043D1D4F82C80E562A06900F0004010B988
:10238000C5F13800A06108EB88011D4A02EB81010C
:102390006069884201D1012000E0002068B3201D5F
:1023A000FFF786FE1749E06A0968884202D9154995
:1023B000E06A0860E16A01EB8101114A02EB8101E8
:1023C0004868A0608268E260211D82685160816077
:1023D000E16A01EB81010A4A02EB81026261E16A72
:1023E00001EB8101064A52F82110491CE26A02EB16
:1023F0008202034B43F8221000BFBDE8F0870000C3
:10240000A02800209000002010B586B00020059084
:10241000049003AA04A905A8FFF764FE0022DDE9E1
:1024200004101346CDE90021029016A11748039A23
:1024300000F032FC164908600846006808B1012423
:1024400000E00024012C02D100F016FF0446012C0C
:1024500014D100BF102080F31188BFF34F8FBFF35A
:102460006F8F00BF4FF0FF300A49086001200A4912
:10247000086000200949086000F074F80848006806
:1024800006B010BD49444C4500000000E9190000A9
:10249000AC000020A8000020940000208C00002048
:1024A000B000002002480068401C014908607047E5
:1024B000B400002070B52648006818B101202549F5
:1024C000086043E000202349086023480068046B4B
:1024D0004FF0A5352068B0F1A53F0BD16068B0F191
:1024E000A53F07D1A068B0F1A53F03D1E068B0F1E6
:1024F000A53F05D01848016834310068FFF70AFE8F
:102500001648016800E0491E01EB8100144A52F8A8
:10251000200008B9012000E000200028F3D101EBE1
:1025200081020F4B03EB820042685268426000F167
:1025300008024368934202D142685268426042688E
:10254000D268054B1A600548016000BF70BD0000ED
:10255000B40000209C0000207800002090000020A3
:10256000A028002010B50E48006840F47F000C49F8
:1025700008600846006840F07F400860FFF73EFEB4
:10258000002008490860FDF7E9FE0748006840F0B0
:10259000404005490860FDF7CDFE002010BD000059
:1025A00020ED00E07400002034EF00E010B500BF23
:1025B000102080F31188BFF34F8FBFF36F8F00BFE0
:1025C00000F0ACFB18B14FF080500449086000BF28
:1025D000002080F3118800BF10BD000004ED00E072
:1025E0002DE9F04104460126002722460021012062
:1025F00000F01CF805462846FFF70AFA2846BDE811
:10260000F0812DE9F84304460D4601274FF00008FC
:102610002B46002211460120009400F030F80646B7
:102620003046FFF7F5F93046BDE8F8832DE9F84369
:1026300005460E4617460024F5B1601EB0FBF5F0C6
:10264000B04219D305FB06F010F1510F14D805FB69
:1026500006F909F15000FFF793FC044664B1A04667
:1026600008F15008002084F846003B4642463146B7
:1026700028460094FFF7DBF92046BDE8F8832DE9F2
:10268000F84380460D4616461C46DDF8209000278C
:10269000B8F1000F0FD074B106B165B106B955B9E4
:1026A0002746012087F846004B46324629464046D9
:1026B0000097FFF7BCF93846BDE8F8832DE9F041F3
:1026C00005460E4601272C46002C41D0E06B002821
:1026D0003ED0B91EE06BB1FBF0F0216C884237D3DD
:1026E000FFF744FDD4E90F12206801FB0200A0604F
:1026F0000020A06320686060E06B401E226C2168AF
:1027000000FB0211E160FF2084F8440084F84500DA
:102710009EB9206908B9012000E00020A8B904F1A1
:10272000100000F079FC80B14FF080500A49086039
:10273000BFF34F8FBFF36F8F07E004F11000FFF777
:10274000EAFC04F12400FFF7E6FCFFF721FD00E0BE
:1027500000273846BDE8F08104ED00E02DE9FF4395
:1027600083B0074688461D464FF000093C4600BF2F
:10277000FFF7FCFCA06BE16B884201D3022D28D14E
:102780002A4641462046FFF786F80646606A08B9A1
:10279000012000E0002068B904F1240000F03CFCB6
:1027A00088B14FF0805032490860BFF34F8FBFF3BC
:1027B0006F8F08E03EB14FF080502D490860BFF3A5
:1027C0004F8FBFF36F8FFFF7E3FC012007B0BDE829
:1027D000F083059818B9FFF7DBFC0020F6E7B9F1A4
:1027E000000F04D101A8FFF767FD4FF00109FFF7C3
:1027F000CFFCFFF757FEFFF7B9FC94F94400401CEB
:1028000010B9002084F8440094F94500401C10B928
:10281000002084F84500FFF7BBFC05A901A800F0E3
:10282000D5F9F0B92046FFF7FCF9A0B104F110008A
:102830000599FFF753FD2046FFF762FB00F070FC9F
:10284000002895D14FF0805009490860BFF34F8FA1
:10285000BFF36F8F8CE72046FFF752FB00F060FC60
:1028600086E72046FFF74CFB00F05AFC0020ADE75E
:1028700004ED00E02DE9FF4F81B0054616461F46E6
:102880002C4600BF1021EFF3118081F31188BFF3B4
:102890004F8FBFF36F8F00BF8146A06BE16B884203
:1028A00001D3022F28D194F945A0A06B00903A469D
:1028B00020460299FEF7EFFF0AF1010070B9606A45
:1028C00008B9012000E0002038B904F1240000F02C
:1028D000A3FB10B10EB1012030600AE0FFF7FCFB52
:1028E0008346DA4504D20AF1010040B284F845007B
:1028F00000BF4FF0010801E04FF0000800BF89F36E
:10290000118800BF404605B0BDE8F08F2DE9F741C2
:1029100083B005460F464FF000082C4600BFFFF776
:1029200025FCA66BF6B139462046FEF79FFF701EC8
:10293000A063206908B9012000E0002060B904F11B
:10294000100000F069FB38B14FF080502F4908604B
:10295000BFF34F8FBFF36F8FFFF71AFC012006B054
:10296000BDE8F081059818B9FFF712FC0020F6E7E2
:10297000B8F1000F04D101A8FFF79EFC4FF0010849
:10298000FFF706FCFFF78EFDFFF7F0FB94F944001C
:10299000401C10B9002084F8440094F94500401C04
:1029A00010B9002084F84500FFF7F2FB05A901A843
:1029B00000F00CF9F0B92046FFF726F9A0B104F1B8
:1029C00024000599FFF78AFC2046FFF799FA00F0EA
:1029D000A7FB0028A3D14FF080500C490860BFF33B
:1029E0004F8FBFF36F8F9AE72046FFF789FA00F009
:1029F00097FB94E72046FFF783FA00F091FB20460F
:102A0000FFF702F900288AD00020A8E704ED00E0D3
:102A10002DE9F74F054616462C4600BF1021EFF36F
:102A2000118081F31188BFF34F8FBFF36F8F00BF09
:102A30008046D4F838A0BAF1000F27D094F944901A
:102A400020460199FEF712FFAAF10100A06309F1E7
:102A5000010070B9206908B9012000E0002098B990
:102A600004F1100000F0D8FA70B16EB101203060AE
:102A70000AE0FFF731FB8346D94504D209F1010092
:102A800040B284F8440000BF012700E0002700BFE7
:102A900088F3118800BF3846BDE8FE8F2DE9F34169
:102AA00082B0054600272C46B84600BFFFF75EFB04
:102AB000A66BFEB1701EA063206810B9FFF7D2FAB2
:102AC000A060206908B9012000E0002060B904F18D
:102AD000100000F0A1FA38B14FF080503A49086078
:102AE000BFF34F8FBFF36F8FFFF752FB012004B08E
:102AF000BDE8F081039818B9FFF74AFB0020F6E71C
:102B00001FB96846FFF7D8FB0127FFF741FBFFF726
:102B1000C9FCFFF72BFB94F94400401C10B90020BE
:102B200084F8440094F94500401C10B9002084F852
:102B30004500FFF72DFB03A9684600F047F840BBAE
:102B40002046FFF761F8F0B1206838B9FFF70EFBB7
:102B5000A06800F0F5F98046FFF71AFB04F12400A5
:102B60000399FFF7BBFB2046FFF7CAF900F0D8FA3C
:102B700000289BD14FF0805013490860BFF34F8F5E
:102B8000BFF36F8F92E72046FFF7BAF900F0C8FA5B
:102B90008CE72046FFF7B4F900F0C2FA2046FFF7B1
:102BA00033F8002882D0B8F1000F0BD0FFF7DEFA1F
:102BB0002046FEF7C3FE06463146A068FFF7C4FB79
:102BC000FFF7E6FA002092E704ED00E070B5064654
:102BD0000C46FFF7CBFA134802687068131A206896
:102BE000401C08B9002519E00F493068096888427F
:102BF00006D07068904203D80125002020600DE0C7
:102C00002068984207D92068C01A20603046FFF734
:102C100053FB002502E0002020600125FFF7B8FAF1
:102C2000284670BD8C000020A00000202DE9FF4F39
:102C300085B0804689461746DDE912ABB800FFF73C
:102C40009FF9064676B15C20FFF79AF904462CB14D
:102C50005C212046FDF7BBFC266304E03046FFF70D
:102C6000A7FA00E000248CB1002084F85900CDE9D7
:102C700000ABCDE902403A4649464046089BFEF784
:102C8000EBFE2046FEF72CFD012501E04FF0FF355D
:102C9000284609B0BDE8F08F2DE9F04F85B0074612
:102CA000884691469A46DDE90EB6109CCCB1C6B175
:102CB00025465C212846FDF78AFC2E63022085F814
:102CC0005900002004A953464A46CDE900B1CDE998
:102CD000025041463846FEF7BFFE2846FEF700FD8B
:102CE00001E000200490049805B0BDE8F08F0000DA
:102CF0000549096809B9012005E00449096809B9CD
:102D0000022000E00020704794000020B400002062
:102D100001490868704700008C0000202DE9F0414F
:102D200000275748006800287DD156480068451C98
:102D3000544805608DB95448D0F800805348006865
:102D4000514908605148C0F8008051480068401C53
:102D50004F490860FFF76CF800BF4E480068854295
:102D600075D300BF48480068006808B9012000E03A
:102D7000002020B14FF0FF304649086066E042482D
:102D80000068C068C4686668B54202D241480660FF
:102D90005CE06069D4E902128A60D4E902214A60E9
:102DA000211D42688A4201D1E168416000226261CE
:102DB0000168491E0160A06A98B1A06AD4E90712AF
:102DC0008A60D4E907214A6004F1180142688A4206
:102DD00001D1216A41600022A2620168491E01609E
:102DE00000BF2D49E06A0968884202D92A49E06A91
:102DF0000860E16A01EB8101284A02EB8101486821
:102E0000A0608268E260211D826851608160E16A91
:102E100001EB8101214A02EB81026261E16A01EB6F
:102E200081011E4A00E022E052F82110491CE26AAA
:102E300002EB8202194B43F822101949E06A096833
:102E4000C96A88428ED901278CE700E000BF144888
:102E50000068C06A00EB8000104951F8200001288A
:102E600000D901270F48006800B1012704E00E488F
:102E70000068401C0C4908603846BDE8F08100003D
:102E8000B40000208C0000207C0000208000002086
:102E9000A0000020A800002090000020A028002012
:102EA000780000209C0000209800002070B50546A6
:102EB0002C460026002D3CD0206D401E2065E16C84
:102EC000E06A884235D0206D98BB201DFFF7F0F8EE
:102ED000E06CE062E06AC0F13800A0611649E06A87
:102EE0000968884202D91449E06A0860E16A01EB86
:102EF0008101124A02EB81014868A0608268E260A9
:102F0000211D826851608160E16A01EB81010B4AF9
:102F100002EB81026261E16A01EB8101074A52F82A
:102F20002110491CE26A02EB8202044B43F8221092
:102F30000126304670BD000090000020A02800202F
:102F400070B505462C460026002D5CD02F49E06A5E
:102F50000968C96A88424FD2A06900F0004028B9C8
:102F60002A480068C06AC0F13800A061E16A01EB3C
:102F70008101274A02EB81016069884201D1012069
:102F800000E0002088B3201DFFF792F81F4800687A
:102F9000C06AE0621F49E06A0968884202D91D4997
:102FA000E06A0860E16A01EB8101194A02EB8101E4
:102FB0004868A0608268E260211D8268516081607B
:102FC000E16A01EB8101124A02EB81026261E16A6E
:102FD00001EB81010E4A52F82110491CE26A02EB12
:102FE00082020B4B43F8221004E0FFE70748006819
:102FF000C06AE062012606E00449E06C0968C96A1B
:10300000884200D20126304670BD000078000020C2
:10301000A02800209000002070B50346D868C16841
:10302000886AD1E90745A560D1E90754656001F1D7
:1030300018044568A54201D10C6A446000258D62E0
:103040000468641E04603048006800283CD1486968
:10305000D1E90245A560D1E9025465600C1D4568BF
:10306000A54201D1CC68446000254D610468641E0E
:103070000460264CC86A2468A04202D9234CC86A5E
:103080002060CC6A04EB8404214D05EB8404606865
:1030900088608568CD600C1D85686C608460CC6A32
:1030A00004EB84041A4D05EB84054D61CC6A04EBF6
:1030B0008404174D55F82440641CCD6A05EB850542
:1030C000134E46F8254010E0124C6068C8618568D0
:1030D0000D6201F1180485686C6084600D4D8D628D
:1030E0002C462468641C2C6000BF0B4CC86A246802
:1030F000E46AA04204D901220120084C206000E0CB
:103100000022104670BD0000B40000209000002096
:10311000A0280020282D0020780000209C000020FE
:1031200070B500240026FFF721F84A480068401EC9
:10313000484908600846006800287DD14648006874
:10314000002879D05AE04548C068C468A06AD4E92C
:1031500007128A60D4E907214A6004F11801426825
:103160008A4201D1216A41600022A2620168491E9F
:1031700001606069D4E902128A60D4E902214A60E0
:10318000211D42688A4201D1E168416000226261EA
:103190000168491E01603249E06A0968884202D923
:1031A0002F49E06A0860E16A01EB81012D4A02EBD8
:1031B00081014868A0608268E260211D82685160D8
:1031C0008160E16A01EB8101264A02EB81026261C2
:1031D000E16A01EB8101234A52F82110491CE26A9D
:1031E00002EB82021F4B43F822101F49E06A096874
:1031F000C96A884202D301201C4908601748006848
:1032000008B9012000E0002000289CD00CB1FEF796
:103210000FFE1748056865B100BFFFF77FFD10B1CD
:103220000120124908606D1E002DF6D100201049C2
:1032300008600E48006800E008E038B10126300759
:103240000C490860BFF34F8FBFF36F8FFEF7A0FFED
:10325000304670BDB400002088000020282D0020DA
:1032600090000020A0280020780000209C00002072
:103270009800002004ED00E010B586B00024FEF7B1
:10328000A3FA10480068D0B100200590049003AA6A
:1032900004A905A8FEF732FF2822DDE90410002367
:1032A000CDE90021029008A10948039AFFF7F4FC38
:1032B000084908600846006800B1012400BF2046A4
:1032C00006B010BDC0000020546D7220537663001C
:1032D000E71E0000C40000204FF04070E1EE100A2D
:1032E00070470000F0350000000000000000000002
:1032F0000000000000000000000000000436000094
:1033000000000000000000000000000000000000BD
:10331000000000001836000000000000000000005F
:103320000000000000000000000200001800000083
:103330000000000000000000243600000000000033
:10334000000000000000000000000000000200007B
:1033500018000000000000000000000030360000EF
:10336000000000000000000000000000000000005D
:103370000002000018000000000000000000000033
:103380004036000000C0004000D0004000E0004097
:10339000001800F0011800F0021800F00068890918
:1033A000001C4E0E40420F0000201C0080841E00B6
:1033B00000802500999E36000040380000093D003D
:1033C00000803E0000004B00404B4C0000204E00AF
:1033D000808D5B0000C05D000080700000127A00EC
:1033E00000007D0080969800001BB7000080BB00A5
:1033F000C0E8CE00647ADA000024F4000000FA008D
:1034000080A81201002D310100366E0140787D0147
:103410004000000000000000000100003E00080025
:103420000000000000010000A000000002000000F9
:103430000001000034540100000000000001000001
:103440002B700600000000000001000028000000B2
:103450000000000000010000270001000000000043
:10346000000100002000000000000000000100003A
:103470005000000002000000000100001AAC000033
:103480000000000000010000179409000000000087
:103490000001000016980500000000000001000077
:1034A000140000000000000000010000138008006C
:1034B0000000000000010000A00000000800000063
:1034C00000010000100000000000000000010000EA
:1034D0002800000002000000000100004000000081
:1034E0000400000000010000600000000000000077
:1034F000000100005D000C00000000000001000061
:103500005000000000000000000100004E0002001A
:10351000000000000001000041AC010000000000BC
:10352000000100003C00000000000000000100005D
:103530003A80090000000000000100003000000097
:103540000000000000010000280000000000000052
:103550000001000027000100000000000001000041
:103560002360060000000000000100002160080048
:1035700000000000000100001E000000000000002C
:10358000000100001DC00400000000000001000058
:1035900050000000020000000001000018000000C0
:1035A0000000000000010000140000000000000006
:1035B00000010000600000000400000000010000A5
:1035C0000024F40030003000005A620291009100A3
:1035D00000879303D200D20000B4C4041301130186
:1035E00000E1F50554015401000E270795019501EE
:1035F000454C455641544F525F4D47525F515545DA
:1036000055450000454C455641544F525F54585F54
:103610005155455545000000454C455641544F52C3
:103620005F525800454C455641544F525F54580024
:10363000454C455641544F525F4D475200000000E3
:103640003031323334353637383961626364656618
:10365000000000007436000000000020CC000000D4
:10366000A802000040370000CC000020C42F00005A
:10367000C402000000000000000000000000000084
:10368000000000000000000000000000000000003A
:10369000000000000000000000000000000000002A
:1036A000000000000000000000000000000000001A
:1036B000000000000000000000000000000000000A
:1036C000000000000000000080F0FA02000000008E
:1036D00000000000000000000000000000000000EA
:1036E0000000000000000000AAAAAAAA0000000032
:1036F00000000000000000000000000000000000CA
:1037000000000000000000000000000000000000B9
:1037100000000000000000000000000000000000A9
:103720000000000037000000000000000000000062
:103730000000000000000000000000000000000089
:04000005000003DD17
:00000001FF
