:020000040000FA
:10000000783600200D0400001504000017040000DD
:10001000190400001B0400001D0400000000000083
:100020000000000000000000000000004503000088
:100030002104000000000000A103000005180000DA
:1000400027040000290400002B0400002D040000F8
:100050002F040000D1180000330400003504000014
:1000600037040000390400003B0400003D04000098
:100070003F04000041040000430400004504000068
:1000800047040000490400004B0400004D04000038
:100090004F04000051040000530400005504000008
:1000A00057040000590400005B0400005D040000D8
:1000B0005F040000610400006304000065040000A8
:1000C00067040000690400006B0400006D04000078
:1000D0006F04000071040000730400007504000048
:1000E0007704000079040000000000007B04000099
:1000F0007D0400007F0400008104000083040000F0
:100100008504000087040000890400008B040000BF
:1001100000000000000000008D0400008F040000BB
:10012000910400009304000095040000970400006F
:10013000990400009B0400009D0400009F0400003F
:1001400000000000000000000000000000000000AF
:10015000A1040000A3040000A5040000A7040000FF
:10016000000000000000000000000000000000008F
:10017000000000000000000000000000000000007F
:10018000000000000000000000000000000000006F
:10019000000000000000000000000000000000005F
:1001A000000000000000000000000000000000004F
:1001B000A9040000AB040000AD040000AF0400007F
:1001C000B1040000B3040000B5040000B70400004F
:1001D000B9040000BB040000BD040000BF0400001F
:1001E000C1040000C3040000C504000000000000BA
:1001F00000000000C7040000C9040000CB04000098
:10020000CD040000CF04000000000000000000004A
:10021000D1040000D3040000D5040000D70400007E
:10022000D9040000DB040000DD040000DF0400004E
:10023000E1040000E3040000E5040000E70400001E
:10024000E9040000EB040000ED040000EF040000EE
:10025000F1040000F3040000F5040000F7040000BE
:10026000F9040000FB040000FD04000000F002F8A7
:1002700000F055F80AA090E8000C82448344AAF1EB
:100280000107DA4501D100F04AF8AFF2090EBAE8E9
:100290000F0013F0010F18BFFB1A43F001031847BA
:1002A000D84C0000F84C00000A4410F8014B14F040
:1002B0000F0508BF10F8015B240908BF10F8014BB7
:1002C0006D1E05D010F8013B6D1E01F8013BF9D100
:1002D000641E03D0641E01F8015BFBD19142E4D39C
:1002E000704700000023002400250026103A28BF94
:1002F00078C1FBD8520728BF30C148BF0B60704798
:100300001FB504F03DFB00F09DFA04000020002121
:1003100004F020FB401C60601FBD10B510BD00F054
:100320006CFA114603B401F0B6FD03BCFFF7E8FF19
:1003300001F0D0FD00F099FA03B4FFF7EEFF03BC23
:1003400000F0DCFA2C4B19680868B0E8F04F80F335
:100350000988BFF36F8F4FF0000080F3118870475A
:100360000000000008480068006880F308884FF02B
:10037000000080F3148862B661B6BFF34F8FBFF3FD
:100380006F8F00DF00BF00BF08ED00E0DFF80C005A
:10039000016841F470010160704700BF88ED00E022
:1003A000EFF30980BFF36F8F134B1A681EF0100F25
:1003B00008BF20ED108A20E9F04F106009B44FF01B
:1003C000100080F31188BFF34F8FBFF36F8F03F0DE
:1003D00041F84FF0000080F3118809BC19680868E3
:1003E000B0E8F04F1EF0100F08BFB0EC108A80F399
:1003F0000988BFF36F8F704794000020EFF30580EA
:10040000704700000138FDD1704700003F48804729
:100410003F480047FEE7FEE7FEE7FEE7FEE7FEE7B0
:10042000FEE7FEE7FEE7FEE7FEE7FEE7FEE7FEE7A4
:10043000FEE7FEE7FEE7FEE7FEE7FEE7FEE7FEE794
:10044000FEE7FEE7FEE7FEE7FEE7FEE7FEE7FEE784
:10045000FEE7FEE7FEE7FEE7FEE7FEE7FEE7FEE774
:10046000FEE7FEE7FEE7FEE7FEE7FEE7FEE7FEE764
:10047000FEE7FEE7FEE7FEE7FEE7FEE7FEE7FEE754
:10048000FEE7FEE7FEE7FEE7FEE7FEE7FEE7FEE744
:10049000FEE7FEE7FEE7FEE7FEE7FEE7FEE7FEE734
:1004A000FEE7FEE7FEE7FEE7FEE7FEE7FEE7FEE724
:1004B000FEE7FEE7FEE7FEE7FEE7FEE7FEE7FEE714
:1004C000FEE7FEE7FEE7FEE7FEE7FEE7FEE7FEE704
:1004D000FEE7FEE7FEE7FEE7FEE7FEE7FEE7FEE7F4
:1004E000FEE7FEE7FEE7FEE7FEE7FEE7FEE7FEE7E4
:1004F000FEE7FEE7FEE7FEE7FEE7FEE7FEE70000B9
:1005000004480549034A054B704700001D180000C8
:100510006D02000078340020783600207834002006
:1005200070B5064600F0A2F80468054630460A2277
:10053000002100F09DF82C6070BD032A40F230804D
:1005400010F0030C00F0158011F8013BBCF1020F14
:10055000624498BF11F801CB00F8013B38BF11F895
:10056000013BA2F1040298BF00F801CB38BF00F8AC
:10057000013B11F0030300F0B380083AC0F008809B
:1005800051F8043B083A51F804CBA0E80810F5E70D
:10059000121D5CBF51F8043B40F8043BAFF30080F0
:1005A000D20724BF11F8013B11F801CB48BF11F865
:1005B000012B24BF00F8013B00F801CB48BF00F835
:1005C000012B704702F0FF0343EA032242EA024292
:1005D00000F002B84FF000020429C0F0128010F0C1
:1005E000030C00F01B80CCF1040CBCF1020F18BF0F
:1005F00000F8012BA8BF20F8022BA1EB0C0100F0A2
:100600000DB85FEAC17C24BF00F8012B00F8012B74
:1006100048BF00F8012B70474FF0000200B51346A9
:1006200094469646203922BFA0E80C50A0E80C5012
:10063000B1F12001BFF4F7AF090728BFA0E80C50C3
:1006400048BF0CC05DF804EB890028BF40F8042BBC
:1006500008BF704748BF20F8022B11F0804F18BF29
:1006600000F8012B704770477047704701F074BB6A
:100670002DE9F04791460F4680460446002614F8BF
:10068000015B2DB100F062F80068405DC007F6D153
:100690002B2D02D02D2D18D0641E4A4639462046F7
:1006A00000F05CF827B13968A14201D1C7F8008099
:1006B0004FF0020471050BD54042002803DDFFF71F
:1006C000D5FF0460A007BDE8F08746F48066E4E744
:1006D0000028F8DAFFF7CAFF04606FF00040F2E785
:1006E00010B5203AC0F00B80B1E81850203AA0E8CD
:1006F0001850B1E81850A0E81850BFF4F5AF5FEA01
:10070000027C24BFB1E81850A0E8185044BF18C9B3
:1007100018C0BDE810405FEA827C24BF51F8043B5A
:1007200040F8043B08BF7047D20728BF31F8023BAE
:1007300048BF11F8012B28BF20F8023B48BF00F842
:10074000012B7047004870471834002010B500F0A6
:1007500079F8001D10BD00BFFD4100002DE9F05FDC
:10076000824615468B4600270AF10104B9460078F7
:10077000302801D09DB113E014F8010B012778282F
:1007800003D0582801D045B10AE00DB1102D07D192
:10079000002714F8010B102502E0082500E00A25C7
:1007A0000026B0460EE005FB080005FB06F1012718
:1007B0001FFA80F801EB1046B6F5803F00D3B9462A
:1007C00014F8010B294600F042F80028EBDABBF1DF
:1007D000000F05D00FB1641E00E05446CBF8004076
:1007E000B9F1000F06D0FFF741FF02210160C81EDA
:1007F000BDE8F09F48EA0640FAE77546FFF7A2FF1A
:10080000AE4605006946534620F00700854618B0FD
:1008100020B5FFF775FEBDE820404FF000064FF011
:1008200000074FF000084FF0000B21F00701AC4625
:10083000ACE8C009ACE8C009ACE8C009ACE8C00944
:100840008D46704710B5FFF77DFF203010BD3A2868
:1008500000D2303820F02002412A01D3A2F1370023
:10086000884201D34FF0FF30704710B50446AFF314
:1008700000802046BDE81040FFF75EBD4FF0013C10
:1008800050F8042B51F8043B9A4221D1A2EB0C03FF
:10089000934313EACC1317D150F8042B51F8043BBF
:1008A0009A4215D1A2EB0C03934313EACC130BD15C
:1008B00050F8042B51F8043B9A4209D1A2EB0C03E7
:1008C000934313EACC13DBD04FF00000704700BF16
:1008D000D01A01BAB1FA81F101F0180122FA01F03F
:1008E000CB40C1F12001DBB2C0B2C01A2CFA01F337
:1008F000D11A914311EAC311E6D17047014918207A
:10090000ABBEFEE7260002007047F0B504460D4678
:1009100000260027002008E004F10E01095CA9422E
:1009200001D1012704E0411CC8B2217D8142F3DCE2
:1009300000BF207D05280FDA77B9217D04F10E0074
:100940004554207D401C207501260021204601F0E1
:10095000D9F9204600F09EFD3046F0BDF0B50446C2
:100960000D4600260027002008E004F10901095C7B
:10097000A94201D1012704E0411CC8B2E17C8142B7
:10098000F3DC00BFE07C05280FDA77B9E17C04F1E5
:1009900009004554E07C401CE074012601212046FA
:1009A00001F0B0F9204600F096FD3046F0BD70B57C
:1009B00005460C462078032802D0207804280CD164
:1009C0002146284600F0DCF838B12078032804D10D
:1009D000A27A61780C2000F0F9F970BD70B5044678
:1009E0002546287800EB4000054901EBC006297830
:1009F000FF22072000F0EAF90220307070BD0000ED
:100A0000B806002070B54FF08070406C81693248A4
:100A1000884700BF4FF08070406CD0F88C102E4893
:100A200088470028F6D04FF08070406C81692B48D1
:100A3000884700BF4FF08070406CD0F88C1027487A
:100A400088470028F6D04FF08071496C086E8047C7
:100A500005464FF08070406960234FF4E13229462B
:100A600044691F48A0474FF080704069016E1C48E0
:100A700088474FF08070406900221146C3681848CB
:100A800098474FF0807040694021426C144890476D
:100A90001449134800F074FF4FF08070006A816EB3
:100AA000012088474FF08070006A816E40F201405B
:100AB00088474FF08070006A0321426D4FF040205C
:100AC00090470521064800F056FF074A4FF4E131F0
:100AD000002000F087FF70BD000800F0001800F053
:100AE00000C00040D11800000024F40070B5044696
:100AF000084951F8240001F0C9FB50B900BF05496D
:100B000051F8240041F64C5101F044FC0546002DFB
:100B1000F5D170BDA006002070B50446084951F813
:100B2000240001F0B3FB012808D100BF044951F8AB
:100B3000240001F04EFC0546002DF7D170BD0000E9
:100B4000A006002070B504462546287800EB40003A
:100B50000A4901EBC0063078022805D12978FF2226
:100B6000072000F033F907E03078042804D1297811
:100B7000FF22062000F02AF970BD0000B806002010
:100B8000F0B504460E460027B57A0F2D3DDC207ADD
:100B9000A8423AD03078042829D1607D012811D1AB
:100BA000F07A732808D16078A84205DA29462046F1
:100BB000FFF7D4FE074628E029462046FFF7A5FEAA
:100BC000074622E0607D02281FD1F07A642808D110
:100BD0006078A84205DB29462046FFF796FE0746C7
:100BE00013E029462046FFF7B9FE07460DE060787E
:100BF000A84205DA29462046FFF7B0FE074604E082
:100C000029462046FFF781FE07463846F0BD70B5FD
:100C10000546687D012811D1E87C002804DD2846BE
:100C200000F038FB04461FE0287D002804DD28463C
:100C300000F019FB044617E0FF2415E0687D022848
:100C400011D1287D002804DD284600F00CFB044665
:100C50000AE0E87C002804DD284600F01BFB04467F
:100C600002E0FF2400E0FF24204670BD70B5064678
:100C7000254806600068006824490860224800682A
:100C8000406823490860002419E0224800EB04135F
:100C9000214802190121214801F008FB204941F8AF
:100CA0002400204800EB04131B48021900211E48B1
:100CB00001F0FCFA1D4941F82400601CC4B2032C69
:100CC000E3DB1B4A00211B4801F070FA1A49086057
:100CD0000846006888B11248006870B11048406842
:100CE00058B10F48806840B11048006828B10F48DB
:100CF000406810B10D48806810B94FF0FF3500E032
:100D00000025284670BD0000540000205800002037
:100D10005C000020284A000060000020450B000015
:100D2000A0060020584A0000DD090000AC060020A3
:100D3000044A0000F50D00005000002010B500240A
:100D40003FE0012004EB44011F4A02F8310000207B
:100D500004EB440102EBC101487004EB440102EBD7
:100D6000C1014860FF2004EB440102EBC10108729D
:100D700004EB440102EBC10101F10900FF2205214E
:100D8000FFF720FC04EB44010F4A02EBC10101F123
:100D90000E00FF220521FFF715FC002004EB4401A3
:100DA000094A02EBC1014875012004EB440102EB42
:100DB000C1018875FF222146052000F007F8601C5C
:100DC000C4B2032CBDDB10BDB8060020F8B5064642
:100DD0000C4615468DF800608DF801408DF80250E4
:100DE000C823002269460248006801F09BF9F8BD5B
:100DF0005C0000200EB5FFF7A1FF00BF4FF0FF33EE
:100E0000002269465D48006801F00AF900287DD19A
:100E10009DF8016006EB4600594901EBC0049DF8BE
:100E200000502078012806D0022825D003284DD074
:100E300004286CD176E000206075032D01D0042DCC
:100E400019D160789DF80A10884214D09DF80A00E4
:100E50002072032D05D19DF80A2031460C20FFF7A2
:100E6000B5FFFF2231460720FFF7B0FF3046FFF7FE
:100E70003DFE022020707DE069462046FFF797FD89
:100E8000022D22D19DF8080046281ED16078217AD3
:100E9000884207DDFF2231460920FFF797FF022035
:100EA000607506E0FF2231460820FFF78FFF012022
:100EB0006075FF2231460B20FFF788FF3046FFF7B1
:100EC0002BFE0020A0750320207053E069462046C9
:100ED000FFF76DFD022D24D19DF80800302820D1A8
:100EE0009DF809006070207A9DF80910884218D199
:100EF000FF2231460A20FFF769FF227A31460D2092
:100F0000FFF764FFFF223146062001E033E030E0C6
:100F1000FFF75CFF3046FFF7E9FD207A60700420A0
:100F2000207027E069462046FFF741FD022D1FD1C2
:100F30009DF8080041281BD1124951F8260001F004
:100F4000A5F9A8B90120A0752046FFF760FE207220
:100F50003046FFF7E1FD207AFF2802D10120207002
:100F600006E0084951F8260040F6B83101F012FABF
:100F700000E000BF42E701F075F93FE758000020AC
:100F8000B8060020AC06002038B505460F480560BD
:100F9000006800680E4908600020034601220146EF
:100FA0000090322002F0E2FD0A4908600A4A00215E
:100FB0000A4801F0FBF80A4908600846006810B9C1
:100FC0004FF0FF3400E00024204638BD2000002010
:100FD0002400002028000020BC490000E50F00008C
:100FE0001C0000208EB000BF4FF000094FF0FF083A
:100FF0004FF0000A4FF0000B00200890FF200790F0
:1010000006904FF0FF33142209A95548006802F0FA
:10101000D6FD0446601E09A9085C0A28E4D1A01E7A
:10102000085C0D28E0D1A01E45B2294609A800F0B1
:1010300033FF8046002DD7DDB8F1FF0F62D0022DBF
:1010400004D0032D20D0052D5AD13FE04FF00209E6
:101050009DF82560302E0FDB392E0DDC4FF0300B64
:10106000002002909DF825008DF8080002A8FFF7E7
:1010700057FAC0B2089006E0412E01D1B34602E013
:10108000462E00D1B3463CE09DF82500492808D102
:101090004FF003099DF82600A0F16101C9B2079144
:1010A00013E04FF002094FF0300B002002909DF842
:1010B00025008DF808009DF826008DF8090002A88B
:1010C000FFF72EFAC0B2089000BF1AE09DF8250085
:1010D000452814D14FF00409002002909DF8260005
:1010E0008DF808009DF827008DF8090002A8FFF789
:1010F00017FAC0B207909DF82800069000BF00BF05
:1011000000BF13E04FF00109002705E009A8C05D0A
:1011100001A9C855781CC7B2AF42F7DB002001A96E
:10112000C85501A8FFF7FCF9824600BF8DF80C9066
:101130008DF80D80CDF810A08DF814B008988DF8BA
:10114000150007988DF8160006988DF81700C8232B
:10115000002203A90348006800F0E4FF44E7000010
:10116000280000202400002070B505460A480560CC
:101170000068006809490860094A0021094801F02F
:1011800015F8094908600846006810B94FF0FF34A7
:1011900000E00024204670BD34000020380000200C
:1011A000E0490000AD1100003000002008B500BF8C
:1011B0004FF0FF33002269462248006800F030FFFC
:1011C00000283CD101279DF80000401F092818D2B3
:1011D000DFE800F00507090B0D0F1113150072244D
:1011E00011E061240FE066240DE073240BE0642419
:1011F00009E0702407E0782405E04C2403E044244F
:1012000001E0002700BF00BF012FD1D19DF80100F0
:101210000D490D5C4C2C01D0442C0AD19DF80200E4
:101220000A490E5C33462246294609A000F010FC0C
:10123000BEE72246294608A000F00AFCB8E701F004
:1012400011F8B5E7380000203C0000203F000020E6
:101250002563256325630D00256325630D000000CC
:1012600040F82120704770B50446A57B207D401EC4
:101270002075207D30B9FF22052104F10E00FFF713
:10128000A1F905E0227D04F10F01481EFFF755F991
:10129000284670BD70B50446657AE07C401EE07457
:1012A000E07C30B9FF22052104F10900FFF78AF93B
:1012B00005E0E27C04F10A01481EFFF73EF92846EA
:1012C00070BD70B54FF0000500BFEFF3058008B1A9
:1012D00001250DE002F0CEFF0446012C08D000BF2E
:1012E000EFF3108018B900BFEFF3118000B10125B2
:1012F000284670BD10B5144A0C211E2000F0D2FE05
:1013000012490860124A0321142000F0CBFE114953
:1013100008600E48006810B10846006810B94FF028
:10132000FF340FE0094800680B490860074800686F
:101330000A4908600748006848600648006808498C
:1013400008600024204610BD8C49000004000020E5
:10135000A449000010000020180000200800002010
:101360001400002010B500240648FFF77FFC04435A
:101370000548FFF709FE04430448FFF7F5FE044360
:10138000204610BD08000020180000201400002096
:101390001649042804BF086840F4803018D0052896
:1013A00004BF086840F4003012D0062812D00F287D
:1013B00015D0102838BF7047103800F01F010122E7
:1013C00002FA01F142090A4850F822000160704710
:1013D00008607047086840F48020086070474FF04C
:1013E000E020016941F002010161704724ED00E055
:1013F000344E000030B40A4D2A680A4B9A421CBF92
:10140000D5F800C0002207D05CF8224043F8224003
:10141000521C9B2AF8D32B6043F8201030BC704735
:1014200008ED00E00004002010B54FF08070406C23
:1014300081691648884700BF4FF08070406CD0F833
:101440008C10124888470028F6D04FF08070006A50
:101450000E21C26B0E4890474FF08070006A002248
:10146000022103680A4898474FF08070006A002202
:1014700008210368064898474FF08070006A0022F0
:10148000042103680248984710BD0000050800F0D9
:101490000050024070B50446002517E02E46691C36
:1014A000C8B208E004F10E010A5C895D8A4200DDE1
:1014B0000646411CC8B2217D8142F3DC04F10E02D4
:1014C0005119901901F0D8FD681CC5B2207D401E4D
:1014D000A842E3DC70BD70B50446002517E02E4637
:1014E000691CC8B208E004F109010A5C895D8A42FE
:1014F00000DA0646411CC8B2E17C8142F3DC04F10B
:1015000009025119901901F0B7FD681CC5B2E07CC1
:10151000401EA842E3DC70BD2DE9F003AF4D02464A
:101520002868AF4B1840A0F18053B3F5A02359D0E1
:1015300002F03809DFF8AC82C2F38414B9F1100F5D
:1015400025D0B9F1300F04BF47F230504FF40013EB
:101550000DD04FF03800904304BF4FF40040C3015A
:1015600005D012F0380F1CBF0020034613D09E4F49
:1015700012F4605F4FF0000618BF00222CD057F81D
:10158000324044457DD307EBC2025268E1E00023BC
:1015900040461524EBE7A4F10900122822D2934813
:1015A000D5F87CC04FF04C7350F824002CF01C0C84
:1015B000072CA8BF4CF0100CC5F87CC02E6D4FF462
:1015C000002C16F4807FD2D1BCF1010C0AD02E6D14
:1015D00016F4807FF8D0CAE712F0380F18BFB9F1BF
:1015E000100F04D0BDE8F0034FF000007047C2F3C5
:1015F0000268DFF8FCC14FF0000257F83290E14575
:1016000003D307EBC202526803E0521C062AF4D34C
:101610003246C5F8C020D5F8B020DFF8D8C102EABC
:101620000C0242F00042C5F8B020DFF8CCC1A4F1B2
:1016300009024C1E5CF828C0A444BCFBF1FCD5F8A0
:10164000B0101943C5F8B01008EBC80101EB410414
:101650006A4902EB420201EBC40101EB82046468B7
:10166000C5F86441D5F864416FF0FF0808EB0C2C15
:1016700044EA0C0CC5F864C151F82210D5F8602179
:1016800000E061E002F400021143C5F86011D5F8F2
:101690006011D5F86021C1F38921C2F30904D5F89E
:1016A0006421C2F3042202F1010CD5F8642102F096
:1016B0001F02521CB0FBF2F04A09C2F10008444379
:1016C000424301EB481104EB5212484302EB9020D5
:1016D000B0FBFCF041080846002257F832C08445B0
:1016E00003D307EBC200466802E0521C062AF4D37B
:1016F000C5F8C060D5F8600110F4000F1DBFD5F823
:10170000B00040F08040C5F8B000D5F8600104BFDB
:1017100040F40000C5F860014FF40040D5F868219E
:1017200012F0010F02D1401E0028F7DC002808BF8C
:10173000002148D0D5F8B000184340F0010040F037
:101740001040C5F8B0003EE0521C062AFFF417AF67
:101750003246C5F8C020D5F8602122F40002C5F851
:101760006021D5F8B020DFF898C002EA0C0242F000
:101770000042C5F8B020002908BF4FF0000C0AD085
:10178000B0FBF1FCBCF1000F18BFACF1010C0CF187
:101790000101B0FBF1F10846002257F832408442C3
:1017A00003D307EBC200466802E0521C062AF4D3BA
:1017B000C5F8C060D5F8B00043EA8C22104340F071
:1017C0000040C5F8B000D5F8B00020F47000C5F8AE
:1017D000B000BDE8F00308467047000000E00F408D
:1017E0000000FF700024F400C84C0000AC4A000068
:1017F00040787D0100FC0FE0A44A0000184B000077
:10180000FF0300EF10B54FF0E020006902F032FD59
:10181000012801D001F09AFE10BD00001B490968A3
:1018200041F47001194A116019491A4A11671A499D
:1018300011661A4911661A491167002000E0401C20
:10184000B0F57A7FFBD31749124A11661649116722
:10185000002000E0401CB0F57A7FFBD313490D4A0D
:10186000116600BF0B49096D01F040014029F9D113
:101870000F49084A11664FF0C0711167002000E05F
:10188000401C42F210718842FAD3704788ED00E0A4
:101890001028800700E00F40D13A8E07422D9E01AC
:1018A00000288001420D9E0100088001420DDE01EA
:1018B0004205DE0170B50546284601F0BDFB044631
:1018C00024F0010414B1D4E90010884770BD000071
:1018D00070B501211D4800F07FF8054629461B48D8
:1018E00000F04CF82AE0194800F038F8C4B2184863
:1018F00018490978445417480078401C1549087065
:101900000A2C0FD1002308460278114912480068BA
:1019100002F0ADF932210E48FEF75CFE00200D49C1
:10192000087010E00B480078322806DB32210848A6
:10193000FEF750FE00200749087000BF034800F082
:1019400015F80028CFD100BF70BD000000C00040D6
:101950006C0600202C00002028000020816911F076
:10196000100F0CBF00684FF0FF30704780690121F5
:1019700021EA10107047C0F8C81F704741647047D3
:10198000124A10B5104B12684FF0080C104C224050
:10199000A2F18054B4F5202408BF0E4B002253F866
:1019A0003240844203D103EBC200446803E0521C7E
:1019B0006245F4D300242046FFF71CFD2046BDE815
:1019C0001040FFF7E5BC0000F84C000000E00F40BD
:1019D0000000FF70384D0000002914BF006CC06B80
:1019E000704700002DE9F04104460D461646154AA1
:1019F00052F824004FF08072526C1169884708B980
:101A0000BDE8F081104850F82400104908600D4AE4
:101A100052F824004FF08072526C916988474FF061
:101A20008070406960232A4631464769074800684C
:101A3000B8474FF080704069C16904480068884722
:101A400000BFDDE7984A00008C4A000064000020D7
:101A50000FB408B503A800900099029800F006F8AA
:101A60000020009001B05DF814FB00002DE9F34F59
:101A700085B0064612E1002400E0641C305D252894
:101A800002D0305D0028F8D12146304600F016F92A
:101A9000264430782528EDD1761C00254FF0200B08
:101AA00000BF16F8011B382932D014DC33292AD0A4
:101AB00008DC25296FD0302922D0312921D03229C4
:101AC0006AD11FE034291FD035291ED036291DD0F8
:101AD0003729F5D11BE0692935D008DC392918D020
:101AE000582972D0632922D06429E9D12AE07029CB
:101AF0006CD073293CD0752958D07829E0D163E0A7
:101B000000BF00BF00BF00BF00BF00BF00BF00BFDD
:101B100000BF16F8010C302801D105B9834605EB4A
:101B20008500450016F8010C30380544B9E70698E1
:101B3000006804900698001D0690012104A800F09A
:101B4000BDF8AAE000BF0698006804900698001D42
:101B500006904FF000080498002805DA04984042E7
:101B600004904FF0010901E04FF000090A2739E025
:101B7000069850F804AB0690002400E0641C1AF8A4
:101B800004000028FAD12146504600F097F8A542FB
:101B90000BD92D1B05E076E07AE0012143A000F08F
:101BA0008DF8281EA5F10105F7D176E006980068AA
:101BB00004900698001D06904FF000080A274FF089
:101BC00000090FE001E001E000BF00BF06980068D7
:101BD00004900698001D06904FF0000810274FF063
:101BE000000900BF012401E07C436D1E04FB07F0E7
:101BF0000499884205D804FB07F0B0FBF7F0A04237
:101C0000F2D0B9F1000F00D06D1EB9F1000F0AD06B
:101C1000BBF1300F07D12D22404608F101080DF825
:101C200000204FF00009012D0BD9102D09D26D1E97
:101C300005E0404608F101080DF800B06D1E002DCA
:101C4000F7D1B9F1000F05D02D22404608F1010867
:101C50000DF8002010E00498B0FBF4F0B0FBF7F1B1
:101C600007FB1100124909680A5C404608F10108A7
:101C70000DF80020B4FBF7F4002CECD14146684687
:101C800000F01CF809E0701E012100F017F804E0D4
:101C9000052108A000F012F800BF00BF307800282E
:101CA0007FF4E9AE07B0BDE8F08F0000200000002F
:101CB000884A00004552524F5200000070B5054658
:101CC0000E46002417E0285D0A2808D14FF08070E6
:101CD00040690D2102680A480068904702E0285DCB
:101CE00000B90AE0295D4FF080704069026804483D
:101CF00000689047641CB442E5D300BF204670BD25
:101D00006400002030B50B46027A00210478032CD1
:101D100020D1012B0ED1447D012C0BD1C47C641E3B
:101D200000F1090561190C78944213DA0C780472F9
:101D30000A700FE0012B0DD0447D022C0AD1047DE6
:101D4000641E00F10E0561190C78944202DD0C78D6
:101D500004720A7030BD000070B500F05EFB08B977
:101D6000134870BD02F080FA0546002418E01148BF
:101D700050F8240040B90F4840F8245004EB4400C8
:101D80000D4901EB4010ECE70A4850F82400A84246
:101D900005D104EB4400084901EB4010E1E7641C65
:101DA000042CE4D304EB4400034901EB4010D8E7D2
:101DB00080080020E00800200007002010B504463D
:101DC00000F02BFB38B100F07DF820B14FF0FF316F
:101DD000206801F033FE10BD70B50546286801F09B
:101DE0000BFA00240BE0084951F8241028688842B7
:101DF00004D10020044941F8240002E0641C052CB1
:101E0000F1D300BF70BD0000800A002070B5044609
:101E100000202060002514E0154850F8250078B90E
:101E200005EB8500134A02EB0011012001F0B9FB1C
:101E30000F4941F82500084650F82500206002E0CF
:101E40006D1C052DE8D300BF206830B900F0E5FA1D
:101E500018B1012001F094FB2060002080F311886C
:101E600000BF206808B9002070BD0120FCE7000019
:101E7000800A0020F008002010B5044600F0CDFADA
:101E800040B100F01FF828B100231A461946206817
:101E900001F034FC10BD704710B5024681B11378D3
:101EA000632B05D0642B05D0652B05D1002005E000
:101EB000012003E0022001E0FF2000BF00BF00E09E
:101EC000FF2010BD00BFEFF3058008B90120704767
:101ED0000020FCE700244FF08071896F086980477B
:101EE00024492548FFF718FB24490860FEF78AFDBE
:101EF0004FF08071896B486880474FF08071896C22
:101F000048688047FFF790FA00F03CF8FFF7F2F9D5
:101F10000443FFF727FA04434CB94FF08070006A7E
:101F20000422114603681648984700F045F81FE060
:101F3000002202211248FFF793F94FF08071496C9B
:101F4000086E80470A21B0FBF1F52846FEF75AFAE1
:101F5000022211460A48FFF783F94FF08071496C5D
:101F6000086E80470A21B0FBF1F52846FEF74AFAD1
:101F7000DEE70000000E2707800600F100000020C9
:101F80000050024070B5FFF79CF910B16FF00504E6
:101F90000EE002F06FF90546012D07D105480068F3
:101FA00020B9012003490860002401E04FF0FF340C
:101FB000204670BD6C00002070B5FFF782F910B1AB
:101FC0006FF0050424E002F055F90546012D1DD1FE
:101FD00010480068012819D100BF801F0021002887
:101FE00004DB4A07130E0C4A135406E04A07160E88
:101FF0000A4A00F00F031B1FD65400BF00BF022087
:102000000449086001F0D0F9002401E04FF0FF34EA
:10201000204670BD6C00002000E400E018ED00E0F8
:102020002DE9F84307460D4691461C463E464FF0C3
:102030000008FFF746F9E8B10EB105B114B16FF031
:10204000030829E0002000906A462946304601F046
:10205000AFFC012802D06FF002081DE000BF00981D
:1020600038B14FF080500E490860BFF34F8FBFF377
:102070006F8F11E006B115B96FF003080CE022462E
:102080002946304601F012FC012805D014B16FF04A
:10209000010801E06FF002084046BDE8F883000047
:1020A00004ED00E02DE9F84305460E4614464FF0D6
:1020B0000008FFF706F9002830D1002D2ED02EB3EE
:1020C000471EBCB1A06858B1E068502808D3206909
:1020D00030B105FB06F06169814201D301270AE0B6
:1020E000A06840B9E06830B9206920B9606910B9CA
:1020F000002700E00027012F09D100200090314681
:102100002846A368226901F08AFA804606E02FB9C2
:1021100000223146284601F059FA80464046BDE883
:10212000F88300002DE9F84307460D4691461C460A
:102130003E464FF00008FFF7C4F8F0B10EB105B10C
:1021400014B16FF003082BE00020009000236A46D2
:102150002946304601F05EFB012802D06FF00208EC
:102160001EE000BF009838B14FF080500E49086063
:10217000BFF34F8FBFF36F8F12E006B115B96FF049
:1021800003080DE0002322462946304601F0B6FA46
:10219000012805D014B16FF0010801E06FF00208CA
:1021A0004046BDE8F883000004ED00E02DE9FF475C
:1021B00080468946144600200390FFF782F80028E5
:1021C0004ED1B8F1000F4BD0802618258246471E0D
:1021D00044B3206808B1D4F800A0A06900B1A56993
:1021E0002DB1382D03D8207900F0010018B100205E
:1021F00004B0BDE8F087606908B160698608A0682E
:1022000040B1E0685C2805D3206918B1606908B165
:10221000012708E0A06830B9E06820B9206910B94A
:10222000002700E00027012F0CD12169A0684B4650
:102230003246CDE9005102905146404601F0D4FDAE
:1022400003900DE067B903A8B2B24B465146CDE901
:102250000050404601F092FD012801D0002003907B
:102260000398C5E710B5FFF72CF810B16FF005041F
:1022700008E000244FF0805003490860BFF34F8FFF
:10228000BFF36F8F204610BD04ED00E070B505462A
:102290002E46FFF716F800B90EB9002403E03046C9
:1022A00002F046FB0446204670BD00002DE9FF5FAA
:1022B00006468A4693461C4600200290FFF701F826
:1022C000002861D1002E5FD0002581463CB1A06876
:1022D00028B1E068342802D3A06800F12C0535B994
:1022E000082000F027FE05460DB14FF00109002D32
:1022F0004AD02E60C5F804B0BAF1000F01D1002712
:1023000000E001274FF0FF380020039094B12068CF
:1023100008B120680390A06828B1E0682C2802D397
:102320004FF0010808E0A06830B9E06820B94FF02C
:10233000000801E04FF0000845EA0905B8F1010F77
:102340000BD11349A0682B463A46CDE90010012174
:10235000039802F06EFA02900BE0B8F1000F08D17A
:102360000B482B463A4601210090039802F046FAAA
:102370000290029840B93DB1B9F1010F04D125F0A6
:102380000105284600F0FEFE029804B0BDE8F09F6B
:10239000B5180000F8B506460D463746FEF791FF22
:1023A00010B16FF0050412E007B115B96FF0030426
:1023B0000DE0002003462A4604210090384602F032
:1023C00081FA012801D1002401E06FF002042046C7
:1023D000F8BDF8B505462E46FEF773FF10B16FF055
:1023E000050418E016B96FF0030414E0304602F05B
:1023F0009FFA10B96FF002040DE000200346024678
:1024000003210090304602F05DFA012801D100243A
:1024100001E04FF0FF342046F8BD10B501F02AFF6F
:10242000022801D1012010BD0020FCE72DE9F04178
:1024300005460E462048076820480068001D00F049
:1024400020FE681CD8B9D6B11D4948681B490968E7
:1024500088601A4982680968CA6018490968091DB4
:102460008268516015490968091D8160144A134941
:1024700009684A6111460968491C11601AE07C1913
:102480000E4800684460BC4207D20C480168091D30
:102490000C48006800F039FE0CE008480168091D8E
:1024A0000948006800F031FE08480068844201D203
:1024B00006480460BDE8F081A800002094000020D8
:1024C0003C3300209C00002098000020C400002025
:1024D00010B5044600F034FE30480068401C2F4917
:1024E00008602F48006840B92D480460084600681D
:1024F00001280DD100F028FA0AE02A48006838B90E
:1025000027480068C06AE16A884201D8244804600C
:1025100025480068401C244908600846006860643B
:102520002249E06A0968884202D92049E06A0860C5
:10253000E16A01EB81011E4A02EB81014868A0605B
:102540008268E260211D826851608160E16A01EB6E
:102550008101174A02EB81026261E16A01EB8101AC
:10256000134A52F82110491CE26A02EB8202104B16
:1025700043F8221000F0F6FD0A48006868B10848E8
:102580000068C06AE16A884207D24FF0805009496A
:102590000860BFF34F8FBFF36F8F10BDA400002002
:1025A00094000020B0000020C0000020AC000020FB
:1025B0008C2E002004ED00E00146D1E90132D01854
:1025C0000A68801A8A68824201D88A68801A70472D
:1025D00008B500F0B5FD0E480068A8B90D4800F038
:1025E00084FD0D4800F081FD0A480C4908600A4846
:1025F0000B49086000200B4B0B4A1021009005206E
:1026000001F00DF80249086000F0ACFD08BD0000C3
:10261000DC0000205033002064330020D400002070
:10262000D800002078330020C833002010B516E011
:1026300000F086FD0C48C068C468201D00F021FD34
:102640000A480068401E0949086009480068401EA1
:102650000749086000F086FD204600F05FF8044856
:1026600000680028E4D110BD28330020A400002019
:10267000A000002070B504460D46206C70B1216C9E
:10268000E0680144E160D4E90210884201D3216886
:10269000E1602846226CE168FDF74FFF70BD2DE92F
:1026A000F04104460F4615464FF00008A66B206C1B
:1026B00048B9206800282CD1A06801F0B9FE8046F6
:1026C0000020A06025E07DB93946226C6068FDF7E6
:1026D00034FF216C606808446060D4E901018842DD
:1026E00017D32068606014E03946226CE068FDF77B
:1026F00024FF216CE068411AE1602168E0688842AB
:1027000003D2216CA068411AE160022D01D106B10B
:10271000761E701CA0634046BDE8F08110B50446EB
:1027200094F8590030B9206B00F02CFD204600F0E1
:1027300029FD06E094F85900012802D1204600F056
:1027400021FD10BD01464A6A22B10A6B1268C2F12E
:10275000380000E0002070470146084A12681268FD
:102760000AB9012200E000220A600A6822B9034A7D
:102770001268D268106800E000207047D400002082
:1027800030B54FF40053154800F007042CB1C01DBC
:1027900020F00700114C041B1B1B0246104C22604A
:1027A00000240F4D6C60D018083820F007000D4C45
:1027B000206000240B4D2D686C600A4D2D682C6044
:1027C0001146441A4C60074C24680C60064D4C6856
:1027D0002C60064D4C682C6030BD00008C0E002033
:1027E000740000207C000020840000208000002075
:1027F00000BFFFF71BFF064800680128F9D94FF01A
:10280000805004490860BFF34F8FBFF36F8FF0E72C
:102810008C2E002004ED00E010B5044654B10020D9
:10282000A06020600021E16000231A46194620467E
:1028300000F064FF10BD2DE9F04106460D46174635
:102840009846069C0DB9246000E02760E663256485
:102850000121204600F002FF84F84C80BDE8F081A1
:102860002DE9F04704460D4616461F46DDE9099A54
:10287000DDF8208024212046FDF7CEFEA561A6606C
:10288000E76084F81C80BDE8F0872DE9F05F8146A1
:102890000E4690469A460A9F0C9C4FEA8801A52254
:1028A000206BFDF78FFEA8F10100216B01EB800B7F
:1028B0002BF0070B7EB1002507E0715D04F13400B9
:1028C0004155705D00B902E06D1C102DF5D300BFBD
:1028D000002143200155382F00D33727E762E764F2
:1028E000201D00F00FFC04F1180000F00BFC246127
:1028F000C7F13800A061646252464946584600F06C
:10290000A5FB20600B9808B10B980460BDE8F09F10
:102910002DE9F04705460E4617469846DDE908942E
:10292000FFF756FE2560A661C4F81C80C4F820900D
:10293000201D00F0E7FB2FB194F8280040F00400C0
:1029400084F82800BDE8F08710B5002407E004EB08
:1029500084010F4A02EB810000F0C7FB641C382C95
:10296000F5D30C4800F0C1FB0B4800F0BEFB0B4850
:1029700000F0BBFB0A4800F0B8FB0A4800F0B5FBCA
:1029800004480949086004480849086010BD00006F
:102990008C2E0020EC320020003300201433002065
:1029A000283300203C330020980000209C000020A9
:1029B00010B50146164800E0006803688B42FBD35F
:1029C0000246436813448B4204D143684C68234455
:1029D000436001460A464B6813440468A34211D180
:1029E0000C4C03682468A34208D04B6804686468F0
:1029F00023444B6003681B680B6005E0054B1B68B4
:102A00000B6001E003680B60884200D0016010BDDC
:102A1000740000207C0000202DE9F04104460D46A2
:102A200016461F464FF0000865602461B5420CD879
:102A3000F01BA169884202D34FF0010811E0211D6B
:102A40000948006800F061FB0BE0BE4204D2BD42C1
:102A500002D34FF0010804E0211D0448006800F093
:102A600054FB4046BDE8F081D8000020D40000208F
:102A700070B5054600F064FBA86B08B9012400E0BE
:102A8000002400F06FFB204670BD70B5054600F0D5
:102A900057FBA86BE96B884201D1012400E00024B8
:102AA00000F060FB204670BD70B505460E460E482E
:102AB0000068C068C468201D00F0E3FA94F828009C
:102AC00000F0040028B132462946204600F023F9E0
:102AD00005E094F8280000F0FE0084F82800204665
:102AE000216A884770BD0000D400002070B586B010
:102AF00077E00298002805DA03AED6E90020B16835
:102B0000904700BF029800286BDB049C606908B9FD
:102B1000012000E0002010B9201D00F0B2FA01A849
:102B200000F026F9054602980A2858D2DFE800F09E
:102B30005705072E364706082F3700BF00BF00BFD6
:102B400094F8280040F0010084F828000398A26956
:102B5000811803462A462046FFF75EFFA8B194F885
:102B6000280000F0040038B10398A26981182A46B1
:102B7000204600F0D0F805E094F8280000F0FE00B0
:102B800084F828002046216A884729E000BF94F88D
:102B9000280000F0FE0084F8280021E000BF94F82F
:102BA000280040F0010084F828000398A061A06983
:102BB00041192B462A462046FFF72EFF10E094F8D5
:102BC000280000F0020018B9204600F0DBFA05E00A
:102BD00094F8280000F0FE0084F8280000E000BF10
:102BE00000BF002202A90448006800F05FFE002830
:102BF0007FF47FAF06B070BDDC000020F8B505465D
:102C00000C4600F01FFC684600F0B2F8064600983B
:102C100020BB44B9B54206D801F044FD31462846F0
:102C2000FFF742FF1CE03CB10E480068006808B99D
:102C3000012000E000200446A91B22460A48006843
:102C400000F0E4FA01F02EFD50B94FF08050074932
:102C50000860BFF34F8FBFF36F8F01E001F022FDDB
:102C6000F8BD0000D8000020DC00002004ED00E0EA
:102C70002DE9F0410546884616461C46A868001B0B
:102C8000B04202D2A868001B00E030460746A8699F
:102C900001193A464046FDF750FCBE4205D9F21BE9
:102CA00008EB0700A969FDF748FC3444A868A04276
:102CB00001D8A868241A2046BDE8F0812DE9F84F14
:102CC0000446894616461F46D4F800A0207F00F02F
:102CD000010060B15346042269462046FFF7C8FF51
:102CE0008246009D3F1FB54202D9002500E03546CF
:102CF000BD4201D2284600E038468046B8F1000FB8
:102D000006D05346424649462046FFF7B1FF2060B1
:102D10004046BDE8F88F70B504460D46164604E0FF
:102D2000A06905442046216A8847A06941192B46BD
:102D300032462046FFF770FE0028F1D170BD00003A
:102D400009480068006808B9012000E0002020B1AF
:102D50004FF0FF300549086005E003480068C0688F
:102D6000006802490860704798000020C4000020F5
:102D700070B5044601F08EFA0546074800688542A2
:102D800004D200F00BF80120206001E00020206058
:102D900001480560284670BDE400002070B508E0D9
:102DA0000D480068C06804684FF0FF312046FFF707
:102DB0007BFE09480068006808B9012000E0002097
:102DC0000028EDD0044805680448006802490860FE
:102DD0000248056070BD0000D4000020D80000202B
:102DE00000BF102080F31188BFF34F8FBFF36F8FA8
:102DF00000BF00BFFEE708B500BF6846FFF7ACFCA8
:102E0000044620460099FFF7F9FEFFF76FFEF4E74E
:102E100070B5044600F094F994F9455010E0606AEA
:102E200008B9012000E0002038B904F1240001F0C5
:102E3000B5FB18B100F01CFA00E003E0681E45B2D3
:102E4000002DECDC00BFFF2084F8450000F08AF97B
:102E500000F076F994F9445010E0206908B9012097
:102E600000E0002048B904F1100001F097FB08B120
:102E700000F0FEF9681E45B200E001E0002DECDC38
:102E800000BFFF2084F8440000F06CF970BD2DE90C
:102E9000F0410546884616461C46A868001BB0420D
:102EA00002D2A868001B00E030460746A96908194D
:102EB0003A464146FDF741FBBE4205D9F21B08EBFD
:102EC0000701A869FDF739FB3444A868A04201D87E
:102ED000A868241A2046BDE8F0812DE9F84305468C
:102EE0000F4614461E46DDF82090D5F80480287F52
:102EF00000F0010060B100944E4507D34346042220
:102F000069462846FFF7C3FF804607E0002405E036
:102F1000B44201D2204600E03046044634B1434674
:102F2000224639462846FFF7B2FF68602046BDE8D2
:102F3000F88300002DE9F04705464FF0000900F046
:102F400081FA3048006808B9FFF71AFC75B105F03E
:102F50000700C0F11008C8F1FF30A84201D20120DB
:102F600000E0002008B9454400E00025012000EB06
:102F7000E570002841D0002D3FD0234800688542ED
:102F80003BD8224E3046046801E02646246860683B
:102F9000A84202D220680028F7D11A48006884426B
:102FA0002BD0306800F10809206830606068401B51
:102FB000102807D967196068401B7860656038463B
:102FC000FFF7F6FC104960680968081A0E490860A6
:102FD000084600680E490968884203D20A4800681A
:102FE0000B490860606840F000406060002020608D
:102FF00008480068401C0749086001F053FB484638
:10300000BDE8F0877C0000208000002074000020D4
:1030100084000020880000200648006830B105497F
:10302000096801F15000096D491C01600148006800
:10303000704700009400002070B50446264600F05A
:103040007FF8F56900F08EF8284670BD001F4FF03C
:1030500080730360001F21F001030360001F054B14
:10306000036014380260001F6FF002030360203811
:1030700070470000E12D000002780B7803700A70A1
:10308000704701460A69D1E901309860D1E901032E
:1030900058605068884201D18868506000200861FB
:1030A0001068401E106010687047000001480068FA
:1030B00070470000A4000020034B0360034B0B602B
:1030C0008023136070470000940A0020F00A00205B
:1030D000034B0360034B0B605023136070470000E9
:1030E000F00C00204C0D0020704700F108014160F9
:1030F0004FF0FF31816000F10801C16001610021E2
:103100000160704700210161704710B502460B68ED
:103110005C1C0CB9106907E002F1080000E040688F
:10312000446824689C42FAD944684C604C68A160A9
:10313000886041600A611468641C146010BD00005E
:1031400000BF102080F31188BFF34F8FBFF36F8F44
:1031500000BF03480068401C014908607047000038
:103160009000002006480068401E05490860084697
:10317000006820B9002080F3118800BF00BF7047AD
:103180009000002070B506463546E6B1083D2C4655
:103190006068C00FB8B12068A8B9606820F000402E
:1031A000606000F04FF90849606809680844064902
:1031B00008602046FFF7FCFB04480068401C0349F8
:1031C000086001F06FFA70BD800000208C000020C4
:1031D00000204FF0E02108618861064800684FF444
:1031E0007A71B0FBF1F0401E4FF0E02148610720FA
:1031F000086170477000002070B50446254695F8B8
:10320000460010B92846FFF7BDFF70BD2DE9F0411B
:1032100005460E4617462C46FFF792FF94F94400E8
:10322000401C10B9002084F8440094F94500401C6B
:1032300010B9002084F84500FFF794FFA06B28B96F
:103240003A46314604F1240000F028F82046FFF702
:10325000DFFDBDE8F0810000034909680160034912
:103260000968416070470000BC000020A8000020F1
:103270000120014908607047B800002070B505467C
:103280000C460548016818312846FFF73EFF01212A
:103290002046FFF7CBF870BD9400002070B50446BF
:1032A0000E46154660680F490968C8610D49826875
:1032B00009680A620B490968183182685160094936
:1032C000096818318160074909688C622168491CC6
:1032D00021600DB14FF0FF3629463046FFF7A6F8C2
:1032E00070BD0000940000202DE9F04706460F460F
:1032F00034464FF00109002E4FD0E06CB84201D2A5
:103300003D4600E0E56CE06AA84246D0206D012809
:1033100043D1D4F82C80E562A06900F0004010B9D8
:10332000C5F13800A06108EB88011D4A02EB81015C
:103330006069884201D1012000E0002068B3201DAF
:10334000FFF79FFE1749E06A0968884202D91549CC
:10335000E06A0860E16A01EB8101114A02EB810138
:103360004868A0608268E260211D826851608160C7
:10337000E16A01EB81010A4A02EB81026261E16AC2
:1033800001EB8101064A52F82110491CE26A02EB66
:103390008202034B43F8221000BFBDE8F087000013
:1033A0008C2E0020AC00002010B586B000200590C7
:1033B000049003AA04A905A8FFF77EFE0022DDE918
:1033C00004101346CDE90021029016A11748039A74
:1033D00000F00AFD164908600846006808B101249B
:1033E00000E00024012C02D101F03CFA0446012C3B
:1033F00014D100BF102080F31188BFF34F8FBFF3AB
:103400006F8F00BF4FF0FF300A49086001200A4962
:10341000086000200949086000F074F80848006856
:1034200006B010BD49444C4500000000F1270000E3
:10343000C8000020C4000020B0000020A800002028
:10344000CC00002002480068401C01490860704719
:10345000D000002070B52648006818B10120254929
:10346000086043E000202349086023480068046B9B
:103470004FF0A5352068B0F1A53F0BD16068B0F1E1
:10348000A53F07D1A068B0F1A53F03D1E068B0F136
:10349000A53F05D01848016834310068FFF724FEC5
:1034A0001648016800E0491E01EB8100144A52F8F9
:1034B000200008B9012000E000200028F3D101EB32
:1034C00081020F4B03EB820042685268426000F1B8
:1034D00008024368934202D14268526842604268DF
:1034E000D268054B1A600548016000BF70BD00003E
:1034F000D0000020B800002094000020AC00002084
:103500008C2E002010B50E48006840F47F000C4956
:1035100008600846006840F07F400860FFF758FEEA
:10352000002008490860FCF731FF0748006840F0B8
:10353000404005490860FCF715FF002010BD000061
:1035400020ED00E09000002034EF00E010B500BF57
:10355000102080F31188BFF34F8FBFF36F8F00BF30
:1035600000F09EFE18B14FF080500449086000BF83
:10357000002080F3118800BF10BD000004ED00E0C2
:103580002DE9F041044601260027224600210120B2
:1035900000F01CF805462846FFF73EF92846BDE82E
:1035A000F0812DE9F84304460D4601274FF000084D
:1035B0002B46002211460120009400F030F8064608
:1035C0003046FFF729F93046BDE8F8832DE9F84386
:1035D00005460E4617460024F5B1601EB0FBF5F017
:1035E000B04219D305FB06F010F1510F14D805FBBA
:1035F00006F909F15000FFF79DFC044664B1A046AE
:1036000008F15008002084F846003B464246314607
:1036100028460094FFF70FF92046BDE8F8832DE90E
:10362000F84380460D4616461C46DDF820900027DC
:10363000B8F1000F0FD074B106B165B106B955B934
:103640002746012087F846004B4632462946404629
:103650000097FFF7F0F83846BDE8F8832DE9F04110
:1036600005460E4601272C46002C41D0E06B002871
:103670003ED0B91EE06BB1FBF0F0216C884237D32D
:10368000FFF75EFDD4E90F12206801FB0200A06085
:103690000020A06320686060E06B401E226C2168FF
:1036A00000FB0211E160FF2084F8440084F845002B
:1036B0009EB9206908B9012000E00020A8B904F1F2
:1036C000100000F06BFF80B14FF080500A49086095
:1036D000BFF34F8FBFF36F8F07E004F11000FFF7C8
:1036E00004FD04F12400FFF700FDFFF73BFD00E0BF
:1036F00000273846BDE8F08104ED00E02DE9FF43E6
:1037000083B0074688461D464FF000093C4600BF7F
:10371000FFF716FDA06BE16B884201D3022D28D183
:103720002A4641462046FEF7BAFF0646606A08B9B7
:10373000012000E0002068B904F1240000F02EFF11
:1037400088B14FF0805032490860BFF34F8FBFF30C
:103750006F8F08E03EB14FF080502D490860BFF3F5
:103760004F8FBFF36F8FFFF7FDFC012007B0BDE85F
:10377000F083059818B9FFF7F5FC0020F6E7B9F1DA
:10378000000F04D101A8FFF767FD4FF00109FFF713
:10379000E9FCFFF757FEFFF7D3FC94F94400401C07
:1037A00010B9002084F8440094F94500401C10B979
:1037B000002084F84500FFF7D5FC05A901A800F01A
:1037C000ADFAF0B92046FFF760F9A0B104F110009E
:1037D0000599FFF753FD2046FFF71AFB00F062FF43
:1037E000002895D14FF0805009490860BFF34F8FF2
:1037F000BFF36F8F8CE72046FFF70AFB00F052FF04
:1038000086E72046FFF704FB00F04CFF0020ADE701
:1038100004ED00E02DE9FF4F81B0054616461F4636
:103820002C4600BF1021EFF3118081F31188BFF304
:103830004F8FBFF36F8F00BF8146A06BE16B884253
:1038400001D3022F28D194F945A0A06B00903A46ED
:1038500020460299FEF723FF0AF1010070B9606A61
:1038600008B9012000E0002038B904F1240000F07C
:1038700095FE10B10EB1012030600AE0FFF716FC92
:103880008346DA4504D20AF1010040B284F84500CB
:1038900000BF4FF0010801E04FF0000800BF89F3BE
:1038A000118800BF404605B0BDE8F08F2DE9F74113
:1038B00083B005460F464FF000082C4600BFFFF7C7
:1038C0003FFCA66BF6B139462046FEF7D3FE701ECC
:1038D000A063206908B9012000E0002060B904F16C
:1038E000100000F05BFE38B14FF080502F490860A7
:1038F000BFF34F8FBFF36F8FFFF734FC012006B08B
:10390000BDE8F081059818B9FFF72CFC0020F6E718
:10391000B8F1000F04D101A8FFF79EFC4FF0010899
:10392000FFF720FCFFF78EFDFFF70AFC94F9440037
:10393000401C10B9002084F8440094F94500401C54
:1039400010B9002084F84500FFF70CFC05A901A878
:1039500000F0E4F9F0B92046FFF78AF8A0B104F1CD
:1039600024000599FFF78AFC2046FFF751FA00F082
:1039700099FE0028A3D14FF080500C490860BFF396
:103980004F8FBFF36F8F9AE72046FFF741FA00F0A1
:1039900089FE94E72046FFF73BFA00F083FE2046BD
:1039A000FFF766F800288AD00020A8E704ED00E0C1
:1039B0002DE9F74F054616462C4600BF1021EFF3C0
:1039C000118081F31188BFF34F8FBFF36F8F00BF5A
:1039D0008046D4F838A0BAF1000F27D094F944906B
:1039E00020460199FEF746FEAAF10100A06309F105
:1039F000010070B9206908B9012000E0002098B9E1
:103A000004F1100000F0CAFD70B16EB10120306009
:103A10000AE0FFF74BFB8346D94504D209F10100C8
:103A200040B284F8440000BF012700E0002700BF37
:103A300088F3118800BF3846BDE8FE8F2DE9F341B9
:103A400082B0054600272C46B84600BFFFF778FB3A
:103A5000A66BFEB1701EA063206810B9FFF7DCFAF8
:103A6000A060206908B9012000E0002060B904F1DD
:103A7000100000F093FD38B14FF080503A490860D3
:103A8000BFF34F8FBFF36F8FFFF76CFB012004B0C4
:103A9000BDE8F081039818B9FFF764FB0020F6E752
:103AA0001FB96846FFF7D8FB0127FFF75BFBFFF75D
:103AB000C9FCFFF745FB94F94400401C10B90020F5
:103AC00084F8440094F94500401C10B9002084F8A3
:103AD0004500FFF747FB03A9684600F01FF940BB0C
:103AE0002046FEF7C5FFF0B1206838B9FFF728FB84
:103AF000A06800F0E7FC8046FFF734FB04F12400E7
:103B00000399FFF7BBFB2046FFF782F900F0CAFDDF
:103B100000289BD14FF0805013490860BFF34F8FAE
:103B2000BFF36F8F92E72046FFF772F900F0BAFDFE
:103B30008CE72046FFF76CF900F0B4FD2046FEF755
:103B400097FF002882D0B8F1000F0BD0FFF7F8FAEA
:103B50002046FEF7F7FD06463146A068FFF7C4FB96
:103B6000FFF700FB002092E704ED00E02DE9FE4F97
:103B700004460E4690469946DDF830A0B8F1010F94
:103B800001D1012700E0002706B9012604F1250034
:103B9000844206D2641C04F12400FFF7CBF90546E9
:103BA00000E0002545B13346224605F124012846B0
:103BB0008DE88006FEF754FE2846BDE8FE8F2DE90D
:103BC000F84F05468A46934698462F464FF000091F
:103BD000387F00F0010008B1042600E00026B8F1AB
:103BE000000F21D0FFF7ACFA3846FEF7E5FC04469B
:103BF000B44206D80021084600F0C0FA00F034FBB9
:103C00003861FFF7AFFAB44212D800231A461946BA
:103C10001846CDF8008000F0D1FA0020386138460F
:103C2000FEF7CAFC044603E03846FEF7C5FC04462E
:103C3000B44219D923465A4651463846FFF73EF852
:103C40008146B9F1000F0FD0FFF7FCFB686948B15E
:103C500000200090686900231A46194600F0F0F829
:103C60000020686100F01EFD4846BDE8F88F2DE990
:103C7000FE4F05468B46904699462C46C246207F0D
:103C800000F0010008B10AF1040A204600F032F801
:103C90000290CDF800A0424659462046029BFFF70D
:103CA0001CF906461EB32046FEF786FCE1688842F2
:103CB0001DD300BF1021EFF3118081F31188BFF3F2
:103CC0004F8FBFF36F8F00BF0746206950B10020B0
:103CD000CDE90009206900231A46194600F054F97D
:103CE0000020206100BF87F3118800BF00BF30466D
:103CF000BDE8FE8F30B50246114600BF0B680D6867
:103D00008C6860194C68001B0C689C42F6D1401E00
:103D10008C68844201D88C68001B30BD70B50646A3
:103D20000C46FFF70DFA134802687068131A2068F2
:103D3000401C08B9002519E00F493068096888421D
:103D400006D07068904203D80125002020600DE065
:103D50002068984207D92068C01A20603046FFF7D3
:103D60007BFA002502E0002020600125FFF7FAF928
:103D7000284670BDA8000020BC0000202DE9FF4FA0
:103D800085B0804689461746DDE912ABB800FFF7DB
:103D9000D1F8064676B15C20FFF7CCF804462CB18A
:103DA0005C212046FCF738FC266304E03046FFF730
:103DB000E9F900E000248CB1002084F85900CDE935
:103DC00000ABCDE902403A4649464046089BFEF723
:103DD0005CFD2046FEF77CFB012501E04FF0FF353E
:103DE000284609B0BDE8F08F2DE9F04F85B00746B1
:103DF000884691469A46DDE90EB6109CCCB1C6B114
:103E000025465C212846FCF707FC2E63022085F836
:103E10005900002004A953464A46CDE900B1CDE936
:103E2000025041463846FEF730FD2846FEF750FB6B
:103E300001E000200490049805B0BDE8F08F000078
:103E40002DE9F05F81460D4616461F46DDF828A095
:103E50004FF0010B4C46FFF773F9BAF1000F05D094
:103E600004F1540050F82500CAF8000004F158008D
:103E700010F8058002214155052F29D2DFE807F00F
:103E800027030D171C0004F1540050F8250030439F
:103E900004F1540141F825001BE004F1540050F8EE
:103EA0002500401C04F1540141F8250011E004F103
:103EB000540040F825600CE0B8F1020F04D004F182
:103EC000540040F8256001E04FF0000B01E000E0F5
:103ED00000BF00BFB8F1010F49D16069D4E90212F7
:103EE0008A60D4E902214A60211D42688A4201D1D8
:103EF000E1684160002262610168491E01601E495B
:103F0000E06A0968884202D91B49E06A0860E16AF0
:103F100001EB8101194A02EB81014868A0608268C7
:103F2000E260211D826851608160E16A01EB8101DC
:103F3000124A02EB81026261E16A01EB81010F4AE0
:103F400052F82110491CE26A02EB82020B4B43F843
:103F500022100B49E06A0968C96A884207D94FF004
:103F6000805008490860BFF34F8FBFF36F8FFFF792
:103F7000F9F85846BDE8F09FAC0000208C2E0020D8
:103F80009400002004ED00E02DE9F04F05460C46BA
:103F9000DDE909674FF00109294600BF4FF0100A1B
:103FA000EFF311808AF31188BFF34F8FBFF36F8F48
:103FB00000BF804626B101F1540050F82400306063
:103FC00001F1580010F804C04FF0020A00F804A0F4
:103FD000052B29D2DFE803F027030D171C0001F1A0
:103FE000540050F82400104301F1540A4AF8240008
:103FF0001BE001F1540050F82400401C01F1540A68
:104000004AF8240011E001F1540040F824200CE0AB
:10401000BCF1020F04D001F1540040F8242001E06B
:104020004FF0000901E000E000BF00BFBCF1010F4C
:104030007ED14C48006800285CD14869D1E902ABC8
:10404000CAF808B0D1E902BACAF804B001F1040A0A
:10405000D0F804B0D34503D1D1F80CA0C0F804A027
:104060004FF0000BC1F814B0D0F800A0AAF1010A7B
:10407000C0F800A0DFF8F0A0C86ADAF800A0504548
:1040800004D9DFF8E4A0C86ACAF80000D1F82CA06F
:104090000AEB8A0ADFF8D4B00BEB8A0ADAF80400DC
:1040A0008860D0F808B0C1F80CB001F1040AD0F86B
:1040B00008B0CBF804A0C0F808A0D1F82CA00AEBF7
:1040C0008A0ADFF8A8B00BEB8A0BC1F814B0D1F85C
:1040D0002CA00AEB8A0ADFF894B05BF82AA00AF158
:1040E000010AD1F82CB00BEB8B0BDFF880E04EF817
:1040F0002BA01CE0DFF878A0DAF80400C861D0F843
:1041000008B0C1F820B001F1180AD0F808B0CBF817
:1041100004A0C0F808A0DFF858B0C1F828B0DA460B
:10412000DAF800A00AF1010ACBF800A000BF00E015
:1041300010E0DFF840A0C86ADAF800A0DAF82CA096
:10414000504507D90FB1012038600120DFF828A0C1
:10415000CAF8000000BF88F3118800BF4846BDE8D8
:10416000F08F0000D0000020AC0000208C2E00203A
:104170001433002094000020B80000202DE9F04105
:1041800006460C4616B90C48006800E03046074663
:10419000FEF7D6FF07F15800005D022805D1002187
:1041A00007F158000155012500E00025FEF7DAFF70
:1041B0002846BDE8F0810000940000202DE9F0477A
:1041C00004460F4690461D46DDF82090FEF7B8FFE6
:1041D000234800685830005D02281AD02049096839
:1041E000543101EB84000168B943016001211C488E
:1041F000006858300155B9F1000F0AD04846FEF763
:1042000015F94FF0805017490860BFF34F8FBFF387
:104210006F8FFEF7A7FFFEF793FF2DB110480068E0
:10422000543050F8240028600D4800685830005D74
:10423000022801D0002609E009490968543101EB40
:104240008400016821EA0801016001260021044878
:10425000006858300155FEF785FF3046BDE8F0870D
:104260009400002004ED00E0014908687047000058
:10427000940000200549096809B9012005E00449B6
:10428000096809B9022000E000207047B000002052
:10429000D00000200149086870470000A8000020F5
:1042A0002DE9F04100275748006800287DD1564885
:1042B0000068451C544805608DB95448D0F800800A
:1042C00053480068514908605148C0F8008051487F
:1042D0000068401C4F490860FEF732FD00BF4E48A1
:1042E0000068854275D300BF48480068006808B977
:1042F000012000E0002020B14FF0FF304649086067
:1043000066E042480068C068C4686668B54202D288
:10431000414806605CE06069D4E902128A60D4E931
:1043200002214A60211D42688A4201D1E168416050
:10433000002262610168491E0160A06A98B1A06A0A
:10434000D4E907128A60D4E907214A6004F1180110
:1043500042688A4201D1216A41600022A26201685A
:10436000491E016000BF2D49E06A0968884202D9F0
:104370002A49E06A0860E16A01EB8101284A02EB00
:1043800081014868A0608268E260211D82685160F6
:104390008160E16A01EB8101214A02EB81026261E5
:1043A000E16A01EB81011E4A00E022E052F821108F
:1043B000491CE26A02EB8202194B43F822101949A8
:1043C000E06A0968C96A88428ED901278CE700E053
:1043D00000BF14480068C06A00EB8000104951F823
:1043E0002000012800D901270F48006800B10127EB
:1043F00004E00E480068401C0C4908603846BDE8DF
:10440000F0810000D0000020A800002098000020CB
:104410009C000020BC000020C4000020AC00002054
:104420008C2E002094000020B8000020B400002052
:1044300070B505462C460026002D3CD0206D401E50
:104440002065E16CE06A884235D0206D98BB201D64
:10445000FEF717FEE06CE062E06AC0F13800A06190
:104460001649E06A0968884202D91449E06A08607E
:10447000E16A01EB8101124A02EB81014868A06008
:104480008268E260211D826851608160E16A01EB0F
:1044900081010B4A02EB81026261E16A01EB810159
:1044A000074A52F82110491CE26A02EB8202044BCF
:1044B00043F822100126304670BD0000AC000020F9
:1044C0008C2E002070B505462C460026002D5CD0B1
:1044D0002F49E06A0968C96A88424FD2A06900F092
:1044E000004028B92A480068C06AC0F13800A061BD
:1044F000E16A01EB8101274A02EB81016069884290
:1045000001D1012000E0002088B3201DFEF7B9FD95
:104510001F480068C06AE0621F49E06A0968884273
:1045200002D91D49E06A0860E16A01EB8101194A7C
:1045300002EB81014868A0608268E260211D826808
:1045400051608160E16A01EB8101124A02EB810254
:104550006261E16A01EB81010E4A52F82110491CA7
:10456000E26A02EB82020B4B43F8221004E0FFE701
:1045700007480068C06AE062012606E00449E06C72
:104580000968C96A884200D20126304670BD000021
:10459000940000208C2E0020AC00002070B5034653
:1045A000D868C168886AD1E90745A560D1E9075490
:1045B000656001F118044568A54201D10C6A4460A8
:1045C00000258D620468641E04603048006800287D
:1045D0003CD14869D1E90245A560D1E90254656042
:1045E0000C1D4568A54201D1CC68446000254D6191
:1045F0000468641E0460264CC86A2468A04202D97C
:10460000234CC86A2060CC6A04EB8404214D05EB7E
:104610008404606888608568CD600C1D85686C6066
:104620008460CC6A04EB84041A4D05EB84054D616B
:10463000CC6A04EB8404174D55F82440641CCD6A01
:1046400005EB8505134E46F8254010E0124C6068D6
:10465000C86185680D6201F1180485686C6084602A
:104660000D4D8D622C462468641C2C6000BF0B4CE1
:10467000C86A2468E46AA04204D901220120084CD7
:10468000206000E00022104670BD0000D000002035
:10469000AC0000208C2E0020143300209400002059
:1046A000B800002070B500240026FEF749FD4A48F6
:1046B0000068401E484908600846006800287DD10F
:1046C00046480068002879D05AE04548C068C46868
:1046D000A06AD4E907128A60D4E907214A6004F18C
:1046E000180142688A4201D1216A41600022A26217
:1046F0000168491E01606069D4E902128A60D4E948
:1047000002214A60211D42688A4201D1E16841606C
:10471000002262610168491E01603249E06A09684D
:10472000884202D92F49E06A0860E16A01EB810101
:104730002D4A02EB81014868A0608268E260211D79
:10474000826851608160E16A01EB8101264A02EBD7
:1047500081026261E16A01EB8101234A52F8211072
:10476000491CE26A02EB82021F4B43F822101F49E8
:10477000E06A0968C96A884202D301201C490860BE
:104780001748006808B9012000E0002000289CD0EC
:104790000CB1FEF7D5FA1748056865B100BFFFF701
:1047A0007FFD10B10120124908606D1E002DF6D169
:1047B0000020104908600E48006800E008E038B1A9
:1047C000012630070C490860BFF34F8FBFF36F8F8E
:1047D000FEF7C8FC304670BDD0000020A4000020C9
:1047E00014330020AC0000208C2E00209400002008
:1047F000B8000020B400002004ED00E02DE9FC47E3
:1048000005460E4617469846DDF828902C20FEF700
:1048100091FB044654B1002084F8280043463A46F0
:1048200031462846CDE90094FEF772F82046BDE8EF
:10483000FC872DE9FC4706460F4690469946DDE980
:104840000AA52C4654B1022084F828004B46424663
:1048500039463046CDE900A4FEF75AF82046BDE8B7
:10486000FC87000010B586B00024FDF7B1FE1048AB
:104870000068D0B100200590049003AA04A905A8FF
:10488000FEF726FC2822DDE904100023CDE90021F3
:10489000029008A10948039AFFF7A6FA08490860A0
:1048A0000846006800B1012400BF204606B010BDD4
:1048B000DC000020546D722053766300F72D000059
:1048C000E00000202DE9FF4705460C4616461F462E
:1048D000DDF830804FF000091448006810B30094F0
:1048E00001960295062C15DAFFF7C4FC022808D1C0
:1048F0000023424669460D480068FEF7FFFE8146E8
:1049000010E000231A46694608480068FEF7F6FEE4
:10491000814607E000233A46694604480068FEF7EE
:1049200079FF8146484604B0BDE8F087DC000020EE
:1049300070B504462646FEF703FC96F8280000F002
:10494000010008B9002500E00125FEF70BFC284610
:1049500070BD000010B500290AD00878002807D0E3
:1049600005487844FBF78AFF002801D0002010BDDD
:104970000248784410BD0000360600002E060000F4
:104980004FF04070E1EE100A70470000844E0000C6
:104990000000000000000000000000000000000017
:1049A00000000000984E0000000000000000000021
:1049B000000000000000000000000000AC4E0000FD
:1049C00000000000000000000000000000000000E7
:1049D00000020000180000000000000000000000BD
:1049E000B84E0000000000000000000000000000C1
:1049F000000000000004000018000000000000009B
:104A000000000000184F000000000000000000003F
:104A10000000000000000000000800001800000076
:104A200000000000000000003C4F000000000000FB
:104A30000000000000000000284F000000000000FF
:104A40000000000000000000504F000000000000C7
:104A50000000000000000000E04E00000000000028
:104A60000000000000000000C44E00000000000034
:104A70000000000000000000FC4E000000000000EC
:104A80000000000000000000644F000000C0004073
:104A900000D0004000E00040001800F0011800F0D5
:104AA000021800F000688909001C4E0E40420F00F9
:104AB00000201C0080841E0000802500999E360086
:104AC0000040380000093D0000803E0000004B001F
:104AD000404B4C0000204E00808D5B0000C05D000C
:104AE0000080700000127A0000007D00809698001F
:104AF000001BB7000080BB00C0E8CE00647ADA007B
:104B00000024F4000000FA0080A81201002D3101F9
:104B100000366E0140787D0140000000000000007A
:104B2000000100003E00080000000000000100003D
:104B3000A000000002000000000100003454010049
:104B400000000000000100002B70060000000000C3
:104B5000000100002800000000000000000100002B
:104B600027000100000000000001000020000000FC
:104B700000000000000100005000000002000000E2
:104B8000000100001AAC000000000000000100005D
:104B900017940900000000000001000016980500AD
:104BA00000000000000100001400000000000000F0
:104BB0000001000013800800000000000001000058
:104BC000A00000000800000000010000100000002C
:104BD00000000000000100002800000002000000AA
:104BE000000100004000000004000000000100007F
:104BF0006000000000000000000100005D000C00EB
:104C00000000000000010000500000000000000053
:104C1000000100004E000200000000000001000042
:104C200041AC010000000000000100003C00000059
:104C300000000000000100003A80090000000000B0
:104C40000001000030000000000000000001000032
:104C50002800000000000000000100002700010003
:104C600000000000000100002360060000000000BA
:104C700000010000216008000000000000010000A9
:104C80001E00000000000000000100001DC0040024
:104C900000000000000100005000000002000000C1
:104CA00000010000180000000000000000010000EA
:104CB000140000000000000000010000600000007F
:104CC00004000000000100000024F4003000300067
:104CD000005A62029100910000879303D200D20033
:104CE00000B4C4041301130100E1F505540154019B
:104CF000000E27079501950100C000401500000037
:104D000000D000401600000000E00040310000002C
:104D100000F000404B000000000001404C0000008B
:104D2000001001404D000000002001404E00000036
:104D3000003001404F00000000C00040150000009E
:104D400000D000401600000000E0004031000000EC
:104D500000F0004048000000000001404900000051
:104D6000001001404A000000002001404B000000FC
:104D7000003001404C000000000700000006000069
:104D80000005000000040000000300000002000015
:104D900000010000000000000000000018ED00E02D
:104DA0001CED00E020ED00E000E400E004E400E0A1
:104DB00008E400E00CE400E010E400E014E400E0AB
:104DC00018E400E01CE400E020E400E024E400E05B
:104DD00028E400E02CE400E030E400E034E400E00B
:104DE00038E400E03CE400E040E400E044E400E0BB
:104DF00048E400E04CE400E050E400E054E400E06B
:104E000058E400E05CE400E060E400E064E400E01A
:104E100068E400E06CE400E070E400E074E400E0CA
:104E200078E400E07CE400E080E400E084E400E07A
:104E300088E400E000E100E004E100E008E100E0D7
:104E40000CE100E010E100E080E100E084E100E03E
:104E500088E100E08CE100E090E100E000E200E0A9
:104E600004E200E008E200E00CE200E010E200E012
:104E700080E200E084E200E088E200E08CE200E012
:104E800090E200E0454C455641544F525F4D475229
:104E90005F51554555450000454C455641544F52CC
:104EA0005F54585F5155455545000000454C4556E7
:104EB00041544F525F525800454C455641544F5251
:104EC0005F54580043455F53544F505F4F50454E19
:104ED0005F444F4F52535F54494D4552000000000C
:104EE0004C455F53544F505F4F50454E5F444F4FBA
:104EF00052535F54494D45520000000052455F53E4
:104F0000544F505F4F50454E5F444F4F52535F5484
:104F1000494D455200000000454C455641544F5202
:104F20005F4D47520000000043455F444F4F5253CE
:104F30005F54494D454F5554000000004C455F44B7
:104F40004F4F52535F54494D454F55540000000098
:104F500052455F444F4F52535F54494D454F55544E
:104F60000000000030313233343536373839616271
:104F70006364656600000000A85000000000002087
:104F80006C060000A8020000DC5000006C06002047
:104F90000C300000E402000010010000430000009B
:104FA000F8FFFFFF0040404040404040404041414A
:104FB00041414140404040404040404040404040EE
:104FC0004040404040050202020202020202020288
:104FD0000202020202202020202020202020200285
:104FE0000202020202029090909090901010101015
:104FF00010101010101010101010101010101010B1
:105000000202020202028888888888880808080844
:105010000808080808080808080808080808080810
:105020000202020240000000000000000000000038
:105030000000000000000000000000000000000070
:105040000000000000000000000000000000000060
:105050000000000000000000000000000000000050
:105060000000000000000000000000000000000040
:105070000000000000000000000000000000000030
:105080000000000000000000000000000000000020
:105090000000000000000000000000000000000010
:1050A0000000000000000000013D0014136563646F
:1050B0006162636465666768696A6B6C6D6E6F7068
:1050C000E30102051D80F0FA020539AAAAAAAA0284
:0C50D000FF3701FF01FF01FF01FF01AAF3
:040000050000040DE6
:00000001FF
